{
  "address": "0x8b25deeb0058ff0f96f0697e4c744fb807155bb5",
  "abi": [
    {
      "anonymous": false,
      "inputs": [
        {
          "indexed": true,
          "internalType": "address",
          "name": "owner",
          "type": "address"
        },
        {
          "indexed": true,
          "internalType": "address",
          "name": "spender",
          "type": "address"
        },
        {
          "indexed": false,
          "internalType": "uint256",
          "name": "value",
          "type": "uint256"
        }
      ],
      "name": "Approval",
      "type": "event"
    },
    {
      "anonymous": false,
      "inputs": [
        {
          "indexed": false,
          "internalType": "uint8",
          "name": "version",
          "type": "uint8"
        }
      ],
      "name": "Initialized",
      "type": "event"
    },
    {
      "anonymous": false,
      "inputs": [
        {
          "indexed": true,
          "internalType": "address",
          "name": "previousOwner",
          "type": "address"
        },
        {
          "indexed": true,
          "internalType": "address",
          "name": "newOwner",
          "type": "address"
        }
      ],
      "name": "OwnershipTransferred",
      "type": "event"
    },
    {
      "anonymous": false,
      "inputs": [
        {
          "indexed": false,
          "internalType": "address",
          "name": "account",
          "type": "address"
        }
      ],
      "name": "Paused",
      "type": "event"
    },
    {
      "anonymous": false,
      "inputs": [
        {
          "indexed": true,
          "internalType": "address",
          "name": "from",
          "type": "address"
        },
        {
          "indexed": true,
          "internalType": "address",
          "name": "to",
          "type": "address"
        },
        {
          "indexed": false,
          "internalType": "uint256",
          "name": "value",
          "type": "uint256"
        }
      ],
      "name": "Transfer",
      "type": "event"
    },
    {
      "anonymous": false,
      "inputs": [
        {
          "indexed": false,
          "internalType": "address",
          "name": "account",
          "type": "address"
        }
      ],
      "name": "Unpaused",
      "type": "event"
    },
    {
      "inputs": [
        {
          "internalType": "address",
          "name": "owner",
          "type": "address"
        },
        {
          "internalType": "address",
          "name": "spender",
          "type": "address"
        }
      ],
      "name": "allowance",
      "outputs": [
        {
          "internalType": "uint256",
          "name": "",
          "type": "uint256"
        }
      ],
      "stateMutability": "view",
      "type": "function"
    },
    {
      "inputs": [
        {
          "internalType": "address",
          "name": "spender",
          "type": "address"
        },
        {
          "internalType": "uint256",
          "name": "amount",
          "type": "uint256"
        }
      ],
      "name": "approve",
      "outputs": [
        {
          "internalType": "bool",
          "name": "",
          "type": "bool"
        }
      ],
      "stateMutability": "nonpayable",
      "type": "function"
    },
    {
      "inputs": [
        {
          "internalType": "address",
          "name": "account",
          "type": "address"
        }
      ],
      "name": "balanceOf",
      "outputs": [
        {
          "internalType": "uint256",
          "name": "",
          "type": "uint256"
        }
      ],
      "stateMutability": "view",
      "type": "function"
    },
    {
      "inputs": [
        {
          "internalType": "uint256",
          "name": "amount",
          "type": "uint256"
        }
      ],
      "name": "bondsToShares",
      "outputs": [
        {
          "internalType": "uint256",
          "name": "",
          "type": "uint256"
        }
      ],
      "stateMutability": "view",
      "type": "function"
    },
    {
      "inputs": [
        {
          "internalType": "address",
          "name": "account",
          "type": "address"
        },
        {
          "internalType": "uint256",
          "name": "amount",
          "type": "uint256"
        }
      ],
      "name": "burn",
      "outputs": [],
      "stateMutability": "nonpayable",
      "type": "function"
    },
    {
      "inputs": [],
      "name": "decimals",
      "outputs": [
        {
          "internalType": "uint8",
          "name": "",
          "type": "uint8"
        }
      ],
      "stateMutability": "view",
      "type": "function"
    },
    {
      "inputs": [
        {
          "internalType": "address",
          "name": "spender",
          "type": "address"
        },
        {
          "internalType": "uint256",
          "name": "subtractedValue",
          "type": "uint256"
        }
      ],
      "name": "decreaseAllowance",
      "outputs": [
        {
          "internalType": "bool",
          "name": "",
          "type": "bool"
        }
      ],
      "stateMutability": "nonpayable",
      "type": "function"
    },
    {
      "inputs": [
        {
          "internalType": "address",
          "name": "spender",
          "type": "address"
        },
        {
          "internalType": "uint256",
          "name": "addedValue",
          "type": "uint256"
        }
      ],
      "name": "increaseAllowance",
      "outputs": [
        {
          "internalType": "bool",
          "name": "",
          "type": "bool"
        }
      ],
      "stateMutability": "nonpayable",
      "type": "function"
    },
    {
      "inputs": [
        {
          "internalType": "contract IStakingConfig",
          "name": "stakingConfig",
          "type": "address"
        },
        {
          "internalType": "string",
          "name": "name",
          "type": "string"
        },
        {
          "internalType": "string",
          "name": "symbol",
          "type": "string"
        }
      ],
      "name": "initialize",
      "outputs": [],
      "stateMutability": "nonpayable",
      "type": "function"
    },
    {
      "inputs": [],
      "name": "isRebasing",
      "outputs": [
        {
          "internalType": "bool",
          "name": "",
          "type": "bool"
        }
      ],
      "stateMutability": "pure",
      "type": "function"
    },
    {
      "inputs": [
        {
          "internalType": "address",
          "name": "account",
          "type": "address"
        },
        {
          "internalType": "uint256",
          "name": "amount",
          "type": "uint256"
        }
      ],
      "name": "mint",
      "outputs": [],
      "stateMutability": "nonpayable",
      "type": "function"
    },
    {
      "inputs": [],
      "name": "name",
      "outputs": [
        {
          "internalType": "string",
          "name": "",
          "type": "string"
        }
      ],
      "stateMutability": "view",
      "type": "function"
    },
    {
      "inputs": [],
      "name": "owner",
      "outputs": [
        {
          "internalType": "address",
          "name": "",
          "type": "address"
        }
      ],
      "stateMutability": "view",
      "type": "function"
    },
    {
      "inputs": [],
      "name": "pause",
      "outputs": [],
      "stateMutability": "nonpayable",
      "type": "function"
    },
    {
      "inputs": [],
      "name": "paused",
      "outputs": [
        {
          "internalType": "bool",
          "name": "",
          "type": "bool"
        }
      ],
      "stateMutability": "view",
      "type": "function"
    },
    {
      "inputs": [],
      "name": "ratio",
      "outputs": [
        {
          "internalType": "uint256",
          "name": "",
          "type": "uint256"
        }
      ],
      "stateMutability": "view",
      "type": "function"
    },
    {
      "inputs": [],
      "name": "renounceOwnership",
      "outputs": [],
      "stateMutability": "nonpayable",
      "type": "function"
    },
    {
      "inputs": [
        {
          "internalType": "uint256",
          "name": "amount",
          "type": "uint256"
        }
      ],
      "name": "sharesToBonds",
      "outputs": [
        {
          "internalType": "uint256",
          "name": "",
          "type": "uint256"
        }
      ],
      "stateMutability": "view",
      "type": "function"
    },
    {
      "inputs": [],
      "name": "symbol",
      "outputs": [
        {
          "internalType": "string",
          "name": "",
          "type": "string"
        }
      ],
      "stateMutability": "view",
      "type": "function"
    },
    {
      "inputs": [],
      "name": "totalSupply",
      "outputs": [
        {
          "internalType": "uint256",
          "name": "",
          "type": "uint256"
        }
      ],
      "stateMutability": "view",
      "type": "function"
    },
    {
      "inputs": [
        {
          "internalType": "address",
          "name": "to",
          "type": "address"
        },
        {
          "internalType": "uint256",
          "name": "amount",
          "type": "uint256"
        }
      ],
      "name": "transfer",
      "outputs": [
        {
          "internalType": "bool",
          "name": "",
          "type": "bool"
        }
      ],
      "stateMutability": "nonpayable",
      "type": "function"
    },
    {
      "inputs": [
        {
          "internalType": "address",
          "name": "from",
          "type": "address"
        },
        {
          "internalType": "address",
          "name": "to",
          "type": "address"
        },
        {
          "internalType": "uint256",
          "name": "amount",
          "type": "uint256"
        }
      ],
      "name": "transferFrom",
      "outputs": [
        {
          "internalType": "bool",
          "name": "",
          "type": "bool"
        }
      ],
      "stateMutability": "nonpayable",
      "type": "function"
    },
    {
      "inputs": [
        {
          "internalType": "address",
          "name": "newOwner",
          "type": "address"
        }
      ],
      "name": "transferOwnership",
      "outputs": [],
      "stateMutability": "nonpayable",
      "type": "function"
    },
    {
      "inputs": [],
      "name": "unpause",
      "outputs": [],
      "stateMutability": "nonpayable",
      "type": "function"
    }
  ],
  "transactionHash": "0xc616d3326fa9a7a4d62144b3d498b5acc8a63a214381b39e80a5aa51c80608c9",
  "args": [],
  "numDeployments": 1,
  "solcInputHash": "b14c316a4425235a5dcd9a91947d67f7",
  "bytecode": "0x608060405234801561001057600080fd5b506119c3806100206000396000f3fe608060405234801561001057600080fd5b50600436106101585760003560e01c806370a08231116100c357806395d89b411161007c57806395d89b41146102b05780639dc29fac146102b8578063a457c2d7146102cb578063a9059cbb146102de578063dd62ed3e146102f1578063f2fde38b1461030457600080fd5b806370a0823114610241578063715018a61461026a57806371ca337d146102725780638456cb591461027a5780638da5cb5b14610282578063906571471461029d57600080fd5b80633f4ba83a116101155780633f4ba83a146101e557806340c10f19146101ef57806353616373146102025780635c975abb146102155780635dfba115146102275780636c58d43d1461022e57600080fd5b806306fdde031461015d578063095ea7b31461017b57806318160ddd1461019e57806323b872dd146101b0578063313ce567146101c357806339509351146101d2575b600080fd5b610165610317565b6040516101729190611411565b60405180910390f35b61018e610189366004611474565b6103a9565b6040519015158152602001610172565b6067545b604051908152602001610172565b61018e6101be3660046114a0565b6103f7565b60405160128152602001610172565b61018e6101e0366004611474565b610446565b6101ed610468565b005b6101ed6101fd366004611474565b6105b5565b6101a26102103660046114e1565b610694565b609754600160a01b900460ff1661018e565b600061018e565b6101a261023c3660046114e1565b6106b0565b6101a261024f3660046114fa565b6001600160a01b031660009081526065602052604090205490565b6101ed6106cc565b6101a26106e0565b6101ed6107cf565b6033546040516001600160a01b039091168152602001610172565b6101ed6102ab3660046115ba565b6108db565b610165610a14565b6101ed6102c6366004611474565b610a23565b61018e6102d9366004611474565b610afe565b61018e6102ec366004611474565b610b79565b6101a26102ff366004611630565b610bb2565b6101ed6103123660046114fa565b610bdd565b60606068805461032690611669565b80601f016020809104026020016040519081016040528092919081815260200182805461035290611669565b801561039f5780601f106103745761010080835404028352916020019161039f565b820191906000526020600020905b81548152906001019060200180831161038257829003601f168201915b5050505050905090565b609754600090600160a01b900460ff16156103df5760405162461bcd60e51b81526004016103d6906116a3565b60405180910390fd5b336103eb818585610c56565b60019150505b92915050565b609754600090600160a01b900460ff16156104245760405162461bcd60e51b81526004016103d6906116a3565b33610430858285610d7b565b61043b858585610def565b506001949350505050565b6000336103eb8185856104598383610bb2565b61046391906116f0565b610c56565b609754600160a01b900460ff166104c15760405162461bcd60e51b815260206004820152601c60248201527f4365727469666963617465546f6b656e3a206e6f74207061757365640000000060448201526064016103d6565b609760009054906101000a90046001600160a01b03166001600160a01b031663732524946040518163ffffffff1660e01b8152600401602060405180830381865afa158015610514573d6000803e3d6000fd5b505050506040513d601f19601f820116820180604052508101906105389190611703565b6001600160a01b0316336001600160a01b0316146105685760405162461bcd60e51b81526004016103d690611720565b6097805460ff60a01b191690557f5db9ee0a495bf2e6ff9c91a7834c1ba4fdd244a5e8aa4e537bd38aeae4b073aa335b6040516001600160a01b03909116815260200160405180910390a1565b609754600160a01b900460ff16156105df5760405162461bcd60e51b81526004016103d6906116a3565b609760009054906101000a90046001600160a01b03166001600160a01b031663b6217be76040518163ffffffff1660e01b8152600401602060405180830381865afa158015610632573d6000803e3d6000fd5b505050506040513d601f19601f820116820180604052508101906106569190611703565b6001600160a01b0316336001600160a01b0316146106865760405162461bcd60e51b81526004016103d690611769565b6106908282610f9a565b5050565b60006103f1826106a26106e0565b670de0b6b3a764000061105b565b60006103f182670de0b6b3a76400006106c76106e0565b6110a0565b6106d4611116565b6106de6000611170565b565b600080609760009054906101000a90046001600160a01b03166001600160a01b031663e87ff3446040518163ffffffff1660e01b8152600401602060405180830381865afa158015610736573d6000803e3d6000fd5b505050506040513d601f19601f8201168201806040525081019061075a9190611703565b60405163a1f1d48d60e01b81523060048201529091506000906001600160a01b0383169063a1f1d48d90602401602060405180830381865afa1580156107a4573d6000803e3d6000fd5b505050506040513d601f19601f820116820180604052508101906107c891906117b3565b9392505050565b609754600160a01b900460ff16156107f95760405162461bcd60e51b81526004016103d6906116a3565b609760009054906101000a90046001600160a01b03166001600160a01b031663732524946040518163ffffffff1660e01b8152600401602060405180830381865afa15801561084c573d6000803e3d6000fd5b505050506040513d601f19601f820116820180604052508101906108709190611703565b6001600160a01b0316336001600160a01b0316146108a05760405162461bcd60e51b81526004016103d690611720565b6097805460ff60a01b1916600160a01b1790557f62e78cea01bee320cd4e420270b5ea74000d11b0c9f74754ebdbfc544b05a2586105983390565b600054610100900460ff16158080156108fb5750600054600160ff909116105b806109155750303b158015610915575060005460ff166001145b6109785760405162461bcd60e51b815260206004820152602e60248201527f496e697469616c697a61626c653a20636f6e747261637420697320616c72656160448201526d191e481a5b9a5d1a585b1a5e995960921b60648201526084016103d6565b6000805460ff19166001179055801561099b576000805461ff0019166101001790555b6109a36111c2565b6109ad83836111f1565b609780546001600160a01b0319166001600160a01b0386161790558015610a0e576000805461ff0019169055604051600181527f7f26b83ff96e1f2b6a682f133852f6798a09c465da95921460cefb38474024989060200160405180910390a15b50505050565b60606069805461032690611669565b609754600160a01b900460ff1615610a4d5760405162461bcd60e51b81526004016103d6906116a3565b609760009054906101000a90046001600160a01b03166001600160a01b031663b6217be76040518163ffffffff1660e01b8152600401602060405180830381865afa158015610aa0573d6000803e3d6000fd5b505050506040513d601f19601f82011682018060405250810190610ac49190611703565b6001600160a01b0316336001600160a01b031614610af45760405162461bcd60e51b81526004016103d690611769565b6106908282611222565b60003381610b0c8286610bb2565b905083811015610b6c5760405162461bcd60e51b815260206004820152602560248201527f45524332303a2064656372656173656420616c6c6f77616e63652062656c6f77604482015264207a65726f60d81b60648201526084016103d6565b61043b8286868403610c56565b609754600090600160a01b900460ff1615610ba65760405162461bcd60e51b81526004016103d6906116a3565b336103eb818585610def565b6001600160a01b03918216600090815260666020908152604080832093909416825291909152205490565b610be5611116565b6001600160a01b038116610c4a5760405162461bcd60e51b815260206004820152602660248201527f4f776e61626c653a206e6577206f776e657220697320746865207a65726f206160448201526564647265737360d01b60648201526084016103d6565b610c5381611170565b50565b6001600160a01b038316610cb85760405162461bcd60e51b8152602060048201526024808201527f45524332303a20617070726f76652066726f6d20746865207a65726f206164646044820152637265737360e01b60648201526084016103d6565b6001600160a01b038216610d195760405162461bcd60e51b815260206004820152602260248201527f45524332303a20617070726f766520746f20746865207a65726f206164647265604482015261737360f01b60648201526084016103d6565b6001600160a01b0383811660008181526066602090815260408083209487168084529482529182902085905590518481527f8c5be1e5ebec7d5bd14f71427d1e84f3dd0314c0f7b2291e5b200ac8c7c3b92591015b60405180910390a3505050565b6000610d878484610bb2565b90506000198114610a0e5781811015610de25760405162461bcd60e51b815260206004820152601d60248201527f45524332303a20696e73756666696369656e7420616c6c6f77616e636500000060448201526064016103d6565b610a0e8484848403610c56565b6001600160a01b038316610e535760405162461bcd60e51b815260206004820152602560248201527f45524332303a207472616e736665722066726f6d20746865207a65726f206164604482015264647265737360d81b60648201526084016103d6565b6001600160a01b038216610eb55760405162461bcd60e51b815260206004820152602360248201527f45524332303a207472616e7366657220746f20746865207a65726f206164647260448201526265737360e81b60648201526084016103d6565b6001600160a01b03831660009081526065602052604090205481811015610f2d5760405162461bcd60e51b815260206004820152602660248201527f45524332303a207472616e7366657220616d6f756e7420657863656564732062604482015265616c616e636560d01b60648201526084016103d6565b6001600160a01b0380851660008181526065602052604080822086860390559286168082529083902080548601905591517fddf252ad1be2c89b69c2b068fc378daa952ba7f163c4a11628f55a4df523b3ef90610f8d9086815260200190565b60405180910390a3610a0e565b6001600160a01b038216610ff05760405162461bcd60e51b815260206004820152601f60248201527f45524332303a206d696e7420746f20746865207a65726f20616464726573730060448201526064016103d6565b806067600082825461100291906116f0565b90915550506001600160a01b0382166000818152606560209081526040808320805486019055518481527fddf252ad1be2c89b69c2b068fc378daa952ba7f163c4a11628f55a4df523b3ef910160405180910390a35050565b600061109861107361106d84876117e2565b85611353565b838561107f82896117f6565b611089919061180a565b61109391906117e2565b611389565b949350505050565b6000816000036110db5760405162461bcd60e51b8152602060048201526006602482015265063203d3d20360d41b60448201526064016103d6565b6110986110eb61106d84876117e2565b836110f7600182611821565b86611102878a6117f6565b61110c919061180a565b61108991906116f0565b6033546001600160a01b031633146106de5760405162461bcd60e51b815260206004820181905260248201527f4f776e61626c653a2063616c6c6572206973206e6f7420746865206f776e657260448201526064016103d6565b603380546001600160a01b038381166001600160a01b0319831681179093556040519116919082907f8be0079c531659141344cd1fd0a4f28419497f9722a3daafe3b4186f6b6457e090600090a35050565b600054610100900460ff166111e95760405162461bcd60e51b81526004016103d690611834565b6106de6113a1565b600054610100900460ff166112185760405162461bcd60e51b81526004016103d690611834565b61069082826113d1565b6001600160a01b0382166112825760405162461bcd60e51b815260206004820152602160248201527f45524332303a206275726e2066726f6d20746865207a65726f206164647265736044820152607360f81b60648201526084016103d6565b6001600160a01b038216600090815260656020526040902054818110156112f65760405162461bcd60e51b815260206004820152602260248201527f45524332303a206275726e20616d6f756e7420657863656564732062616c616e604482015261636560f01b60648201526084016103d6565b6001600160a01b03831660008181526065602090815260408083208686039055606780548790039055518581529192917fddf252ad1be2c89b69c2b068fc378daa952ba7f163c4a11628f55a4df523b3ef9101610d6e565b505050565b600082600003611365575060006103f1565b82820282848281611378576113786117cc565b04146107c8576000199150506103f1565b6000828201838110156107c8576000199150506103f1565b600054610100900460ff166113c85760405162461bcd60e51b81526004016103d690611834565b6106de33611170565b600054610100900460ff166113f85760405162461bcd60e51b81526004016103d690611834565b606861140483826118cd565b50606961134e82826118cd565b600060208083528351808285015260005b8181101561143e57858101830151858201604001528201611422565b506000604082860101526040601f19601f8301168501019250505092915050565b6001600160a01b0381168114610c5357600080fd5b6000806040838503121561148757600080fd5b82356114928161145f565b946020939093013593505050565b6000806000606084860312156114b557600080fd5b83356114c08161145f565b925060208401356114d08161145f565b929592945050506040919091013590565b6000602082840312156114f357600080fd5b5035919050565b60006020828403121561150c57600080fd5b81356107c88161145f565b634e487b7160e01b600052604160045260246000fd5b600082601f83011261153e57600080fd5b813567ffffffffffffffff8082111561155957611559611517565b604051601f8301601f19908116603f0116810190828211818310171561158157611581611517565b8160405283815286602085880101111561159a57600080fd5b836020870160208301376000602085830101528094505050505092915050565b6000806000606084860312156115cf57600080fd5b83356115da8161145f565b9250602084013567ffffffffffffffff808211156115f757600080fd5b6116038783880161152d565b9350604086013591508082111561161957600080fd5b506116268682870161152d565b9150509250925092565b6000806040838503121561164357600080fd5b823561164e8161145f565b9150602083013561165e8161145f565b809150509250929050565b600181811c9082168061167d57607f821691505b60208210810361169d57634e487b7160e01b600052602260045260246000fd5b50919050565b60208082526018908201527f4365727469666963617465546f6b656e3a207061757365640000000000000000604082015260600190565b634e487b7160e01b600052601160045260246000fd5b808201808211156103f1576103f16116da565b60006020828403121561171557600080fd5b81516107c88161145f565b60208082526029908201527f4365727469666963617465546f6b656e3a206f6e6c7920676f7665726e616e636040820152681948185b1b1bddd95960ba1b606082015260800190565b6020808252602a908201527f4365727469666963617465546f6b656e3a206f6e6c79206c6971756964207374604082015269185ada5b99c81c1bdbdb60b21b606082015260800190565b6000602082840312156117c557600080fd5b5051919050565b634e487b7160e01b600052601260045260246000fd5b6000826117f1576117f16117cc565b500490565b600082611805576118056117cc565b500690565b80820281158282048414176103f1576103f16116da565b818103818111156103f1576103f16116da565b6020808252602b908201527f496e697469616c697a61626c653a20636f6e7472616374206973206e6f74206960408201526a6e697469616c697a696e6760a81b606082015260800190565b601f82111561134e57600081815260208120601f850160051c810160208610156118a65750805b601f850160051c820191505b818110156118c5578281556001016118b2565b505050505050565b815167ffffffffffffffff8111156118e7576118e7611517565b6118fb816118f58454611669565b8461187f565b602080601f83116001811461193057600084156119185750858301515b600019600386901b1c1916600185901b1785556118c5565b600085815260208120601f198616915b8281101561195f57888601518255948401946001909101908401611940565b508582101561197d5787850151600019600388901b60f8161c191681555b5050505050600190811b0190555056fea2646970667358221220f0b1272331431f08f5357d1fccd1e76fe20666b1a94437e5fc8a67b61975069964736f6c63430008130033",
  "devdoc": {
    "events": {
      "Approval(address,address,uint256)": {
        "details": "Emitted when the allowance of a `spender` for an `owner` is set by a call to {approve}. `value` is the new allowance."
      },
      "Initialized(uint8)": {
        "details": "Triggered when the contract has been initialized or reinitialized."
      },
      "Transfer(address,address,uint256)": {
        "details": "Emitted when `value` tokens are moved from one account (`from`) to another (`to`). Note that `value` may be zero."
      }
    },
    "kind": "dev",
    "methods": {
      "allowance(address,address)": {
        "details": "See {IERC20-allowance}."
      },
      "balanceOf(address)": {
        "details": "See {IERC20-balanceOf}."
      },
      "decimals()": {
        "details": "Returns the number of decimals used to get its user representation. For example, if `decimals` equals `2`, a balance of `505` tokens should be displayed to a user as `5.05` (`505 / 10 ** 2`). Tokens usually opt for a value of 18, imitating the relationship between Ether and Wei. This is the default value returned by this function, unless it's overridden. NOTE: This information is only used for _display_ purposes: it in no way affects any of the arithmetic of the contract, including {IERC20-balanceOf} and {IERC20-transfer}."
      },
      "decreaseAllowance(address,uint256)": {
        "details": "Atomically decreases the allowance granted to `spender` by the caller. This is an alternative to {approve} that can be used as a mitigation for problems described in {IERC20-approve}. Emits an {Approval} event indicating the updated allowance. Requirements: - `spender` cannot be the zero address. - `spender` must have allowance for the caller of at least `subtractedValue`."
      },
      "increaseAllowance(address,uint256)": {
        "details": "Atomically increases the allowance granted to `spender` by the caller. This is an alternative to {approve} that can be used as a mitigation for problems described in {IERC20-approve}. Emits an {Approval} event indicating the updated allowance. Requirements: - `spender` cannot be the zero address."
      },
      "name()": {
        "details": "Returns the name of the token."
      },
      "owner()": {
        "details": "Returns the address of the current owner."
      },
      "renounceOwnership()": {
        "details": "Leaves the contract without owner. It will not be possible to call `onlyOwner` functions. Can only be called by the current owner. NOTE: Renouncing ownership will leave the contract without an owner, thereby disabling any functionality that is only available to the owner."
      },
      "symbol()": {
        "details": "Returns the symbol of the token, usually a shorter version of the name."
      },
      "totalSupply()": {
        "details": "See {IERC20-totalSupply}."
      },
      "transferOwnership(address)": {
        "details": "Transfers ownership of the contract to a new account (`newOwner`). Can only be called by the current owner."
      }
    },
    "version": 1
  },
  "userdoc": {
    "kind": "user",
    "methods": {},
    "version": 1
  },
  "storageLayout": {
    "storage": [
      {
        "astId": 138,
        "contract": "contracts/CertificateToken.sol:CertificateToken",
        "label": "_initialized",
        "offset": 0,
        "slot": "0",
        "type": "t_uint8"
      },
      {
        "astId": 141,
        "contract": "contracts/CertificateToken.sol:CertificateToken",
        "label": "_initializing",
        "offset": 1,
        "slot": "0",
        "type": "t_bool"
      },
      {
        "astId": 1470,
        "contract": "contracts/CertificateToken.sol:CertificateToken",
        "label": "__gap",
        "offset": 0,
        "slot": "1",
        "type": "t_array(t_uint256)50_storage"
      },
      {
        "astId": 10,
        "contract": "contracts/CertificateToken.sol:CertificateToken",
        "label": "_owner",
        "offset": 0,
        "slot": "51",
        "type": "t_address"
      },
      {
        "astId": 130,
        "contract": "contracts/CertificateToken.sol:CertificateToken",
        "label": "__gap",
        "offset": 0,
        "slot": "52",
        "type": "t_array(t_uint256)49_storage"
      },
      {
        "astId": 403,
        "contract": "contracts/CertificateToken.sol:CertificateToken",
        "label": "_balances",
        "offset": 0,
        "slot": "101",
        "type": "t_mapping(t_address,t_uint256)"
      },
      {
        "astId": 409,
        "contract": "contracts/CertificateToken.sol:CertificateToken",
        "label": "_allowances",
        "offset": 0,
        "slot": "102",
        "type": "t_mapping(t_address,t_mapping(t_address,t_uint256))"
      },
      {
        "astId": 411,
        "contract": "contracts/CertificateToken.sol:CertificateToken",
        "label": "_totalSupply",
        "offset": 0,
        "slot": "103",
        "type": "t_uint256"
      },
      {
        "astId": 413,
        "contract": "contracts/CertificateToken.sol:CertificateToken",
        "label": "_name",
        "offset": 0,
        "slot": "104",
        "type": "t_string_storage"
      },
      {
        "astId": 415,
        "contract": "contracts/CertificateToken.sol:CertificateToken",
        "label": "_symbol",
        "offset": 0,
        "slot": "105",
        "type": "t_string_storage"
      },
      {
        "astId": 995,
        "contract": "contracts/CertificateToken.sol:CertificateToken",
        "label": "__gap",
        "offset": 0,
        "slot": "106",
        "type": "t_array(t_uint256)45_storage"
      },
      {
        "astId": 2205,
        "contract": "contracts/CertificateToken.sol:CertificateToken",
        "label": "_stakingConfig",
        "offset": 0,
        "slot": "151",
        "type": "t_contract(IStakingConfig)4460"
      },
      {
        "astId": 2207,
        "contract": "contracts/CertificateToken.sol:CertificateToken",
        "label": "_paused",
        "offset": 20,
        "slot": "151",
        "type": "t_bool"
      },
      {
        "astId": 2213,
        "contract": "contracts/CertificateToken.sol:CertificateToken",
        "label": "__reserved",
        "offset": 0,
        "slot": "152",
        "type": "t_array(t_uint256)96_storage"
      }
    ],
    "types": {
      "t_address": {
        "encoding": "inplace",
        "label": "address",
        "numberOfBytes": "20"
      },
      "t_array(t_uint256)45_storage": {
        "base": "t_uint256",
        "encoding": "inplace",
        "label": "uint256[45]",
        "numberOfBytes": "1440"
      },
      "t_array(t_uint256)49_storage": {
        "base": "t_uint256",
        "encoding": "inplace",
        "label": "uint256[49]",
        "numberOfBytes": "1568"
      },
      "t_array(t_uint256)50_storage": {
        "base": "t_uint256",
        "encoding": "inplace",
        "label": "uint256[50]",
        "numberOfBytes": "1600"
      },
      "t_array(t_uint256)96_storage": {
        "base": "t_uint256",
        "encoding": "inplace",
        "label": "uint256[96]",
        "numberOfBytes": "3072"
      },
      "t_bool": {
        "encoding": "inplace",
        "label": "bool",
        "numberOfBytes": "1"
      },
      "t_contract(IStakingConfig)4460": {
        "encoding": "inplace",
        "label": "contract IStakingConfig",
        "numberOfBytes": "20"
      },
      "t_mapping(t_address,t_mapping(t_address,t_uint256))": {
        "encoding": "mapping",
        "key": "t_address",
        "label": "mapping(address => mapping(address => uint256))",
        "numberOfBytes": "32",
        "value": "t_mapping(t_address,t_uint256)"
      },
      "t_mapping(t_address,t_uint256)": {
        "encoding": "mapping",
        "key": "t_address",
        "label": "mapping(address => uint256)",
        "numberOfBytes": "32",
        "value": "t_uint256"
      },
      "t_string_storage": {
        "encoding": "bytes",
        "label": "string",
        "numberOfBytes": "32"
      },
      "t_uint256": {
        "encoding": "inplace",
        "label": "uint256",
        "numberOfBytes": "32"
      },
      "t_uint8": {
        "encoding": "inplace",
        "label": "uint8",
        "numberOfBytes": "1"
      }
    }
  }
}