{
  "address": "0xCD206A865d95899013d0ed2fE4B97D897f732523",
  "abi": [
    {
      "inputs": [],
      "name": "OnlyGovernanceAllowed",
      "type": "error"
    },
    {
      "inputs": [],
      "name": "OnlyOperatorAllowed",
      "type": "error"
    },
    {
      "inputs": [],
      "name": "OnlyRestakingPoolAllowed",
      "type": "error"
    },
    {
      "anonymous": false,
      "inputs": [
        {
          "indexed": true,
          "internalType": "address",
          "name": "owner",
          "type": "address"
        },
        {
          "indexed": true,
          "internalType": "address",
          "name": "spender",
          "type": "address"
        },
        {
          "indexed": false,
          "internalType": "uint256",
          "name": "value",
          "type": "uint256"
        }
      ],
      "name": "Approval",
      "type": "event"
    },
    {
      "anonymous": false,
      "inputs": [
        {
          "indexed": false,
          "internalType": "uint8",
          "name": "version",
          "type": "uint8"
        }
      ],
      "name": "Initialized",
      "type": "event"
    },
    {
      "anonymous": false,
      "inputs": [
        {
          "indexed": true,
          "internalType": "address",
          "name": "previousOwner",
          "type": "address"
        },
        {
          "indexed": true,
          "internalType": "address",
          "name": "newOwner",
          "type": "address"
        }
      ],
      "name": "OwnershipTransferred",
      "type": "event"
    },
    {
      "anonymous": false,
      "inputs": [
        {
          "indexed": false,
          "internalType": "address",
          "name": "account",
          "type": "address"
        }
      ],
      "name": "Paused",
      "type": "event"
    },
    {
      "anonymous": false,
      "inputs": [
        {
          "indexed": true,
          "internalType": "address",
          "name": "from",
          "type": "address"
        },
        {
          "indexed": true,
          "internalType": "address",
          "name": "to",
          "type": "address"
        },
        {
          "indexed": false,
          "internalType": "uint256",
          "name": "value",
          "type": "uint256"
        }
      ],
      "name": "Transfer",
      "type": "event"
    },
    {
      "anonymous": false,
      "inputs": [
        {
          "indexed": false,
          "internalType": "address",
          "name": "account",
          "type": "address"
        }
      ],
      "name": "Unpaused",
      "type": "event"
    },
    {
      "inputs": [
        {
          "internalType": "address",
          "name": "owner",
          "type": "address"
        },
        {
          "internalType": "address",
          "name": "spender",
          "type": "address"
        }
      ],
      "name": "allowance",
      "outputs": [
        {
          "internalType": "uint256",
          "name": "",
          "type": "uint256"
        }
      ],
      "stateMutability": "view",
      "type": "function"
    },
    {
      "inputs": [
        {
          "internalType": "address",
          "name": "spender",
          "type": "address"
        },
        {
          "internalType": "uint256",
          "name": "amount",
          "type": "uint256"
        }
      ],
      "name": "approve",
      "outputs": [
        {
          "internalType": "bool",
          "name": "",
          "type": "bool"
        }
      ],
      "stateMutability": "nonpayable",
      "type": "function"
    },
    {
      "inputs": [
        {
          "internalType": "address",
          "name": "account",
          "type": "address"
        }
      ],
      "name": "balanceOf",
      "outputs": [
        {
          "internalType": "uint256",
          "name": "",
          "type": "uint256"
        }
      ],
      "stateMutability": "view",
      "type": "function"
    },
    {
      "inputs": [
        {
          "internalType": "uint256",
          "name": "amount",
          "type": "uint256"
        }
      ],
      "name": "bondsToShares",
      "outputs": [
        {
          "internalType": "uint256",
          "name": "",
          "type": "uint256"
        }
      ],
      "stateMutability": "view",
      "type": "function"
    },
    {
      "inputs": [
        {
          "internalType": "address",
          "name": "account",
          "type": "address"
        },
        {
          "internalType": "uint256",
          "name": "shares",
          "type": "uint256"
        }
      ],
      "name": "burn",
      "outputs": [],
      "stateMutability": "nonpayable",
      "type": "function"
    },
    {
      "inputs": [
        {
          "internalType": "uint256",
          "name": "shares",
          "type": "uint256"
        }
      ],
      "name": "convertToAmount",
      "outputs": [
        {
          "internalType": "uint256",
          "name": "",
          "type": "uint256"
        }
      ],
      "stateMutability": "view",
      "type": "function"
    },
    {
      "inputs": [
        {
          "internalType": "uint256",
          "name": "amount",
          "type": "uint256"
        }
      ],
      "name": "convertToShares",
      "outputs": [
        {
          "internalType": "uint256",
          "name": "",
          "type": "uint256"
        }
      ],
      "stateMutability": "view",
      "type": "function"
    },
    {
      "inputs": [],
      "name": "decimals",
      "outputs": [
        {
          "internalType": "uint8",
          "name": "",
          "type": "uint8"
        }
      ],
      "stateMutability": "view",
      "type": "function"
    },
    {
      "inputs": [
        {
          "internalType": "address",
          "name": "spender",
          "type": "address"
        },
        {
          "internalType": "uint256",
          "name": "subtractedValue",
          "type": "uint256"
        }
      ],
      "name": "decreaseAllowance",
      "outputs": [
        {
          "internalType": "bool",
          "name": "",
          "type": "bool"
        }
      ],
      "stateMutability": "nonpayable",
      "type": "function"
    },
    {
      "inputs": [
        {
          "internalType": "address",
          "name": "spender",
          "type": "address"
        },
        {
          "internalType": "uint256",
          "name": "addedValue",
          "type": "uint256"
        }
      ],
      "name": "increaseAllowance",
      "outputs": [
        {
          "internalType": "bool",
          "name": "",
          "type": "bool"
        }
      ],
      "stateMutability": "nonpayable",
      "type": "function"
    },
    {
      "inputs": [
        {
          "internalType": "contract IStakingConfig",
          "name": "stakingConfig",
          "type": "address"
        },
        {
          "internalType": "string",
          "name": "name",
          "type": "string"
        },
        {
          "internalType": "string",
          "name": "symbol",
          "type": "string"
        }
      ],
      "name": "initialize",
      "outputs": [],
      "stateMutability": "nonpayable",
      "type": "function"
    },
    {
      "inputs": [],
      "name": "isRebasing",
      "outputs": [
        {
          "internalType": "bool",
          "name": "",
          "type": "bool"
        }
      ],
      "stateMutability": "pure",
      "type": "function"
    },
    {
      "inputs": [
        {
          "internalType": "address",
          "name": "account",
          "type": "address"
        },
        {
          "internalType": "uint256",
          "name": "shares",
          "type": "uint256"
        }
      ],
      "name": "mint",
      "outputs": [],
      "stateMutability": "nonpayable",
      "type": "function"
    },
    {
      "inputs": [],
      "name": "name",
      "outputs": [
        {
          "internalType": "string",
          "name": "",
          "type": "string"
        }
      ],
      "stateMutability": "view",
      "type": "function"
    },
    {
      "inputs": [],
      "name": "owner",
      "outputs": [
        {
          "internalType": "address",
          "name": "",
          "type": "address"
        }
      ],
      "stateMutability": "view",
      "type": "function"
    },
    {
      "inputs": [],
      "name": "pause",
      "outputs": [],
      "stateMutability": "nonpayable",
      "type": "function"
    },
    {
      "inputs": [],
      "name": "paused",
      "outputs": [
        {
          "internalType": "bool",
          "name": "",
          "type": "bool"
        }
      ],
      "stateMutability": "view",
      "type": "function"
    },
    {
      "inputs": [],
      "name": "ratio",
      "outputs": [
        {
          "internalType": "uint256",
          "name": "",
          "type": "uint256"
        }
      ],
      "stateMutability": "view",
      "type": "function"
    },
    {
      "inputs": [],
      "name": "renounceOwnership",
      "outputs": [],
      "stateMutability": "nonpayable",
      "type": "function"
    },
    {
      "inputs": [
        {
          "internalType": "uint256",
          "name": "shares",
          "type": "uint256"
        }
      ],
      "name": "sharesToBonds",
      "outputs": [
        {
          "internalType": "uint256",
          "name": "",
          "type": "uint256"
        }
      ],
      "stateMutability": "view",
      "type": "function"
    },
    {
      "inputs": [],
      "name": "symbol",
      "outputs": [
        {
          "internalType": "string",
          "name": "",
          "type": "string"
        }
      ],
      "stateMutability": "view",
      "type": "function"
    },
    {
      "inputs": [],
      "name": "totalAssets",
      "outputs": [
        {
          "internalType": "uint256",
          "name": "totalManagedEth",
          "type": "uint256"
        }
      ],
      "stateMutability": "view",
      "type": "function"
    },
    {
      "inputs": [],
      "name": "totalSupply",
      "outputs": [
        {
          "internalType": "uint256",
          "name": "",
          "type": "uint256"
        }
      ],
      "stateMutability": "view",
      "type": "function"
    },
    {
      "inputs": [
        {
          "internalType": "address",
          "name": "to",
          "type": "address"
        },
        {
          "internalType": "uint256",
          "name": "amount",
          "type": "uint256"
        }
      ],
      "name": "transfer",
      "outputs": [
        {
          "internalType": "bool",
          "name": "",
          "type": "bool"
        }
      ],
      "stateMutability": "nonpayable",
      "type": "function"
    },
    {
      "inputs": [
        {
          "internalType": "address",
          "name": "from",
          "type": "address"
        },
        {
          "internalType": "address",
          "name": "to",
          "type": "address"
        },
        {
          "internalType": "uint256",
          "name": "amount",
          "type": "uint256"
        }
      ],
      "name": "transferFrom",
      "outputs": [
        {
          "internalType": "bool",
          "name": "",
          "type": "bool"
        }
      ],
      "stateMutability": "nonpayable",
      "type": "function"
    },
    {
      "inputs": [
        {
          "internalType": "address",
          "name": "newOwner",
          "type": "address"
        }
      ],
      "name": "transferOwnership",
      "outputs": [],
      "stateMutability": "nonpayable",
      "type": "function"
    },
    {
      "inputs": [],
      "name": "unpause",
      "outputs": [],
      "stateMutability": "nonpayable",
      "type": "function"
    }
  ],
  "transactionHash": "0xc8171a4b8b5ca064117357a1556681e7f16a1c266e843c17c63c30ce3eff62ac",
  "args": [],
  "numDeployments": 2,
  "solcInputHash": "3858cd576652759db42e93fd9469f520",
  "bytecode": "0x608060405234801561001057600080fd5b5061198a806100206000396000f3fe608060405234801561001057600080fd5b50600436106101a95760003560e01c806370a08231116100f95780639dc29fac11610097578063c6e6f59211610071578063c6e6f5921461034a578063dd62ed3e1461035d578063f2fde38b14610370578063ff1bdd431461038357600080fd5b80639dc29fac14610311578063a457c2d714610324578063a9059cbb1461033757600080fd5b80638456cb59116100d35780638456cb59146102d35780638da5cb5b146102db57806390657147146102f657806395d89b411461030957600080fd5b806370a082311461029a578063715018a6146102c357806371ca337d146102cb57600080fd5b806339509351116101665780635361637311610140578063536163731461025b5780635c975abb1461026e5780635dfba115146102805780636c58d43d1461028757600080fd5b8063395093511461022b5780633f4ba83a1461023e57806340c10f191461024857600080fd5b806301e1d114146101ae57806306fdde03146101c9578063095ea7b3146101de57806318160ddd1461020157806323b872dd14610209578063313ce5671461021c575b600080fd5b6101b6610396565b6040519081526020015b60405180910390f35b6101d16103a9565b6040516101c091906114af565b6101f16101ec366004611512565b61043b565b60405190151581526020016101c0565b6067546101b6565b6101f161021736600461153e565b610455565b604051601281526020016101c0565b6101f1610239366004611512565b61047b565b61024661049d565b005b610246610256366004611512565b6105f0565b6101b661026936600461157f565b6106d0565b609754600160a01b900460ff166101f1565b60006101f1565b6101b661029536600461157f565b6106db565b6101b66102a8366004611598565b6001600160a01b031660009081526065602052604090205490565b6102466106e6565b6101b66106fa565b6102466107d2565b6033546040516001600160a01b0390911681526020016101c0565b610246610304366004611658565b6108df565b6101d1610a18565b61024661031f366004611512565b610a27565b6101f1610332366004611512565b610b03565b6101f1610345366004611512565b610b89565b6101b661035836600461157f565b610b97565b6101b661036b3660046116ce565b610bb6565b61024661037e366004611598565b610be1565b6101b661039136600461157f565b610c5a565b60006103a461039160675490565b905090565b6060606880546103b890611707565b80601f01602080910402602001604051908101604052809291908181526020018280546103e490611707565b80156104315780601f1061040657610100808354040283529160200191610431565b820191906000526020600020905b81548152906001019060200180831161041457829003601f168201915b5050505050905090565b600033610449818585610c7a565b60019150505b92915050565b600033610463858285610d9e565b61046e858585610e12565b60019150505b9392505050565b60003361044981858561048e8383610bb6565b6104989190611741565b610c7a565b609754600160a01b900460ff166104fb5760405162461bcd60e51b815260206004820152601c60248201527f4365727469666963617465546f6b656e3a206e6f74207061757365640000000060448201526064015b60405180910390fd5b609760009054906101000a90046001600160a01b03166001600160a01b031663289b3c0d6040518163ffffffff1660e01b8152600401602060405180830381865afa15801561054e573d6000803e3d6000fd5b505050506040513d601f19601f820116820180604052508101906105729190611762565b6001600160a01b0316336001600160a01b0316146105a35760405163e2d4f15f60e01b815260040160405180910390fd5b6097805460ff60a01b191690557f5db9ee0a495bf2e6ff9c91a7834c1ba4fdd244a5e8aa4e537bd38aeae4b073aa335b6040516001600160a01b03909116815260200160405180910390a1565b609754600160a01b900460ff161561061a5760405162461bcd60e51b81526004016104f29061177f565b609760009054906101000a90046001600160a01b03166001600160a01b0316637745165b6040518163ffffffff1660e01b8152600401602060405180830381865afa15801561066d573d6000803e3d6000fd5b505050506040513d601f19601f820116820180604052508101906106919190611762565b6001600160a01b0316336001600160a01b0316146106c2576040516301beb2d760e51b815260040160405180910390fd5b6106cc8282610e4c565b5050565b600061044f82610b97565b600061044f82610c5a565b6106ee610f0d565b6106f86000610f67565b565b609754604080516362edc53d60e11b815290516000926001600160a01b03169163c5db8a7a9160048083019260209291908290030181865afa158015610744573d6000803e3d6000fd5b505050506040513d601f19601f820116820180604052508101906107689190611762565b60405163754b270760e01b81523060048201526001600160a01b03919091169063754b270790602401602060405180830381865afa1580156107ae573d6000803e3d6000fd5b505050506040513d601f19601f820116820180604052508101906103a491906117b6565b609754600160a01b900460ff16156107fc5760405162461bcd60e51b81526004016104f29061177f565b609760009054906101000a90046001600160a01b03166001600160a01b031663289b3c0d6040518163ffffffff1660e01b8152600401602060405180830381865afa15801561084f573d6000803e3d6000fd5b505050506040513d601f19601f820116820180604052508101906108739190611762565b6001600160a01b0316336001600160a01b0316146108a45760405163e2d4f15f60e01b815260040160405180910390fd5b6097805460ff60a01b1916600160a01b1790557f62e78cea01bee320cd4e420270b5ea74000d11b0c9f74754ebdbfc544b05a2586105d33390565b600054610100900460ff16158080156108ff5750600054600160ff909116105b806109195750303b158015610919575060005460ff166001145b61097c5760405162461bcd60e51b815260206004820152602e60248201527f496e697469616c697a61626c653a20636f6e747261637420697320616c72656160448201526d191e481a5b9a5d1a585b1a5e995960921b60648201526084016104f2565b6000805460ff19166001179055801561099f576000805461ff0019166101001790555b6109a7610fb9565b6109b18383610fe8565b609780546001600160a01b0319166001600160a01b0386161790558015610a12576000805461ff0019169055604051600181527f7f26b83ff96e1f2b6a682f133852f6798a09c465da95921460cefb38474024989060200160405180910390a15b50505050565b6060606980546103b890611707565b609754600160a01b900460ff1615610a515760405162461bcd60e51b81526004016104f29061177f565b609760009054906101000a90046001600160a01b03166001600160a01b0316637745165b6040518163ffffffff1660e01b8152600401602060405180830381865afa158015610aa4573d6000803e3d6000fd5b505050506040513d601f19601f82011682018060405250810190610ac89190611762565b6001600160a01b0316336001600160a01b031614610af9576040516301beb2d760e51b815260040160405180910390fd5b6106cc8282611019565b60003381610b118286610bb6565b905083811015610b715760405162461bcd60e51b815260206004820152602560248201527f45524332303a2064656372656173656420616c6c6f77616e63652062656c6f77604482015264207a65726f60d81b60648201526084016104f2565b610b7e8286868403610c7a565b506001949350505050565b600033610449818585610e12565b600061044f610ba46106fa565b8390670de0b6b3a7640000600061114d565b6001600160a01b03918216600090815260666020908152604080832093909416825291909152205490565b610be9610f0d565b6001600160a01b038116610c4e5760405162461bcd60e51b815260206004820152602660248201527f4f776e61626c653a206e6577206f776e657220697320746865207a65726f206160448201526564647265737360d01b60648201526084016104f2565b610c5781610f67565b50565b600061044f670de0b6b3a7640000610c706106fa565b849190600161114d565b6001600160a01b038316610cdc5760405162461bcd60e51b8152602060048201526024808201527f45524332303a20617070726f76652066726f6d20746865207a65726f206164646044820152637265737360e01b60648201526084016104f2565b6001600160a01b038216610d3d5760405162461bcd60e51b815260206004820152602260248201527f45524332303a20617070726f766520746f20746865207a65726f206164647265604482015261737360f01b60648201526084016104f2565b6001600160a01b0383811660008181526066602090815260408083209487168084529482529182902085905590518481527f8c5be1e5ebec7d5bd14f71427d1e84f3dd0314c0f7b2291e5b200ac8c7c3b925910160405180910390a3505050565b6000610daa8484610bb6565b90506000198114610a125781811015610e055760405162461bcd60e51b815260206004820152601d60248201527f45524332303a20696e73756666696369656e7420616c6c6f77616e636500000060448201526064016104f2565b610a128484848403610c7a565b609754600160a01b900460ff1615610e3c5760405162461bcd60e51b81526004016104f29061177f565b610e478383836111aa565b505050565b6001600160a01b038216610ea25760405162461bcd60e51b815260206004820152601f60248201527f45524332303a206d696e7420746f20746865207a65726f20616464726573730060448201526064016104f2565b8060676000828254610eb49190611741565b90915550506001600160a01b0382166000818152606560209081526040808320805486019055518481527fddf252ad1be2c89b69c2b068fc378daa952ba7f163c4a11628f55a4df523b3ef910160405180910390a35050565b6033546001600160a01b031633146106f85760405162461bcd60e51b815260206004820181905260248201527f4f776e61626c653a2063616c6c6572206973206e6f7420746865206f776e657260448201526064016104f2565b603380546001600160a01b038381166001600160a01b0319831681179093556040519116919082907f8be0079c531659141344cd1fd0a4f28419497f9722a3daafe3b4186f6b6457e090600090a35050565b600054610100900460ff16610fe05760405162461bcd60e51b81526004016104f2906117cf565b6106f8611355565b600054610100900460ff1661100f5760405162461bcd60e51b81526004016104f2906117cf565b6106cc8282611385565b6001600160a01b0382166110795760405162461bcd60e51b815260206004820152602160248201527f45524332303a206275726e2066726f6d20746865207a65726f206164647265736044820152607360f81b60648201526084016104f2565b6001600160a01b038216600090815260656020526040902054818110156110ed5760405162461bcd60e51b815260206004820152602260248201527f45524332303a206275726e20616d6f756e7420657863656564732062616c616e604482015261636560f01b60648201526084016104f2565b6001600160a01b03831660008181526065602090815260408083208686039055606780548790039055518581529192917fddf252ad1be2c89b69c2b068fc378daa952ba7f163c4a11628f55a4df523b3ef910160405180910390a3505050565b60008061115b8686866113c5565b905060018360028111156111715761117161181a565b14801561118e57506000848061118957611189611830565b868809115b156111a15761119e600182611741565b90505b95945050505050565b6001600160a01b03831661120e5760405162461bcd60e51b815260206004820152602560248201527f45524332303a207472616e736665722066726f6d20746865207a65726f206164604482015264647265737360d81b60648201526084016104f2565b6001600160a01b0382166112705760405162461bcd60e51b815260206004820152602360248201527f45524332303a207472616e7366657220746f20746865207a65726f206164647260448201526265737360e81b60648201526084016104f2565b6001600160a01b038316600090815260656020526040902054818110156112e85760405162461bcd60e51b815260206004820152602660248201527f45524332303a207472616e7366657220616d6f756e7420657863656564732062604482015265616c616e636560d01b60648201526084016104f2565b6001600160a01b0380851660008181526065602052604080822086860390559286168082529083902080548601905591517fddf252ad1be2c89b69c2b068fc378daa952ba7f163c4a11628f55a4df523b3ef906113489086815260200190565b60405180910390a3610a12565b600054610100900460ff1661137c5760405162461bcd60e51b81526004016104f2906117cf565b6106f833610f67565b600054610100900460ff166113ac5760405162461bcd60e51b81526004016104f2906117cf565b60686113b88382611894565b506069610e478282611894565b60008080600019858709858702925082811083820303915050806000036113ff578382816113f5576113f5611830565b0492505050610474565b8084116114465760405162461bcd60e51b81526020600482015260156024820152744d6174683a206d756c446976206f766572666c6f7760581b60448201526064016104f2565b60008486880960026001871981018816978890046003810283188082028403028082028403028082028403028082028403028082028403029081029092039091026000889003889004909101858311909403939093029303949094049190911702949350505050565b600060208083528351808285015260005b818110156114dc578581018301518582016040015282016114c0565b506000604082860101526040601f19601f8301168501019250505092915050565b6001600160a01b0381168114610c5757600080fd5b6000806040838503121561152557600080fd5b8235611530816114fd565b946020939093013593505050565b60008060006060848603121561155357600080fd5b833561155e816114fd565b9250602084013561156e816114fd565b929592945050506040919091013590565b60006020828403121561159157600080fd5b5035919050565b6000602082840312156115aa57600080fd5b8135610474816114fd565b634e487b7160e01b600052604160045260246000fd5b600082601f8301126115dc57600080fd5b813567ffffffffffffffff808211156115f7576115f76115b5565b604051601f8301601f19908116603f0116810190828211818310171561161f5761161f6115b5565b8160405283815286602085880101111561163857600080fd5b836020870160208301376000602085830101528094505050505092915050565b60008060006060848603121561166d57600080fd5b8335611678816114fd565b9250602084013567ffffffffffffffff8082111561169557600080fd5b6116a1878388016115cb565b935060408601359150808211156116b757600080fd5b506116c4868287016115cb565b9150509250925092565b600080604083850312156116e157600080fd5b82356116ec816114fd565b915060208301356116fc816114fd565b809150509250929050565b600181811c9082168061171b57607f821691505b60208210810361173b57634e487b7160e01b600052602260045260246000fd5b50919050565b8082018082111561044f57634e487b7160e01b600052601160045260246000fd5b60006020828403121561177457600080fd5b8151610474816114fd565b60208082526018908201527f4365727469666963617465546f6b656e3a207061757365640000000000000000604082015260600190565b6000602082840312156117c857600080fd5b5051919050565b6020808252602b908201527f496e697469616c697a61626c653a20636f6e7472616374206973206e6f74206960408201526a6e697469616c697a696e6760a81b606082015260800190565b634e487b7160e01b600052602160045260246000fd5b634e487b7160e01b600052601260045260246000fd5b601f821115610e4757600081815260208120601f850160051c8101602086101561186d5750805b601f850160051c820191505b8181101561188c57828155600101611879565b505050505050565b815167ffffffffffffffff8111156118ae576118ae6115b5565b6118c2816118bc8454611707565b84611846565b602080601f8311600181146118f757600084156118df5750858301515b600019600386901b1c1916600185901b17855561188c565b600085815260208120601f198616915b8281101561192657888601518255948401946001909101908401611907565b50858210156119445787850151600019600388901b60f8161c191681555b5050505050600190811b0190555056fea26469706673582212201b2f1e9a2d9458b7d877e44a02fb74787385c076928032fb995333cf6c02caa964736f6c63430008140033",
  "devdoc": {
    "events": {
      "Approval(address,address,uint256)": {
        "details": "Emitted when the allowance of a `spender` for an `owner` is set by a call to {approve}. `value` is the new allowance."
      },
      "Initialized(uint8)": {
        "details": "Triggered when the contract has been initialized or reinitialized."
      },
      "Transfer(address,address,uint256)": {
        "details": "Emitted when `value` tokens are moved from one account (`from`) to another (`to`). Note that `value` may be zero."
      }
    },
    "kind": "dev",
    "methods": {
      "allowance(address,address)": {
        "details": "See {IERC20-allowance}."
      },
      "approve(address,uint256)": {
        "details": "See {IERC20-approve}. NOTE: If `amount` is the maximum `uint256`, the allowance is not updated on `transferFrom`. This is semantically equivalent to an infinite approval. Requirements: - `spender` cannot be the zero address."
      },
      "balanceOf(address)": {
        "details": "See {IERC20-balanceOf}."
      },
      "bondsToShares(uint256)": {
        "details": "Deprecated."
      },
      "decimals()": {
        "details": "Returns the number of decimals used to get its user representation. For example, if `decimals` equals `2`, a balance of `505` tokens should be displayed to a user as `5.05` (`505 / 10 ** 2`). Tokens usually opt for a value of 18, imitating the relationship between Ether and Wei. This is the default value returned by this function, unless it's overridden. NOTE: This information is only used for _display_ purposes: it in no way affects any of the arithmetic of the contract, including {IERC20-balanceOf} and {IERC20-transfer}."
      },
      "decreaseAllowance(address,uint256)": {
        "details": "Atomically decreases the allowance granted to `spender` by the caller. This is an alternative to {approve} that can be used as a mitigation for problems described in {IERC20-approve}. Emits an {Approval} event indicating the updated allowance. Requirements: - `spender` cannot be the zero address. - `spender` must have allowance for the caller of at least `subtractedValue`."
      },
      "increaseAllowance(address,uint256)": {
        "details": "Atomically increases the allowance granted to `spender` by the caller. This is an alternative to {approve} that can be used as a mitigation for problems described in {IERC20-approve}. Emits an {Approval} event indicating the updated allowance. Requirements: - `spender` cannot be the zero address."
      },
      "name()": {
        "details": "Returns the name of the token."
      },
      "owner()": {
        "details": "Returns the address of the current owner."
      },
      "renounceOwnership()": {
        "details": "Leaves the contract without owner. It will not be possible to call `onlyOwner` functions. Can only be called by the current owner. NOTE: Renouncing ownership will leave the contract without an owner, thereby disabling any functionality that is only available to the owner."
      },
      "sharesToBonds(uint256)": {
        "details": "Deprecated."
      },
      "symbol()": {
        "details": "Returns the symbol of the token, usually a shorter version of the name."
      },
      "totalAssets()": {
        "details": "Returns the total amount of the ETH that is managed by Genesis."
      },
      "totalSupply()": {
        "details": "See {IERC20-totalSupply}."
      },
      "transfer(address,uint256)": {
        "details": "See {IERC20-transfer}. Requirements: - `to` cannot be the zero address. - the caller must have a balance of at least `amount`."
      },
      "transferFrom(address,address,uint256)": {
        "details": "See {IERC20-transferFrom}. Emits an {Approval} event indicating the updated allowance. This is not required by the EIP. See the note at the beginning of {ERC20}. NOTE: Does not update the allowance if the current allowance is the maximum `uint256`. Requirements: - `from` and `to` cannot be the zero address. - `from` must have a balance of at least `amount`. - the caller must have allowance for ``from``'s tokens of at least `amount`."
      },
      "transferOwnership(address)": {
        "details": "Transfers ownership of the contract to a new account (`newOwner`). Can only be called by the current owner."
      }
    },
    "version": 1
  },
  "userdoc": {
    "kind": "user",
    "methods": {
      "burn(address,uint256)": {
        "notice": "Burns exactly `shares` from `account`. - emit the Transfer event to zero address. - revert if all of shares cannot be burned (due to the owner not having enough shares)."
      },
      "convertToAmount(uint256)": {
        "notice": "Returns the `amount` of ETH that the cToken would exchange for the amount of `shares` provided, in an ideal scenario where all the conditions are met."
      },
      "convertToShares(uint256)": {
        "notice": "Returns the amount of `shares` that the cToken would exchange for the `amount` of ETH provided, in an ideal scenario where all the conditions are met."
      },
      "mint(address,uint256)": {
        "notice": "Mints exactly `shares` to `account`. - emit the Transfer event from zero address."
      }
    },
    "version": 1
  },
  "storageLayout": {
    "storage": [
      {
        "astId": 139,
        "contract": "contracts/CertificateToken.sol:CertificateToken",
        "label": "_initialized",
        "offset": 0,
        "slot": "0",
        "type": "t_uint8"
      },
      {
        "astId": 142,
        "contract": "contracts/CertificateToken.sol:CertificateToken",
        "label": "_initializing",
        "offset": 1,
        "slot": "0",
        "type": "t_bool"
      },
      {
        "astId": 1482,
        "contract": "contracts/CertificateToken.sol:CertificateToken",
        "label": "__gap",
        "offset": 0,
        "slot": "1",
        "type": "t_array(t_uint256)50_storage"
      },
      {
        "astId": 11,
        "contract": "contracts/CertificateToken.sol:CertificateToken",
        "label": "_owner",
        "offset": 0,
        "slot": "51",
        "type": "t_address"
      },
      {
        "astId": 131,
        "contract": "contracts/CertificateToken.sol:CertificateToken",
        "label": "__gap",
        "offset": 0,
        "slot": "52",
        "type": "t_array(t_uint256)49_storage"
      },
      {
        "astId": 406,
        "contract": "contracts/CertificateToken.sol:CertificateToken",
        "label": "_balances",
        "offset": 0,
        "slot": "101",
        "type": "t_mapping(t_address,t_uint256)"
      },
      {
        "astId": 412,
        "contract": "contracts/CertificateToken.sol:CertificateToken",
        "label": "_allowances",
        "offset": 0,
        "slot": "102",
        "type": "t_mapping(t_address,t_mapping(t_address,t_uint256))"
      },
      {
        "astId": 414,
        "contract": "contracts/CertificateToken.sol:CertificateToken",
        "label": "_totalSupply",
        "offset": 0,
        "slot": "103",
        "type": "t_uint256"
      },
      {
        "astId": 416,
        "contract": "contracts/CertificateToken.sol:CertificateToken",
        "label": "_name",
        "offset": 0,
        "slot": "104",
        "type": "t_string_storage"
      },
      {
        "astId": 418,
        "contract": "contracts/CertificateToken.sol:CertificateToken",
        "label": "_symbol",
        "offset": 0,
        "slot": "105",
        "type": "t_string_storage"
      },
      {
        "astId": 998,
        "contract": "contracts/CertificateToken.sol:CertificateToken",
        "label": "__gap",
        "offset": 0,
        "slot": "106",
        "type": "t_array(t_uint256)45_storage"
      },
      {
        "astId": 4075,
        "contract": "contracts/CertificateToken.sol:CertificateToken",
        "label": "_stakingConfig",
        "offset": 0,
        "slot": "151",
        "type": "t_contract(IStakingConfig)8663"
      },
      {
        "astId": 4077,
        "contract": "contracts/CertificateToken.sol:CertificateToken",
        "label": "_paused",
        "offset": 20,
        "slot": "151",
        "type": "t_bool"
      },
      {
        "astId": 4083,
        "contract": "contracts/CertificateToken.sol:CertificateToken",
        "label": "__reserved",
        "offset": 0,
        "slot": "152",
        "type": "t_array(t_uint256)96_storage"
      }
    ],
    "types": {
      "t_address": {
        "encoding": "inplace",
        "label": "address",
        "numberOfBytes": "20"
      },
      "t_array(t_uint256)45_storage": {
        "base": "t_uint256",
        "encoding": "inplace",
        "label": "uint256[45]",
        "numberOfBytes": "1440"
      },
      "t_array(t_uint256)49_storage": {
        "base": "t_uint256",
        "encoding": "inplace",
        "label": "uint256[49]",
        "numberOfBytes": "1568"
      },
      "t_array(t_uint256)50_storage": {
        "base": "t_uint256",
        "encoding": "inplace",
        "label": "uint256[50]",
        "numberOfBytes": "1600"
      },
      "t_array(t_uint256)96_storage": {
        "base": "t_uint256",
        "encoding": "inplace",
        "label": "uint256[96]",
        "numberOfBytes": "3072"
      },
      "t_bool": {
        "encoding": "inplace",
        "label": "bool",
        "numberOfBytes": "1"
      },
      "t_contract(IStakingConfig)8663": {
        "encoding": "inplace",
        "label": "contract IStakingConfig",
        "numberOfBytes": "20"
      },
      "t_mapping(t_address,t_mapping(t_address,t_uint256))": {
        "encoding": "mapping",
        "key": "t_address",
        "label": "mapping(address => mapping(address => uint256))",
        "numberOfBytes": "32",
        "value": "t_mapping(t_address,t_uint256)"
      },
      "t_mapping(t_address,t_uint256)": {
        "encoding": "mapping",
        "key": "t_address",
        "label": "mapping(address => uint256)",
        "numberOfBytes": "32",
        "value": "t_uint256"
      },
      "t_string_storage": {
        "encoding": "bytes",
        "label": "string",
        "numberOfBytes": "32"
      },
      "t_uint256": {
        "encoding": "inplace",
        "label": "uint256",
        "numberOfBytes": "32"
      },
      "t_uint8": {
        "encoding": "inplace",
        "label": "uint8",
        "numberOfBytes": "1"
      }
    }
  }
}