{
  "address": "0xb29D46d7f0032fF5f89839BaFEbB0b03C20e9549",
  "abi": [
    {
      "inputs": [],
      "stateMutability": "nonpayable",
      "type": "constructor"
    },
    {
      "inputs": [],
      "name": "ZeroAddress",
      "type": "error"
    },
    {
      "anonymous": false,
      "inputs": [
        {
          "indexed": false,
          "internalType": "uint8",
          "name": "version",
          "type": "uint8"
        }
      ],
      "name": "Initialized",
      "type": "event"
    },
    {
      "anonymous": false,
      "inputs": [
        {
          "indexed": true,
          "internalType": "address",
          "name": "previousOwner",
          "type": "address"
        },
        {
          "indexed": true,
          "internalType": "address",
          "name": "newOwner",
          "type": "address"
        }
      ],
      "name": "OwnershipTransferred",
      "type": "event"
    },
    {
      "inputs": [],
      "name": "getEigenPodManager",
      "outputs": [
        {
          "internalType": "contract IEigenPodManager",
          "name": "",
          "type": "address"
        }
      ],
      "stateMutability": "view",
      "type": "function"
    },
    {
      "inputs": [
        {
          "internalType": "address",
          "name": "owner",
          "type": "address"
        },
        {
          "internalType": "contract IEigenPodManager",
          "name": "podManager",
          "type": "address"
        },
        {
          "internalType": "contract IDelegationManager",
          "name": "delegationManager",
          "type": "address"
        }
      ],
      "name": "initialize",
      "outputs": [],
      "stateMutability": "nonpayable",
      "type": "function"
    },
    {
      "inputs": [],
      "name": "owner",
      "outputs": [
        {
          "internalType": "address",
          "name": "",
          "type": "address"
        }
      ],
      "stateMutability": "view",
      "type": "function"
    },
    {
      "inputs": [],
      "name": "renounceOwnership",
      "outputs": [],
      "stateMutability": "nonpayable",
      "type": "function"
    },
    {
      "inputs": [
        {
          "internalType": "bytes4",
          "name": "sig",
          "type": "bytes4"
        }
      ],
      "name": "selectorToTarget",
      "outputs": [
        {
          "internalType": "address",
          "name": "",
          "type": "address"
        }
      ],
      "stateMutability": "view",
      "type": "function"
    },
    {
      "inputs": [
        {
          "internalType": "address",
          "name": "newOwner",
          "type": "address"
        }
      ],
      "name": "transferOwnership",
      "outputs": [],
      "stateMutability": "nonpayable",
      "type": "function"
    }
  ],
  "transactionHash": "0xb09613a51c2d1b10cfdb245ea37b03118add95c96db89fc02d30df055f14c049",
  "args": [],
  "numDeployments": 1,
  "solcInputHash": "3858cd576652759db42e93fd9469f520",
  "bytecode": "0x608060405234801561001057600080fd5b5061001961001e565b6100dd565b600054610100900460ff161561008a5760405162461bcd60e51b815260206004820152602760248201527f496e697469616c697a61626c653a20636f6e747261637420697320696e697469604482015266616c697a696e6760c81b606482015260840160405180910390fd5b60005460ff908116146100db576000805460ff191660ff9081179091556040519081527f7f26b83ff96e1f2b6a682f133852f6798a09c465da95921460cefb38474024989060200160405180910390a15b565b610823806100ec6000396000f3fe608060405234801561001057600080fd5b50600436106100625760003560e01c80630de0c5cd14610067578063715018a6146100965780638da5cb5b146100a0578063c0c53b8b146100b1578063c664d38b146100c4578063f2fde38b146100d5575b600080fd5b61007a61007536600461066c565b6100e8565b6040516001600160a01b03909116815260200160405180910390f35b61009e6101de565b005b6033546001600160a01b031661007a565b61009e6100bf3660046106ab565b6101f2565b6066546001600160a01b031661007a565b61009e6100e33660046106f6565b61031e565b6001600160e01b0319811660009081526065602052604081205460ff16600181600281111561011957610119610713565b036101315750506066546001600160a01b0316919050565b600281600281111561014557610145610713565b0361015d5750506067546001600160a01b0316919050565b6066546001600160a01b031663a38406a3336040516001600160e01b031960e084901b1681526001600160a01b039091166004820152602401602060405180830381865afa1580156101b3573d6000803e3d6000fd5b505050506040513d601f19601f820116820180604052508101906101d79190610729565b9392505050565b6101e6610397565b6101f060006103f1565b565b600054610100900460ff16158080156102125750600054600160ff909116105b8061022c5750303b15801561022c575060005460ff166001145b6102945760405162461bcd60e51b815260206004820152602e60248201527f496e697469616c697a61626c653a20636f6e747261637420697320616c72656160448201526d191e481a5b9a5d1a585b1a5e995960921b60648201526084015b60405180910390fd5b6000805460ff1916600117905580156102b7576000805461ff0019166101001790555b6102bf610443565b6102c98383610472565b6102d28461031e565b8015610318576000805461ff0019169055604051600181527f7f26b83ff96e1f2b6a682f133852f6798a09c465da95921460cefb38474024989060200160405180910390a15b50505050565b610326610397565b6001600160a01b03811661038b5760405162461bcd60e51b815260206004820152602660248201527f4f776e61626c653a206e6577206f776e657220697320746865207a65726f206160448201526564647265737360d01b606482015260840161028b565b610394816103f1565b50565b6033546001600160a01b031633146101f05760405162461bcd60e51b815260206004820181905260248201527f4f776e61626c653a2063616c6c6572206973206e6f7420746865206f776e6572604482015260640161028b565b603380546001600160a01b038381166001600160a01b0319831681179093556040519116919082907f8be0079c531659141344cd1fd0a4f28419497f9722a3daafe3b4186f6b6457e090600090a35050565b600054610100900460ff1661046a5760405162461bcd60e51b815260040161028b90610746565b6101f06105c9565b600054610100900460ff166104995760405162461bcd60e51b815260040161028b90610746565b6104a2826105f9565b6104ab816105f9565b606680546001600160a01b038085166001600160a01b031992831617909255606780549284169290911691909117905560408051808201909152600b81526a637265617465506f64282960a81b602082015261050990600190610620565b61054960016040518060400160405280601a81526020017f7374616b652862797465732c62797465732c6279746573333229000000000000815250610620565b61057f600260405180604001604052806013815260200172756e64656c656761746528616464726573732960681b815250610620565b6105a2600260405180606001604052806031815260200161079260319139610620565b6105c560026040518060600160405280602b81526020016107c3602b9139610620565b5050565b600054610100900460ff166105f05760405162461bcd60e51b815260040161028b90610746565b6101f0336103f1565b6001600160a01b0381166103945760405163d92e233d60e01b815260040160405180910390fd5b80516020808301919091206001600160e01b03198116600090815260659092526040909120805484919060ff1916600183600281111561066257610662610713565b0217905550505050565b60006020828403121561067e57600080fd5b81356001600160e01b0319811681146101d757600080fd5b6001600160a01b038116811461039457600080fd5b6000806000606084860312156106c057600080fd5b83356106cb81610696565b925060208401356106db81610696565b915060408401356106eb81610696565b809150509250925092565b60006020828403121561070857600080fd5b81356101d781610696565b634e487b7160e01b600052602160045260246000fd5b60006020828403121561073b57600080fd5b81516101d781610696565b6020808252602b908201527f496e697469616c697a61626c653a20636f6e7472616374206973206e6f74206960408201526a6e697469616c697a696e6760a81b60608201526080019056fe71756575655769746864726177616c732828616464726573735b5d2c75696e743235365b5d2c61646472657373295b5d2964656c6567617465546f28616464726573732c2862797465732c75696e74323536292c6279746573333229a26469706673582212205d5bb906c83056240ffa2fc692a2594f2ee6818a8525b5b66ab0b7814581e22164736f6c63430008140033",
  "devdoc": {
    "author": "GenesisLRT",
    "events": {
      "Initialized(uint8)": {
        "details": "Triggered when the contract has been initialized or reinitialized."
      }
    },
    "kind": "dev",
    "methods": {
      "constructor": {
        "custom:oz-upgrades-unsafe-allow": "constructor",
        "details": "https://docs.openzeppelin.com/upgrades-plugins/1.x/writing-upgradeable#initializing_the_implementation_contract"
      },
      "owner()": {
        "details": "Returns the address of the current owner."
      },
      "renounceOwnership()": {
        "details": "Leaves the contract without owner. It will not be possible to call `onlyOwner` functions. Can only be called by the current owner. NOTE: Renouncing ownership will leave the contract without an owner, thereby disabling any functionality that is only available to the owner."
      },
      "transferOwnership(address)": {
        "details": "Transfers ownership of the contract to a new account (`newOwner`). Can only be called by the current owner."
      }
    },
    "title": "Facets of Restaker",
    "version": 1
  },
  "userdoc": {
    "kind": "user",
    "methods": {},
    "notice": "Stores the targets of method signatures.",
    "version": 1
  },
  "storageLayout": {
    "storage": [
      {
        "astId": 139,
        "contract": "contracts/restaker/RestakerFacets.sol:RestakerFacets",
        "label": "_initialized",
        "offset": 0,
        "slot": "0",
        "type": "t_uint8"
      },
      {
        "astId": 142,
        "contract": "contracts/restaker/RestakerFacets.sol:RestakerFacets",
        "label": "_initializing",
        "offset": 1,
        "slot": "0",
        "type": "t_bool"
      },
      {
        "astId": 1482,
        "contract": "contracts/restaker/RestakerFacets.sol:RestakerFacets",
        "label": "__gap",
        "offset": 0,
        "slot": "1",
        "type": "t_array(t_uint256)50_storage"
      },
      {
        "astId": 11,
        "contract": "contracts/restaker/RestakerFacets.sol:RestakerFacets",
        "label": "_owner",
        "offset": 0,
        "slot": "51",
        "type": "t_address"
      },
      {
        "astId": 131,
        "contract": "contracts/restaker/RestakerFacets.sol:RestakerFacets",
        "label": "__gap",
        "offset": 0,
        "slot": "52",
        "type": "t_array(t_uint256)49_storage"
      },
      {
        "astId": 10607,
        "contract": "contracts/restaker/RestakerFacets.sol:RestakerFacets",
        "label": "_selectorToTarget",
        "offset": 0,
        "slot": "101",
        "type": "t_mapping(t_bytes4,t_enum(FuncTarget)10310)"
      },
      {
        "astId": 10610,
        "contract": "contracts/restaker/RestakerFacets.sol:RestakerFacets",
        "label": "_podManager",
        "offset": 0,
        "slot": "102",
        "type": "t_contract(IEigenPodManager)7994"
      },
      {
        "astId": 10613,
        "contract": "contracts/restaker/RestakerFacets.sol:RestakerFacets",
        "label": "_delegationManager",
        "offset": 0,
        "slot": "103",
        "type": "t_contract(IDelegationManager)7524"
      }
    ],
    "types": {
      "t_address": {
        "encoding": "inplace",
        "label": "address",
        "numberOfBytes": "20"
      },
      "t_array(t_uint256)49_storage": {
        "base": "t_uint256",
        "encoding": "inplace",
        "label": "uint256[49]",
        "numberOfBytes": "1568"
      },
      "t_array(t_uint256)50_storage": {
        "base": "t_uint256",
        "encoding": "inplace",
        "label": "uint256[50]",
        "numberOfBytes": "1600"
      },
      "t_bool": {
        "encoding": "inplace",
        "label": "bool",
        "numberOfBytes": "1"
      },
      "t_bytes4": {
        "encoding": "inplace",
        "label": "bytes4",
        "numberOfBytes": "4"
      },
      "t_contract(IDelegationManager)7524": {
        "encoding": "inplace",
        "label": "contract IDelegationManager",
        "numberOfBytes": "20"
      },
      "t_contract(IEigenPodManager)7994": {
        "encoding": "inplace",
        "label": "contract IEigenPodManager",
        "numberOfBytes": "20"
      },
      "t_enum(FuncTarget)10310": {
        "encoding": "inplace",
        "label": "enum IRestakerFacets.FuncTarget",
        "numberOfBytes": "1"
      },
      "t_mapping(t_bytes4,t_enum(FuncTarget)10310)": {
        "encoding": "mapping",
        "key": "t_bytes4",
        "label": "mapping(bytes4 => enum IRestakerFacets.FuncTarget)",
        "numberOfBytes": "32",
        "value": "t_enum(FuncTarget)10310"
      },
      "t_uint256": {
        "encoding": "inplace",
        "label": "uint256",
        "numberOfBytes": "32"
      },
      "t_uint8": {
        "encoding": "inplace",
        "label": "uint8",
        "numberOfBytes": "1"
      }
    }
  }
}