{
  "address": "0x473E9b2e9cF5d7f01C54dB24A00E88E450b9DF97",
  "abi": [
    {
      "inputs": [],
      "name": "OnlyGovernanceAllowed",
      "type": "error"
    },
    {
      "inputs": [],
      "name": "OnlyOperatorAllowed",
      "type": "error"
    },
    {
      "anonymous": false,
      "inputs": [
        {
          "indexed": false,
          "internalType": "contract ICToken",
          "name": "prevValue",
          "type": "address"
        },
        {
          "indexed": false,
          "internalType": "contract ICToken",
          "name": "newValue",
          "type": "address"
        }
      ],
      "name": "CTokenChanged",
      "type": "event"
    },
    {
      "anonymous": false,
      "inputs": [
        {
          "indexed": false,
          "internalType": "address",
          "name": "prevValue",
          "type": "address"
        },
        {
          "indexed": false,
          "internalType": "address",
          "name": "newValue",
          "type": "address"
        }
      ],
      "name": "EigenManagerAddressChanged",
      "type": "event"
    },
    {
      "anonymous": false,
      "inputs": [
        {
          "indexed": false,
          "internalType": "contract IEigenPodManager",
          "name": "prevValue",
          "type": "address"
        },
        {
          "indexed": false,
          "internalType": "contract IEigenPodManager",
          "name": "newValue",
          "type": "address"
        }
      ],
      "name": "EigenManagerChanged",
      "type": "event"
    },
    {
      "anonymous": false,
      "inputs": [
        {
          "indexed": false,
          "internalType": "address",
          "name": "prevValue",
          "type": "address"
        },
        {
          "indexed": false,
          "internalType": "address",
          "name": "newValue",
          "type": "address"
        }
      ],
      "name": "GovernanceChanged",
      "type": "event"
    },
    {
      "anonymous": false,
      "inputs": [
        {
          "indexed": false,
          "internalType": "uint8",
          "name": "version",
          "type": "uint8"
        }
      ],
      "name": "Initialized",
      "type": "event"
    },
    {
      "anonymous": false,
      "inputs": [
        {
          "indexed": false,
          "internalType": "uint256",
          "name": "prevValue",
          "type": "uint256"
        },
        {
          "indexed": false,
          "internalType": "uint256",
          "name": "newValue",
          "type": "uint256"
        }
      ],
      "name": "MinStakeChanged",
      "type": "event"
    },
    {
      "anonymous": false,
      "inputs": [
        {
          "indexed": false,
          "internalType": "uint256",
          "name": "prevValue",
          "type": "uint256"
        },
        {
          "indexed": false,
          "internalType": "uint256",
          "name": "newValue",
          "type": "uint256"
        }
      ],
      "name": "MinUnstakeChanged",
      "type": "event"
    },
    {
      "anonymous": false,
      "inputs": [
        {
          "indexed": false,
          "internalType": "address",
          "name": "prevValue",
          "type": "address"
        },
        {
          "indexed": false,
          "internalType": "address",
          "name": "newValue",
          "type": "address"
        }
      ],
      "name": "OperatorChanged",
      "type": "event"
    },
    {
      "anonymous": false,
      "inputs": [
        {
          "indexed": false,
          "internalType": "contract IRatioFeed",
          "name": "prevValue",
          "type": "address"
        },
        {
          "indexed": false,
          "internalType": "contract IRatioFeed",
          "name": "newValue",
          "type": "address"
        }
      ],
      "name": "RatioFeedChanged",
      "type": "event"
    },
    {
      "anonymous": false,
      "inputs": [
        {
          "indexed": false,
          "internalType": "contract IRestakerDeployer",
          "name": "prevValue",
          "type": "address"
        },
        {
          "indexed": false,
          "internalType": "contract IRestakerDeployer",
          "name": "newValue",
          "type": "address"
        }
      ],
      "name": "RestakerDeployerChanged",
      "type": "event"
    },
    {
      "anonymous": false,
      "inputs": [
        {
          "indexed": false,
          "internalType": "contract IRestakingPool",
          "name": "prevValue",
          "type": "address"
        },
        {
          "indexed": false,
          "internalType": "contract IRestakingPool",
          "name": "newValue",
          "type": "address"
        }
      ],
      "name": "RestakingPoolChanged",
      "type": "event"
    },
    {
      "anonymous": false,
      "inputs": [
        {
          "indexed": false,
          "internalType": "address",
          "name": "prevValue",
          "type": "address"
        },
        {
          "indexed": false,
          "internalType": "address",
          "name": "newValue",
          "type": "address"
        }
      ],
      "name": "TreasuryChanged",
      "type": "event"
    },
    {
      "inputs": [],
      "name": "getCToken",
      "outputs": [
        {
          "internalType": "contract ICToken",
          "name": "token",
          "type": "address"
        }
      ],
      "stateMutability": "view",
      "type": "function"
    },
    {
      "inputs": [],
      "name": "getCertTokenAddress",
      "outputs": [
        {
          "internalType": "address",
          "name": "",
          "type": "address"
        }
      ],
      "stateMutability": "view",
      "type": "function"
    },
    {
      "inputs": [],
      "name": "getEigenPodManager",
      "outputs": [
        {
          "internalType": "contract IEigenPodManager",
          "name": "manager",
          "type": "address"
        }
      ],
      "stateMutability": "view",
      "type": "function"
    },
    {
      "inputs": [],
      "name": "getEigenPodManagerAddress",
      "outputs": [
        {
          "internalType": "address",
          "name": "",
          "type": "address"
        }
      ],
      "stateMutability": "view",
      "type": "function"
    },
    {
      "inputs": [],
      "name": "getGovernance",
      "outputs": [
        {
          "internalType": "address",
          "name": "",
          "type": "address"
        }
      ],
      "stateMutability": "view",
      "type": "function"
    },
    {
      "inputs": [],
      "name": "getMinStake",
      "outputs": [
        {
          "internalType": "uint256",
          "name": "",
          "type": "uint256"
        }
      ],
      "stateMutability": "view",
      "type": "function"
    },
    {
      "inputs": [],
      "name": "getMinUnstake",
      "outputs": [
        {
          "internalType": "uint256",
          "name": "",
          "type": "uint256"
        }
      ],
      "stateMutability": "view",
      "type": "function"
    },
    {
      "inputs": [],
      "name": "getOperator",
      "outputs": [
        {
          "internalType": "address",
          "name": "",
          "type": "address"
        }
      ],
      "stateMutability": "view",
      "type": "function"
    },
    {
      "inputs": [],
      "name": "getRatioFeed",
      "outputs": [
        {
          "internalType": "contract IRatioFeed",
          "name": "feed",
          "type": "address"
        }
      ],
      "stateMutability": "view",
      "type": "function"
    },
    {
      "inputs": [],
      "name": "getRatioFeedAddress",
      "outputs": [
        {
          "internalType": "address",
          "name": "",
          "type": "address"
        }
      ],
      "stateMutability": "view",
      "type": "function"
    },
    {
      "inputs": [],
      "name": "getRestakerDeployer",
      "outputs": [
        {
          "internalType": "contract IRestakerDeployer",
          "name": "deployer",
          "type": "address"
        }
      ],
      "stateMutability": "view",
      "type": "function"
    },
    {
      "inputs": [],
      "name": "getRestakingPool",
      "outputs": [
        {
          "internalType": "contract IRestakingPool",
          "name": "pool",
          "type": "address"
        }
      ],
      "stateMutability": "view",
      "type": "function"
    },
    {
      "inputs": [],
      "name": "getStakingPoolAddress",
      "outputs": [
        {
          "internalType": "address",
          "name": "",
          "type": "address"
        }
      ],
      "stateMutability": "view",
      "type": "function"
    },
    {
      "inputs": [],
      "name": "getTreasury",
      "outputs": [
        {
          "internalType": "address",
          "name": "",
          "type": "address"
        }
      ],
      "stateMutability": "view",
      "type": "function"
    },
    {
      "inputs": [
        {
          "internalType": "uint256",
          "name": "minimumUnstake",
          "type": "uint256"
        },
        {
          "internalType": "uint256",
          "name": "minimumStake",
          "type": "uint256"
        },
        {
          "internalType": "address",
          "name": "operatorAddress",
          "type": "address"
        },
        {
          "internalType": "address",
          "name": "governanceAddress",
          "type": "address"
        },
        {
          "internalType": "address",
          "name": "treasuryAddress",
          "type": "address"
        },
        {
          "internalType": "address",
          "name": "stakingPoolAddress",
          "type": "address"
        },
        {
          "internalType": "address",
          "name": "certTokenAddress",
          "type": "address"
        },
        {
          "internalType": "address",
          "name": "ratioFeed",
          "type": "address"
        },
        {
          "internalType": "address",
          "name": "eigenPodManager",
          "type": "address"
        }
      ],
      "name": "initialize",
      "outputs": [],
      "stateMutability": "nonpayable",
      "type": "function"
    },
    {
      "inputs": [
        {
          "internalType": "address",
          "name": "newValue",
          "type": "address"
        }
      ],
      "name": "setCToken",
      "outputs": [],
      "stateMutability": "nonpayable",
      "type": "function"
    },
    {
      "inputs": [
        {
          "internalType": "address",
          "name": "newValue",
          "type": "address"
        }
      ],
      "name": "setGovernanceAddress",
      "outputs": [],
      "stateMutability": "nonpayable",
      "type": "function"
    },
    {
      "inputs": [
        {
          "internalType": "uint256",
          "name": "newValue",
          "type": "uint256"
        }
      ],
      "name": "setMinStake",
      "outputs": [],
      "stateMutability": "nonpayable",
      "type": "function"
    },
    {
      "inputs": [
        {
          "internalType": "uint256",
          "name": "newValue",
          "type": "uint256"
        }
      ],
      "name": "setMinUnstake",
      "outputs": [],
      "stateMutability": "nonpayable",
      "type": "function"
    },
    {
      "inputs": [
        {
          "internalType": "address",
          "name": "newValue",
          "type": "address"
        }
      ],
      "name": "setOperatorAddress",
      "outputs": [],
      "stateMutability": "nonpayable",
      "type": "function"
    },
    {
      "inputs": [
        {
          "internalType": "address",
          "name": "newValue",
          "type": "address"
        }
      ],
      "name": "setRatioFeed",
      "outputs": [],
      "stateMutability": "nonpayable",
      "type": "function"
    },
    {
      "inputs": [
        {
          "internalType": "contract IRestakerDeployer",
          "name": "newValue",
          "type": "address"
        }
      ],
      "name": "setRestakerDeployer",
      "outputs": [],
      "stateMutability": "nonpayable",
      "type": "function"
    },
    {
      "inputs": [
        {
          "internalType": "address",
          "name": "newValue",
          "type": "address"
        }
      ],
      "name": "setRestakingPool",
      "outputs": [],
      "stateMutability": "nonpayable",
      "type": "function"
    },
    {
      "inputs": [
        {
          "internalType": "address",
          "name": "newValue",
          "type": "address"
        }
      ],
      "name": "setTreasury",
      "outputs": [],
      "stateMutability": "nonpayable",
      "type": "function"
    }
  ],
  "transactionHash": "0x52b54c603559b4b573da789ab72a944c5c8cf274a11fb205b7bb17c9149a2777",
  "args": [],
  "numDeployments": 2,
  "solcInputHash": "3858cd576652759db42e93fd9469f520",
  "bytecode": "0x608060405234801561001057600080fd5b506110e9806100206000396000f3fe608060405234801561001057600080fd5b50600436106101585760003560e01c8063b6217be7116100c3578063e7f43c681161007c578063e7f43c6814610299578063e855f74a146102aa578063e87ff344146102bd578063ec6c350c146102ce578063f0e35a9a146102d6578063f0f44260146102e957600080fd5b8063b6217be714610241578063bd55a84e14610252578063c5db8a7a14610263578063c664d38b1461026b578063cfc1625414610273578063dd2b442f1461028657600080fd5b806356a3b5fa1161011557806356a3b5fa146101e75780637745165b146101ef578063845b9150146101f75780638c80fd901461020a5780638ce4ff161461021d5780638ed872e61461023057600080fd5b8063034c44541461015d578063289b3c0d146101785780632f1d5a601461019d5780633b19e84a146101b25780633f69e0f7146101c35780634cb71222146101d4575b600080fd5b6101656102fc565b6040519081526020015b60405180910390f35b6002546001600160a01b03165b6040516001600160a01b03909116815260200161016f565b6101b06101ab366004610e4a565b610323565b005b6003546001600160a01b0316610185565b6008546001600160a01b0316610185565b6101b06101e2366004610e4a565b6103db565b61016561047e565b6101856104a1565b6101b0610205366004610e6e565b6104b5565b6101b0610218366004610e6e565b6104eb565b6101b061022b366004610e87565b61051e565b6006546001600160a01b0316610185565b6005546001600160a01b0316610185565b6007546001600160a01b0316610185565b61018561089b565b6101856108af565b6101b0610281366004610e4a565b6108c3565b6101b0610294366004610e4a565b610966565b6001546001600160a01b0316610185565b6101b06102b8366004610e4a565b610a1f565b6004546001600160a01b0316610185565b610185610ac1565b6101b06102e4366004610e4a565b610ad5565b6101b06102f7366004610e4a565b610b78565b6000805461031e9062010000900467ffffffffffffffff16633b9aca00610f47565b905090565b6002546001600160a01b031633146103565760405162461bcd60e51b815260040161034d90610f64565b60405180910390fd5b6001600160a01b03811661037c5760405162461bcd60e51b815260040161034d90610f9b565b600180546001600160a01b038381166001600160a01b03198316179092556040519116907fd58299b712891143e76310d5e664c4203c940a67db37cf856bdaa3c5c76a802c906103cf9083908590610fde565b60405180910390a15050565b6002546001600160a01b031633146104055760405162461bcd60e51b815260040161034d90610f64565b6001600160a01b03811661042b5760405162461bcd60e51b815260040161034d90610f9b565b600780546001600160a01b038381166001600160a01b03198316179092556040519116907f604ae4b80bb1d3cb1b6f8fd99500a3203337ec3cdd83cb343ee91f8960f634df906103cf9083908590610fde565b6000805461031e90600160501b900467ffffffffffffffff16633b9aca00610f47565b600061031e6005546001600160a01b031690565b6002546001600160a01b031633146104df5760405162461bcd60e51b815260040161034d90610f64565b6104e881610c1b565b50565b6002546001600160a01b031633146105155760405162461bcd60e51b815260040161034d90610f64565b6104e881610d27565b600054610100900460ff161580801561053e5750600054600160ff909116105b806105585750303b158015610558575060005460ff166001145b6105bb5760405162461bcd60e51b815260206004820152602e60248201527f496e697469616c697a61626c653a20636f6e747261637420697320616c72656160448201526d191e481a5b9a5d1a585b1a5e995960921b606482015260840161034d565b6000805460ff1916600117905580156105de576000805461ff0019166101001790555b6105e789610d27565b6105f08a610c1b565b600180546001600160a01b0319166001600160a01b038a161790556040517fd58299b712891143e76310d5e664c4203c940a67db37cf856bdaa3c5c76a802c9061063e906000908b90610fde565b60405180910390a1600780546001600160a01b0319166001600160a01b0386161790556040517f604ae4b80bb1d3cb1b6f8fd99500a3203337ec3cdd83cb343ee91f8960f634df90610694906000908790610fde565b60405180910390a1600280546001600160a01b0319166001600160a01b0389161790556040517f3aaaebeb4821d6a7e5c77ece53cff0afcc56c82add2c978dbbb7f73e84cbcfd2906106ea906000908a90610fde565b60405180910390a1600380546001600160a01b0319166001600160a01b0388161790556040517f8c3aa5f43a388513435861bf27dfad7829cd248696fed367c62d441f6295449690610740906000908990610fde565b60405180910390a1600580546001600160a01b0319166001600160a01b0387161790556040517eae48a6cddea33b0b408d1f3e36bef3e47379bdc069c2f6662786c5bec83e1090610795906000908890610fde565b60405180910390a1600680546001600160a01b0319166001600160a01b0384161790556040517f68d0770ff8eaea943d0b2f2020510cc23bbedaefd94add71cda3b4a4054b11c3906107eb906000908590610fde565b60405180910390a1600480546001600160a01b0319166001600160a01b0385161790556040517fdb29c30d5fa0d3da86f28fcd1e16611171e924d291c7ef82f03cffb0bfa0565290610841906000908690610fde565b60405180910390a1801561088f576000805461ff0019169055604051600181527f7f26b83ff96e1f2b6a682f133852f6798a09c465da95921460cefb38474024989060200160405180910390a15b50505050505050505050565b600061031e6004546001600160a01b031690565b600061031e6006546001600160a01b031690565b6002546001600160a01b031633146108ed5760405162461bcd60e51b815260040161034d90610f64565b6001600160a01b0381166109135760405162461bcd60e51b815260040161034d90610f9b565b600280546001600160a01b038381166001600160a01b03198316179092556040519116907f3aaaebeb4821d6a7e5c77ece53cff0afcc56c82add2c978dbbb7f73e84cbcfd2906103cf9083908590610fde565b6002546001600160a01b031633146109905760405162461bcd60e51b815260040161034d90610f64565b6001600160a01b0381166109b65760405162461bcd60e51b815260040161034d90610f9b565b6008546040517f37910025f99bc7fdc07bdf77dee21c246391d5e3f98e8c6e3b0306dfaf8f24fa916109f5916001600160a01b03909116908490610fde565b60405180910390a1600880546001600160a01b0319166001600160a01b0392909216919091179055565b6002546001600160a01b03163314610a495760405162461bcd60e51b815260040161034d90610f64565b6001600160a01b038116610a6f5760405162461bcd60e51b815260040161034d90610f9b565b600580546001600160a01b038381166001600160a01b03198316179092556040519116907eae48a6cddea33b0b408d1f3e36bef3e47379bdc069c2f6662786c5bec83e10906103cf9083908590610fde565b600061031e6007546001600160a01b031690565b6002546001600160a01b03163314610aff5760405162461bcd60e51b815260040161034d90610f64565b6001600160a01b038116610b255760405162461bcd60e51b815260040161034d90610f9b565b600480546001600160a01b038381166001600160a01b03198316179092556040519116907fdb29c30d5fa0d3da86f28fcd1e16611171e924d291c7ef82f03cffb0bfa05652906103cf9083908590610fde565b6002546001600160a01b03163314610ba25760405162461bcd60e51b815260040161034d90610f64565b6001600160a01b038116610bc85760405162461bcd60e51b815260040161034d90610f9b565b600380546001600160a01b038381166001600160a01b03198316179092556040519116907f8c3aa5f43a388513435861bf27dfad7829cd248696fed367c62d441f62954496906103cf9083908590610fde565b610c29633b9aca008261100e565b15610c465760405162461bcd60e51b815260040161034d90611022565b6000610c506102fc565b9050610c60633b9aca0083611073565b6000805469ffffffffffffffff000019166201000067ffffffffffffffff938416810291909117918290558492610ca0929190910416633b9aca00611087565b67ffffffffffffffff1614610cf15760405162461bcd60e51b81526020600482015260176024820152765374616b696e67436f6e6669673a206f766572666c6f7760481b604482015260640161034d565b60408051828152602081018490527f984016d328adef81f3cc09f8ea9e3420f85d390635be94215c432e83837aa0a291016103cf565b610d35633b9aca008261100e565b15610d525760405162461bcd60e51b815260040161034d90611022565b6000610d5c61047e565b9050610d6c633b9aca0083611073565b6000805467ffffffffffffffff60501b1916600160501b67ffffffffffffffff938416810291909117918290558492610dae929190910416633b9aca00611087565b67ffffffffffffffff1614610dff5760405162461bcd60e51b81526020600482015260176024820152765374616b696e67436f6e6669673a206f766572666c6f7760481b604482015260640161034d565b60408051828152602081018490527fca11c8a4c461b60c9f485404c272650c2aaae260b2067d72e9924abb6855659391016103cf565b6001600160a01b03811681146104e857600080fd5b600060208284031215610e5c57600080fd5b8135610e6781610e35565b9392505050565b600060208284031215610e8057600080fd5b5035919050565b60008060008060008060008060006101208a8c031215610ea657600080fd5b8935985060208a0135975060408a0135610ebf81610e35565b965060608a0135610ecf81610e35565b955060808a0135610edf81610e35565b945060a08a0135610eef81610e35565b935060c08a0135610eff81610e35565b925060e08a0135610f0f81610e35565b91506101008a0135610f2081610e35565b809150509295985092959850929598565b634e487b7160e01b600052601160045260246000fd5b8082028115828204841417610f5e57610f5e610f31565b92915050565b6020808252601e908201527f5374616b696e67436f6e6669673a206f6e6c7920676f7665726e616e63650000604082015260600190565b60208082526023908201527f5374616b696e67436f6e6669673a20616464726573732063616e2774206265206040820152621b9a5b60ea1b606082015260800190565b6001600160a01b0392831681529116602082015260400190565b634e487b7160e01b600052601260045260246000fd5b60008261101d5761101d610ff8565b500690565b60208082526031908201527f5374616b696e67436f6e6669673a2076616c75652073686f756c64206265206d604082015270756c7469706c696564206f66206777656960781b606082015260800190565b60008261108257611082610ff8565b500490565b67ffffffffffffffff8181168382160280821691908281146110ab576110ab610f31565b50509291505056fea2646970667358221220f17fcc5db62c9578e9fe7581e39a9eac4a4fc336279e18ef0d930a1153e9a8fa64736f6c63430008140033",
  "devdoc": {
    "events": {
      "Initialized(uint8)": {
        "details": "Triggered when the contract has been initialized or reinitialized."
      }
    },
    "kind": "dev",
    "methods": {
      "getCertTokenAddress()": {
        "details": "Deprecated."
      },
      "getEigenPodManagerAddress()": {
        "details": "Deprecated."
      }
    },
    "stateVariables": {
      "_minimumUnstake": {
        "details": "compact size, should be multiplied by 1 gwei"
      }
    },
    "version": 1
  },
  "userdoc": {
    "kind": "user",
    "methods": {},
    "version": 1
  },
  "storageLayout": {
    "storage": [
      {
        "astId": 139,
        "contract": "contracts/StakingConfig.sol:StakingConfig",
        "label": "_initialized",
        "offset": 0,
        "slot": "0",
        "type": "t_uint8"
      },
      {
        "astId": 142,
        "contract": "contracts/StakingConfig.sol:StakingConfig",
        "label": "_initializing",
        "offset": 1,
        "slot": "0",
        "type": "t_bool"
      },
      {
        "astId": 5148,
        "contract": "contracts/StakingConfig.sol:StakingConfig",
        "label": "_minimumUnstake",
        "offset": 2,
        "slot": "0",
        "type": "t_uint64"
      },
      {
        "astId": 5150,
        "contract": "contracts/StakingConfig.sol:StakingConfig",
        "label": "_minimumStake",
        "offset": 10,
        "slot": "0",
        "type": "t_uint64"
      },
      {
        "astId": 5152,
        "contract": "contracts/StakingConfig.sol:StakingConfig",
        "label": "_operatorAddress",
        "offset": 0,
        "slot": "1",
        "type": "t_address"
      },
      {
        "astId": 5154,
        "contract": "contracts/StakingConfig.sol:StakingConfig",
        "label": "_governanceAddress",
        "offset": 0,
        "slot": "2",
        "type": "t_address"
      },
      {
        "astId": 5156,
        "contract": "contracts/StakingConfig.sol:StakingConfig",
        "label": "_treasuryAddress",
        "offset": 0,
        "slot": "3",
        "type": "t_address"
      },
      {
        "astId": 5158,
        "contract": "contracts/StakingConfig.sol:StakingConfig",
        "label": "_ratioFeedAddress",
        "offset": 0,
        "slot": "4",
        "type": "t_address"
      },
      {
        "astId": 5160,
        "contract": "contracts/StakingConfig.sol:StakingConfig",
        "label": "_stakingPoolAddress",
        "offset": 0,
        "slot": "5",
        "type": "t_address"
      },
      {
        "astId": 5162,
        "contract": "contracts/StakingConfig.sol:StakingConfig",
        "label": "_eigenPodManagerAddress",
        "offset": 0,
        "slot": "6",
        "type": "t_address"
      },
      {
        "astId": 5164,
        "contract": "contracts/StakingConfig.sol:StakingConfig",
        "label": "_certTokenAddress",
        "offset": 0,
        "slot": "7",
        "type": "t_address"
      },
      {
        "astId": 5167,
        "contract": "contracts/StakingConfig.sol:StakingConfig",
        "label": "_restakerDeployer",
        "offset": 0,
        "slot": "8",
        "type": "t_contract(IRestakerDeployer)10301"
      }
    ],
    "types": {
      "t_address": {
        "encoding": "inplace",
        "label": "address",
        "numberOfBytes": "20"
      },
      "t_bool": {
        "encoding": "inplace",
        "label": "bool",
        "numberOfBytes": "1"
      },
      "t_contract(IRestakerDeployer)10301": {
        "encoding": "inplace",
        "label": "contract IRestakerDeployer",
        "numberOfBytes": "20"
      },
      "t_uint64": {
        "encoding": "inplace",
        "label": "uint64",
        "numberOfBytes": "8"
      },
      "t_uint8": {
        "encoding": "inplace",
        "label": "uint8",
        "numberOfBytes": "1"
      }
    }
  }
}