{
  "address": "0x97eb1e642C1c88A5c1Ca3A0B7F5E1d4d71907ad5",
  "abi": [
    {
      "inputs": [],
      "name": "OnlyGovernanceAllowed",
      "type": "error"
    },
    {
      "inputs": [],
      "name": "OnlyOperatorAllowed",
      "type": "error"
    },
    {
      "inputs": [
        {
          "internalType": "uint64",
          "name": "max",
          "type": "uint64"
        }
      ],
      "name": "PoolDistributeGasLimitNotInRange",
      "type": "error"
    },
    {
      "inputs": [],
      "name": "PoolDistributeGasLimitNotSet",
      "type": "error"
    },
    {
      "inputs": [],
      "name": "PoolFailedInnerCall",
      "type": "error"
    },
    {
      "inputs": [],
      "name": "PoolInsufficientBalance",
      "type": "error"
    },
    {
      "inputs": [],
      "name": "PoolRestakerExists",
      "type": "error"
    },
    {
      "inputs": [],
      "name": "PoolRestakerNotExists",
      "type": "error"
    },
    {
      "inputs": [],
      "name": "PoolStakeAmLessThanMin",
      "type": "error"
    },
    {
      "inputs": [],
      "name": "PoolUnstakeAmLessThanMin",
      "type": "error"
    },
    {
      "inputs": [],
      "name": "PoolWrongInputLength",
      "type": "error"
    },
    {
      "inputs": [],
      "name": "PoolZeroAddress",
      "type": "error"
    },
    {
      "inputs": [],
      "name": "PoolZeroAmount",
      "type": "error"
    },
    {
      "anonymous": false,
      "inputs": [
        {
          "indexed": true,
          "internalType": "address",
          "name": "claimer",
          "type": "address"
        },
        {
          "indexed": false,
          "internalType": "uint256",
          "name": "value",
          "type": "uint256"
        }
      ],
      "name": "ClaimExpected",
      "type": "event"
    },
    {
      "anonymous": false,
      "inputs": [
        {
          "indexed": true,
          "internalType": "string",
          "name": "provider",
          "type": "string"
        },
        {
          "indexed": false,
          "internalType": "bytes[]",
          "name": "pubkeys",
          "type": "bytes[]"
        }
      ],
      "name": "Deposited",
      "type": "event"
    },
    {
      "anonymous": false,
      "inputs": [
        {
          "indexed": false,
          "internalType": "uint32",
          "name": "prevValue",
          "type": "uint32"
        },
        {
          "indexed": false,
          "internalType": "uint32",
          "name": "newValue",
          "type": "uint32"
        }
      ],
      "name": "DistributeGasLimitChanged",
      "type": "event"
    },
    {
      "anonymous": false,
      "inputs": [
        {
          "indexed": true,
          "internalType": "address",
          "name": "treasury",
          "type": "address"
        },
        {
          "indexed": false,
          "internalType": "uint256",
          "name": "amount",
          "type": "uint256"
        }
      ],
      "name": "FeeClaimed",
      "type": "event"
    },
    {
      "anonymous": false,
      "inputs": [
        {
          "indexed": false,
          "internalType": "uint8",
          "name": "version",
          "type": "uint8"
        }
      ],
      "name": "Initialized",
      "type": "event"
    },
    {
      "anonymous": false,
      "inputs": [
        {
          "indexed": true,
          "internalType": "address",
          "name": "ownerAddress",
          "type": "address"
        },
        {
          "indexed": true,
          "internalType": "address",
          "name": "receiverAddress",
          "type": "address"
        },
        {
          "indexed": false,
          "internalType": "uint256",
          "name": "amount",
          "type": "uint256"
        },
        {
          "indexed": false,
          "internalType": "uint256",
          "name": "shares",
          "type": "uint256"
        }
      ],
      "name": "PendingUnstake",
      "type": "event"
    },
    {
      "anonymous": false,
      "inputs": [
        {
          "indexed": true,
          "internalType": "address",
          "name": "sender",
          "type": "address"
        },
        {
          "indexed": false,
          "internalType": "uint256",
          "name": "amount",
          "type": "uint256"
        }
      ],
      "name": "Received",
      "type": "event"
    },
    {
      "anonymous": false,
      "inputs": [
        {
          "indexed": false,
          "internalType": "address[]",
          "name": "claimers",
          "type": "address[]"
        },
        {
          "indexed": false,
          "internalType": "uint256[]",
          "name": "amounts",
          "type": "uint256[]"
        }
      ],
      "name": "RewardsDistributed",
      "type": "event"
    },
    {
      "anonymous": false,
      "inputs": [
        {
          "indexed": true,
          "internalType": "address",
          "name": "staker",
          "type": "address"
        },
        {
          "indexed": false,
          "internalType": "uint256",
          "name": "amount",
          "type": "uint256"
        },
        {
          "indexed": false,
          "internalType": "uint256",
          "name": "shares",
          "type": "uint256"
        }
      ],
      "name": "Staked",
      "type": "event"
    },
    {
      "anonymous": false,
      "inputs": [
        {
          "indexed": true,
          "internalType": "address",
          "name": "claimer",
          "type": "address"
        },
        {
          "indexed": true,
          "internalType": "address",
          "name": "caller",
          "type": "address"
        },
        {
          "indexed": false,
          "internalType": "uint256",
          "name": "value",
          "type": "uint256"
        }
      ],
      "name": "UnstakeClaimed",
      "type": "event"
    },
    {
      "anonymous": false,
      "inputs": [
        {
          "indexed": true,
          "internalType": "address",
          "name": "from",
          "type": "address"
        },
        {
          "indexed": true,
          "internalType": "address",
          "name": "to",
          "type": "address"
        },
        {
          "indexed": false,
          "internalType": "uint256",
          "name": "amount",
          "type": "uint256"
        },
        {
          "indexed": false,
          "internalType": "uint256",
          "name": "shares",
          "type": "uint256"
        }
      ],
      "name": "Unstaked",
      "type": "event"
    },
    {
      "anonymous": false,
      "inputs": [
        {
          "components": [
            {
              "internalType": "address",
              "name": "recipient",
              "type": "address"
            },
            {
              "internalType": "uint256",
              "name": "amount",
              "type": "uint256"
            }
          ],
          "indexed": false,
          "internalType": "struct IRestakingPool.Unstake[]",
          "name": "unstakes",
          "type": "tuple[]"
        }
      ],
      "name": "UnstakesDistributed",
      "type": "event"
    },
    {
      "inputs": [],
      "name": "CALL_GAS_LIMIT",
      "outputs": [
        {
          "internalType": "uint256",
          "name": "",
          "type": "uint256"
        }
      ],
      "stateMutability": "view",
      "type": "function"
    },
    {
      "inputs": [
        {
          "internalType": "string",
          "name": "provider",
          "type": "string"
        }
      ],
      "name": "activateRestaking",
      "outputs": [],
      "stateMutability": "nonpayable",
      "type": "function"
    },
    {
      "inputs": [
        {
          "internalType": "string",
          "name": "provider",
          "type": "string"
        }
      ],
      "name": "addRestaker",
      "outputs": [],
      "stateMutability": "nonpayable",
      "type": "function"
    },
    {
      "inputs": [
        {
          "internalType": "string",
          "name": "provider",
          "type": "string"
        },
        {
          "internalType": "bytes[]",
          "name": "pubkeys",
          "type": "bytes[]"
        },
        {
          "internalType": "bytes[]",
          "name": "signatures",
          "type": "bytes[]"
        },
        {
          "internalType": "bytes32[]",
          "name": "deposit_data_roots",
          "type": "bytes32[]"
        }
      ],
      "name": "batchDeposit",
      "outputs": [],
      "stateMutability": "nonpayable",
      "type": "function"
    },
    {
      "inputs": [
        {
          "internalType": "address",
          "name": "claimer",
          "type": "address"
        }
      ],
      "name": "claimUnstake",
      "outputs": [],
      "stateMutability": "nonpayable",
      "type": "function"
    },
    {
      "inputs": [
        {
          "internalType": "address",
          "name": "claimer",
          "type": "address"
        }
      ],
      "name": "claimableOf",
      "outputs": [
        {
          "internalType": "uint256",
          "name": "",
          "type": "uint256"
        }
      ],
      "stateMutability": "view",
      "type": "function"
    },
    {
      "inputs": [
        {
          "internalType": "uint256",
          "name": "fee",
          "type": "uint256"
        }
      ],
      "name": "distributeUnstakes",
      "outputs": [],
      "stateMutability": "nonpayable",
      "type": "function"
    },
    {
      "inputs": [],
      "name": "getCert",
      "outputs": [
        {
          "internalType": "address",
          "name": "",
          "type": "address"
        }
      ],
      "stateMutability": "view",
      "type": "function"
    },
    {
      "inputs": [],
      "name": "getEigenPodManager",
      "outputs": [
        {
          "internalType": "address",
          "name": "",
          "type": "address"
        }
      ],
      "stateMutability": "view",
      "type": "function"
    },
    {
      "inputs": [],
      "name": "getFreeBalance",
      "outputs": [
        {
          "internalType": "uint256",
          "name": "",
          "type": "uint256"
        }
      ],
      "stateMutability": "view",
      "type": "function"
    },
    {
      "inputs": [],
      "name": "getMinStake",
      "outputs": [
        {
          "internalType": "uint256",
          "name": "amount",
          "type": "uint256"
        }
      ],
      "stateMutability": "view",
      "type": "function"
    },
    {
      "inputs": [],
      "name": "getMinUnstake",
      "outputs": [
        {
          "internalType": "uint256",
          "name": "shares",
          "type": "uint256"
        }
      ],
      "stateMutability": "view",
      "type": "function"
    },
    {
      "inputs": [],
      "name": "getPending",
      "outputs": [
        {
          "internalType": "uint256",
          "name": "",
          "type": "uint256"
        }
      ],
      "stateMutability": "view",
      "type": "function"
    },
    {
      "inputs": [
        {
          "internalType": "address",
          "name": "claimer",
          "type": "address"
        }
      ],
      "name": "getPendingRequestsOf",
      "outputs": [
        {
          "internalType": "uint256[]",
          "name": "",
          "type": "uint256[]"
        }
      ],
      "stateMutability": "view",
      "type": "function"
    },
    {
      "inputs": [
        {
          "internalType": "address",
          "name": "claimer",
          "type": "address"
        }
      ],
      "name": "getPendingUnstakesOf",
      "outputs": [
        {
          "internalType": "uint256",
          "name": "",
          "type": "uint256"
        }
      ],
      "stateMutability": "view",
      "type": "function"
    },
    {
      "inputs": [],
      "name": "getTotalClaimable",
      "outputs": [
        {
          "internalType": "uint256",
          "name": "",
          "type": "uint256"
        }
      ],
      "stateMutability": "view",
      "type": "function"
    },
    {
      "inputs": [],
      "name": "getTotalPendingUnstakes",
      "outputs": [
        {
          "internalType": "uint256",
          "name": "",
          "type": "uint256"
        }
      ],
      "stateMutability": "view",
      "type": "function"
    },
    {
      "inputs": [
        {
          "internalType": "address",
          "name": "claimer",
          "type": "address"
        }
      ],
      "name": "hasClaimable",
      "outputs": [
        {
          "internalType": "bool",
          "name": "",
          "type": "bool"
        }
      ],
      "stateMutability": "view",
      "type": "function"
    },
    {
      "inputs": [
        {
          "internalType": "contract IStakingConfig",
          "name": "stakingConfig",
          "type": "address"
        },
        {
          "internalType": "uint256",
          "name": "distributeGasLimit",
          "type": "uint256"
        }
      ],
      "name": "initialize",
      "outputs": [],
      "stateMutability": "nonpayable",
      "type": "function"
    },
    {
      "inputs": [
        {
          "internalType": "string",
          "name": "provider",
          "type": "string"
        },
        {
          "internalType": "contract IERC20[]",
          "name": "tokenList",
          "type": "address[]"
        },
        {
          "internalType": "uint256[]",
          "name": "amountsToWithdraw",
          "type": "uint256[]"
        }
      ],
      "name": "recoverTokens",
      "outputs": [],
      "stateMutability": "nonpayable",
      "type": "function"
    },
    {
      "inputs": [
        {
          "internalType": "uint256",
          "name": "newValue",
          "type": "uint256"
        }
      ],
      "name": "setDistributeGasLimit",
      "outputs": [],
      "stateMutability": "nonpayable",
      "type": "function"
    },
    {
      "inputs": [],
      "name": "stake",
      "outputs": [],
      "stateMutability": "payable",
      "type": "function"
    },
    {
      "inputs": [],
      "name": "stakeCerts",
      "outputs": [],
      "stateMutability": "payable",
      "type": "function"
    },
    {
      "inputs": [
        {
          "internalType": "address",
          "name": "to",
          "type": "address"
        },
        {
          "internalType": "uint256",
          "name": "shares",
          "type": "uint256"
        }
      ],
      "name": "unstake",
      "outputs": [],
      "stateMutability": "nonpayable",
      "type": "function"
    },
    {
      "inputs": [
        {
          "internalType": "address",
          "name": "receiverAddress",
          "type": "address"
        },
        {
          "internalType": "uint256",
          "name": "shares",
          "type": "uint256"
        }
      ],
      "name": "unstakeCerts",
      "outputs": [],
      "stateMutability": "nonpayable",
      "type": "function"
    },
    {
      "inputs": [
        {
          "internalType": "string",
          "name": "provider",
          "type": "string"
        },
        {
          "internalType": "uint64",
          "name": "oracleTimestamp",
          "type": "uint64"
        },
        {
          "components": [
            {
              "internalType": "bytes32",
              "name": "beaconStateRoot",
              "type": "bytes32"
            },
            {
              "internalType": "bytes",
              "name": "proof",
              "type": "bytes"
            }
          ],
          "internalType": "struct BeaconChainProofs.StateRootProof",
          "name": "stateRootProof",
          "type": "tuple"
        },
        {
          "internalType": "uint40[]",
          "name": "validatorIndices",
          "type": "uint40[]"
        },
        {
          "internalType": "bytes[]",
          "name": "validatorFieldsProofs",
          "type": "bytes[]"
        },
        {
          "internalType": "bytes32[][]",
          "name": "validatorFields",
          "type": "bytes32[][]"
        }
      ],
      "name": "verifyWithdrawalCredentials",
      "outputs": [],
      "stateMutability": "nonpayable",
      "type": "function"
    },
    {
      "inputs": [
        {
          "internalType": "string",
          "name": "provider",
          "type": "string"
        }
      ],
      "name": "withdrawBeforeRestaking",
      "outputs": [],
      "stateMutability": "nonpayable",
      "type": "function"
    },
    {
      "inputs": [
        {
          "internalType": "string",
          "name": "provider",
          "type": "string"
        },
        {
          "internalType": "uint256",
          "name": "amountToWithdraw",
          "type": "uint256"
        }
      ],
      "name": "withdrawNonBeaconChainETHBalanceWei",
      "outputs": [],
      "stateMutability": "nonpayable",
      "type": "function"
    }
  ],
  "transactionHash": "0xe3ad9fda2611a0569c3a09e5ea393b92b5f0f06cfee066004cf9171d418c101a",
  "args": [],
  "numDeployments": 2,
  "solcInputHash": "9716adb367cb1e6059ae600d885251c8",
  "bytecode": "0x608060405234801561001057600080fd5b50612c4e806100206000396000f3fe6080604052600436106101b75760003560e01c806370131f4d116100ec578063c664d38b1161008a578063e93c4f1511610064578063e93c4f15146104c7578063eea4684d146104dc578063f017e474146104fc578063fb8fa2901461051c57600080fd5b8063c664d38b14610472578063cd6dc68714610487578063d11531da146104a757600080fd5b80638e59fbf6116100c65780638e59fbf614610414578063ac76d4501461042a578063b3870ef714610432578063c2a672e01461045257600080fd5b806370131f4d146103765780637cf3d51e146103965780638903ab9d146103de57600080fd5b80633a4b66f11161015957806348abd1961161013357806348abd1961461030c57806356a3b5fa1461032c5780635f4aa38d146103415780636180c6091461036157600080fd5b80633a4b66f1146102ae578063409cb613146102b657806346faa33c146102d657600080fd5b8063042fc3a611610195578063042fc3a61461023757806311ae9ed214610257578063126d5df61461026c578063183cdf241461028157600080fd5b806301ff923c146101bc578063034c4454146101f25780630359cc2214610215575b600080fd5b3480156101c857600080fd5b506101dc6101d7366004612172565b61053c565b6040516101e991906121d1565b60405180910390f35b3480156101fe57600080fd5b50610207610659565b6040519081526020016101e9565b34801561022157600080fd5b50610235610230366004612299565b6106cb565b005b34801561024357600080fd5b506102356102523660046122d5565b610832565b34801561026357600080fd5b50610207610925565b34801561027857600080fd5b50603654610207565b34801561028d57600080fd5b50610296610956565b6040516001600160a01b0390911681526020016101e9565b6102356109c4565b3480156102c257600080fd5b506102356102d13660046122ee565b6109ce565b3480156102e257600080fd5b506102076102f1366004612172565b6001600160a01b031660009081526038602052604090205490565b34801561031857600080fd5b5061023561032736600461231a565b610c99565b34801561033857600080fd5b50610207610d0c565b34801561034d57600080fd5b5061023561035c3660046123a9565b610d56565b34801561036d57600080fd5b50603a54610207565b34801561038257600080fd5b50610235610391366004612299565b611001565b3480156103a257600080fd5b506103ce6103b1366004612172565b6001600160a01b03166000908152603b6020526040902054151590565b60405190151581526020016101e9565b3480156103ea57600080fd5b506102076103f9366004612172565b6001600160a01b03166000908152603b602052604090205490565b34801561042057600080fd5b5061020761271081565b6102356110f0565b34801561043e57600080fd5b5061023561044d3660046124f5565b6112fc565b34801561045e57600080fd5b5061023561046d3660046122ee565b6113e7565b34801561047e57600080fd5b506102966113f5565b34801561049357600080fd5b506102356104a23660046122ee565b61143f565b3480156104b357600080fd5b506102356104c2366004612172565b611634565b3480156104d357600080fd5b5061020761176b565b3480156104e857600080fd5b506102356104f7366004612608565b611775565b34801561050857600080fd5b506102356105173660046122d5565b6118a2565b34801561052857600080fd5b50610235610537366004612299565b611c1c565b603554603754606091600091829161055391612713565b6001600160401b0381111561056a5761056a6121e4565b604051908082528060200260200182016040528015610593578160200160208202803683370190505b506035549091505b60375481101561063557846001600160a01b0316603782815481106105c2576105c261272c565b6000918252602090912001546001600160a01b03160361062357603981815481106105ef576105ef61272c565b906000526020600020015482848151811061060c5761060c61272c565b602090810291909101015261062083612742565b92505b8061062d81612742565b91505061059b565b5060008282516106459190612713565b90508015610651578282525b509392505050565b6033546040805162d3111560e21b815290516000926001600160a01b03169163034c44549160048083019260209291908290030181865afa1580156106a2573d6000803e3d6000fd5b505050506040513d601f19601f820116820180604052508101906106c6919061275b565b905090565b603360009054906101000a90046001600160a01b03166001600160a01b031663e7f43c686040518163ffffffff1660e01b8152600401602060405180830381865afa15801561071e573d6000803e3d6000fd5b505050506040513d601f19601f820116820180604052508101906107429190612774565b6001600160a01b0316336001600160a01b03161461077b5760405162461bcd60e51b815260040161077290612791565b60405180910390fd5b600061078682611e12565b9050806001600160a01b0316630cd4649e6040518163ffffffff1660e01b8152600401600060405180830381600087803b1580156107c357600080fd5b505af11580156107d7573d6000803e3d6000fd5b50505050806001600160a01b031663ef8cdf7c6040518163ffffffff1660e01b8152600401600060405180830381600087803b15801561081657600080fd5b505af115801561082a573d6000803e3d6000fd5b505050505050565b603360009054906101000a90046001600160a01b03166001600160a01b031663289b3c0d6040518163ffffffff1660e01b8152600401602060405180830381865afa158015610885573d6000803e3d6000fd5b505050506040513d601f19601f820116820180604052508101906108a99190612774565b6001600160a01b0316336001600160a01b0316146108d95760405162461bcd60e51b8152600401610772906127d4565b60348054908290556040805163ffffffff8084168252841660208201527f55c1474264b8038534b3e34b09a3a99d1f3436634d4e34fa13cea4c33c9a832e910160405180910390a15050565b60004781610932603a5490565b9050818111156109455760009250505090565b61094f8183612713565b9250505090565b60335460408051635eaad42760e11b815290516000926001600160a01b03169163bd55a84e9160048083019260209291908290030181865afa1580156109a0573d6000803e3d6000fd5b505050506040513d601f19601f820116820180604052508101906106c69190612774565b6109cc6110f0565b565b60335460408051633b1b0d4360e21b8152905133926000926001600160a01b039091169163ec6c350c916004808201926020929091908290030181865afa158015610a1d573d6000803e3d6000fd5b505050506040513d601f19601f82011682018060405250810190610a419190612774565b604051600162e422bd60e01b03198152600481018590529091506000906001600160a01b0383169063ff1bdd4390602401602060405180830381865afa158015610a8f573d6000803e3d6000fd5b505050506040513d601f19601f82011682018060405250810190610ab3919061275b565b9050603360009054906101000a90046001600160a01b03166001600160a01b031663034c44546040518163ffffffff1660e01b8152600401602060405180830381865afa158015610b08573d6000803e3d6000fd5b505050506040513d601f19601f82011682018060405250810190610b2c919061275b565b811015610b4b5760405162461bcd60e51b815260040161077290612818565b6040516370a0823160e01b81526001600160a01b0384811660048301528591908416906370a0823190602401602060405180830381865afa158015610b94573d6000803e3d6000fd5b505050506040513d601f19601f82011682018060405250810190610bb8919061275b565b1015610c245760405162461bcd60e51b815260206004820152603560248201527f5374616b696e67506f6f6c3a2063616e6e6f7420756e7374616b65206d6f7265604482015274207468616e2068617665206f6e206164647265737360581b6064820152608401610772565b604051632770a7eb60e21b81526001600160a01b03848116600483015260248201869052831690639dc29fac90604401600060405180830381600087803b158015610c6e57600080fd5b505af1158015610c82573d6000803e3d6000fd5b50505050610c9283868684611e66565b5050505050565b6000610ca483611e12565b60405163e2c8344560e01b8152306004820152602481018490529091506001600160a01b0382169063e2c8344590604401600060405180830381600087803b158015610cef57600080fd5b505af1158015610d03573d6000803e3d6000fd5b50505050505050565b60335460408051632b51dafd60e11b815290516000926001600160a01b0316916356a3b5fa9160048083019260209291908290030181865afa1580156106a2573d6000803e3d6000fd5b603360009054906101000a90046001600160a01b03166001600160a01b031663e7f43c686040518163ffffffff1660e01b8152600401602060405180830381865afa158015610da9573d6000803e3d6000fd5b505050506040513d601f19601f82011682018060405250810190610dcd9190612774565b6001600160a01b0316336001600160a01b031614610dfd5760405162461bcd60e51b815260040161077290612791565b610e05611fde565b848381141580610e155750808214155b15610e33576040516367af08e760e11b815260040160405180910390fd5b610e46816801bc16d674ec80000061286a565b610e4e610925565b1015610e6d57604051635093740560e01b815260040160405180910390fd5b6000603c6000610e828b805160209091012090565b81526020810191909152604001600020546001600160a01b0316905080610ebc57604051631b355a8760e31b815260040160405180910390fd5b60005b82811015610fa657816001600160a01b0316639b4e46346801bc16d674ec8000008b8b85818110610ef257610ef261272c565b9050602002810190610f049190612881565b8b8b87818110610f1657610f1661272c565b9050602002810190610f289190612881565b8b8b89818110610f3a57610f3a61272c565b905060200201356040518763ffffffff1660e01b8152600401610f619594939291906128f0565b6000604051808303818588803b158015610f7a57600080fd5b505af1158015610f8e573d6000803e3d6000fd5b50505050508080610f9e90612742565b915050610ebf565b5088604051610fb5919061292a565b60405180910390207f82893d4437db377df0abca554a4a9ef54de226c99efe74077b214d6d3390e7dd8989604051610fee9291906129fb565b60405180910390a25050610d0360018055565b603360009054906101000a90046001600160a01b03166001600160a01b031663e7f43c686040518163ffffffff1660e01b8152600401602060405180830381865afa158015611054573d6000803e3d6000fd5b505050506040513d601f19601f820116820180604052508101906110789190612774565b6001600160a01b0316336001600160a01b0316146110a85760405162461bcd60e51b815260040161077290612791565b60006110b382611e12565b9050806001600160a01b031663baa7145a6040518163ffffffff1660e01b8152600401600060405180830381600087803b1580156107c357600080fd5b60335460408051632b51dafd60e11b8152905134926001600160a01b0316916356a3b5fa9160048083019260209291908290030181865afa158015611139573d6000803e3d6000fd5b505050506040513d601f19601f8201168201806040525081019061115d919061275b565b81101561117c5760405162461bcd60e51b815260040161077290612818565b60335460408051633b1b0d4360e21b815290516000926001600160a01b03169163ec6c350c9160048083019260209291908290030181865afa1580156111c6573d6000803e3d6000fd5b505050506040513d601f19601f820116820180604052508101906111ea9190612774565b6040516363737ac960e11b8152600481018490529091506000906001600160a01b0383169063c6e6f59290602401602060405180830381865afa158015611235573d6000803e3d6000fd5b505050506040513d601f19601f82011682018060405250810190611259919061275b565b6040516340c10f1960e01b8152336004820152602481018290529091506001600160a01b038316906340c10f1990604401600060405180830381600087803b1580156112a457600080fd5b505af11580156112b8573d6000803e3d6000fd5b505060408051868152602081018590523393507f1449c6dd7851abc30abf37f57715f492010519147cc2652fbc38202c18a6ee9092500160405180910390a2505050565b600061130784611e12565b9050806001600160a01b031663dda3346c8484603360009054906101000a90046001600160a01b03166001600160a01b031663e7f43c686040518163ffffffff1660e01b8152600401602060405180830381865afa15801561136d573d6000803e3d6000fd5b505050506040513d601f19601f820116820180604052508101906113919190612774565b6040518463ffffffff1660e01b81526004016113af93929190612a0f565b600060405180830381600087803b1580156113c957600080fd5b505af11580156113dd573d6000803e3d6000fd5b5050505050505050565b6113f182826109ce565b5050565b6033546040805163476c397360e11b815290516000926001600160a01b031691638ed872e69160048083019260209291908290030181865afa1580156109a0573d6000803e3d6000fd5b600054610100900460ff161580801561145f5750600054600160ff909116105b806114795750303b158015611479575060005460ff166001145b6114dc5760405162461bcd60e51b815260206004820152602e60248201527f496e697469616c697a61626c653a20636f6e747261637420697320616c72656160448201526d191e481a5b9a5d1a585b1a5e995960921b6064820152608401610772565b6000805460ff1916600117905580156114ff576000805461ff0019166101001790555b603380546001600160a01b0319166001600160a01b0385169081179091556040805163c664d38b60e01b8152905163c664d38b916004808201926020929091908290030181865afa158015611558573d6000803e3d6000fd5b505050506040513d601f19601f8201168201806040525081019061157c9190612774565b6001600160a01b03166384d810626040518163ffffffff1660e01b81526004016020604051808303816000875af11580156115bb573d6000803e3d6000fd5b505050506040513d601f19601f820116820180604052508101906115df9190612774565b506115e982612037565b801561162f576000805461ff0019169055604051600181527f7f26b83ff96e1f2b6a682f133852f6798a09c465da95921460cefb38474024989060200160405180910390a15b505050565b61163c611fde565b6001600160a01b038116611663576040516321cb944560e11b815260040160405180910390fd5b6001600160a01b0381166000908152603b60205260408120549081900361169d57604051630d23170560e01b815260040160405180910390fd5b603a544710156116c057604051635093740560e01b815260040160405180910390fd5b80603a60008282546116d29190612713565b90915550506001600160a01b0382166000908152603b602052604081208190556116fd838383612040565b90508061171d57604051634dbb90c960e01b815260040160405180910390fd5b60405182815233906001600160a01b038516907febc6a30f46090cafd1f043241dbc148c4310b7026aae29ff950ea25a5411879b9060200160405180910390a3505061176860018055565b50565b60006106c6610925565b603360009054906101000a90046001600160a01b03166001600160a01b031663e7f43c686040518163ffffffff1660e01b8152600401602060405180830381865afa1580156117c8573d6000803e3d6000fd5b505050506040513d601f19601f820116820180604052508101906117ec9190612774565b6001600160a01b0316336001600160a01b03161461181c5760405162461bcd60e51b815260040161077290612791565b60006118278a611e12565b604051633f65cf1960e01b81529091506001600160a01b03821690633f65cf1990611864908c908c908c908c908c908c908c908c90600401612b46565b600060405180830381600087803b15801561187e57600080fd5b505af1158015611892573d6000803e3d6000fd5b5050505050505050505050505050565b603360009054906101000a90046001600160a01b03166001600160a01b031663e7f43c686040518163ffffffff1660e01b8152600401602060405180830381865afa1580156118f5573d6000803e3d6000fd5b505050506040513d601f19601f820116820180604052508101906119199190612774565b6001600160a01b0316336001600160a01b0316146119495760405162461bcd60e51b815260040161077290612791565b611951611fde565b6000603454116119b85760405162461bcd60e51b815260206004820152602c60248201527f5374616b696e67506f6f6c3a20444953545249425554455f4741535f4c494d4960448201526b15081a5cc81b9bdd081cd95d60a21b6064820152608401610772565b60006119c2610925565b9050818110611aa4576119d58282612713565b90506000603360009054906101000a90046001600160a01b03166001600160a01b0316633b19e84a6040518163ffffffff1660e01b8152600401602060405180830381865afa158015611a2c573d6000803e3d6000fd5b505050506040513d601f19601f82011682018060405250810190611a509190612774565b9050611a5e81846000612040565b50806001600160a01b03167f20ca5094f3a20c321cbe4123d0f01b276b81df0fa24cd4d83d9253956035d86384604051611a9a91815260200190565b60405180910390a2505b6035545b60375481108015611ab95750600082115b8015611ac657506034545a115b15611c0f57600060378281548110611ae057611ae061272c565b6000918252602082200154603980546001600160a01b0390921693509084908110611b0d57611b0d61272c565b60009182526020909120015490506001600160a01b0382161580611b2f575080155b15611b4657611b3d83612742565b92505050611aa8565b80841015611b55575050611c0f565b6001600160a01b03821660009081526038602052604081208054839290611b7d908490612713565b925050819055508060366000828254611b969190612713565b90915550611ba690508185612713565b935060378381548110611bbb57611bbb61272c565b600091825260209091200180546001600160a01b03191690556039805484908110611be857611be861272c565b6000918252602082200155611bfc83612742565b9250611c0882826120d7565b5050611aa8565b6035555061176860018055565b603360009054906101000a90046001600160a01b03166001600160a01b031663289b3c0d6040518163ffffffff1660e01b8152600401602060405180830381865afa158015611c6f573d6000803e3d6000fd5b505050506040513d601f19601f82011682018060405250810190611c939190612774565b6001600160a01b0316336001600160a01b031614611cc35760405162461bcd60e51b8152600401610772906127d4565b805160208201206000906000818152603c60205260409020549091506001600160a01b03168015611d0757604051638b1a6ce760e01b815260040160405180910390fd5b603360009054906101000a90046001600160a01b03166001600160a01b0316633f69e0f76040518163ffffffff1660e01b8152600401602060405180830381865afa158015611d5a573d6000803e3d6000fd5b505050506040513d601f19601f82011682018060405250810190611d7e9190612774565b6001600160a01b0316639ce953c86040518163ffffffff1660e01b81526004016020604051808303816000875af1158015611dbd573d6000803e3d6000fd5b505050506040513d601f19601f82011682018060405250810190611de19190612774565b6000928352603c602052604090922080546001600160a01b0319166001600160a01b03909316929092179091555050565b6000603c6000611e2784805160209091012090565b81526020810191909152604001600020546001600160a01b0316905080611e6157604051631b355a8760e31b815260040160405180910390fd5b919050565b8015801590611e7d57506001600160a01b03831615155b611edb5760405162461bcd60e51b815260206004820152602960248201527f4c6971756964546f6b656e5374616b696e67506f6f6c3a207a65726f20696e7060448201526875742076616c75657360b81b6064820152608401610772565b8060366000828254611eed9190612c05565b90915550506037805460018082019092557f42a7b7dd785cd69714a189dffb3fd7d7174edc9ece837694ce50f7078f7c31ae0180546001600160a01b0319166001600160a01b0386169081179091556039805492830190557fdc16fef70f8d5ddbc01ee3d903d1e69c18a3c7be080eb86a81e0578814ee58d390910182905560009081526038602052604081208054839290611f8a908490612c05565b909155505060408051828152602081018490526001600160a01b0380861692908716917fe8f73d529f5ced08581a2c18456a6530dbd0dddf94d8c98e0ab8f9883e2f4482910160405180910390a350505050565b6002600154036120305760405162461bcd60e51b815260206004820152601f60248201527f5265656e7472616e637947756172643a207265656e7472616e742063616c6c006044820152606401610772565b6002600155565b61176881610832565b60008247101561206357604051635093740560e01b815260040160405180910390fd5b83821561207d576000806000808785612710f19150610651565b6040516001600160a01b038216908590600081818185875af1925050503d80600081146120c6576040519150601f19603f3d011682016040523d82523d6000602084013e6120cb565b606091505b50909695505050505050565b80603a60008282546120e99190612c05565b90915550506001600160a01b0382166000908152603b602052604081208054839290612116908490612c05565b90915550506040518181526001600160a01b038316907ff4426c1412b22225874f3898e67e34c12ba628bff6d89fd87ba593927a80b4219060200160405180910390a25050565b6001600160a01b038116811461176857600080fd5b60006020828403121561218457600080fd5b813561218f8161215d565b9392505050565b600081518084526020808501945080840160005b838110156121c6578151875295820195908201906001016121aa565b509495945050505050565b60208152600061218f6020830184612196565b634e487b7160e01b600052604160045260246000fd5b604051601f8201601f191681016001600160401b0381118282101715612222576122226121e4565b604052919050565b600082601f83011261223b57600080fd5b81356001600160401b03811115612254576122546121e4565b612267601f8201601f19166020016121fa565b81815284602083860101111561227c57600080fd5b816020850160208301376000918101602001919091529392505050565b6000602082840312156122ab57600080fd5b81356001600160401b038111156122c157600080fd5b6122cd8482850161222a565b949350505050565b6000602082840312156122e757600080fd5b5035919050565b6000806040838503121561230157600080fd5b823561230c8161215d565b946020939093013593505050565b6000806040838503121561232d57600080fd5b82356001600160401b0381111561234357600080fd5b61234f8582860161222a565b95602094909401359450505050565b60008083601f84011261237057600080fd5b5081356001600160401b0381111561238757600080fd5b6020830191508360208260051b85010111156123a257600080fd5b9250929050565b60008060008060008060006080888a0312156123c457600080fd5b87356001600160401b03808211156123db57600080fd5b6123e78b838c0161222a565b985060208a01359150808211156123fd57600080fd5b6124098b838c0161235e565b909850965060408a013591508082111561242257600080fd5b61242e8b838c0161235e565b909650945060608a013591508082111561244757600080fd5b506124548a828b0161235e565b989b979a50959850939692959293505050565b60006001600160401b03821115612480576124806121e4565b5060051b60200190565b600082601f83011261249b57600080fd5b813560206124b06124ab83612467565b6121fa565b82815260059290921b840181019181810190868411156124cf57600080fd5b8286015b848110156124ea57803583529183019183016124d3565b509695505050505050565b60008060006060848603121561250a57600080fd5b83356001600160401b038082111561252157600080fd5b61252d8783880161222a565b945060209150818601358181111561254457600080fd5b8601601f8101881361255557600080fd5b80356125636124ab82612467565b81815260059190911b8201840190848101908a83111561258257600080fd5b928501925b828410156125a957833561259a8161215d565b82529285019290850190612587565b965050505060408601359150808211156125c257600080fd5b506125cf8682870161248a565b9150509250925092565b80356001600160401b0381168114611e6157600080fd5b60006040828403121561260257600080fd5b50919050565b600080600080600080600080600060c08a8c03121561262657600080fd5b89356001600160401b038082111561263d57600080fd5b6126498d838e0161222a565b9a5061265760208d016125d9565b995060408c013591508082111561266d57600080fd5b6126798d838e016125f0565b985060608c013591508082111561268f57600080fd5b61269b8d838e0161235e565b909850965060808c01359150808211156126b457600080fd5b6126c08d838e0161235e565b909650945060a08c01359150808211156126d957600080fd5b506126e68c828d0161235e565b915080935050809150509295985092959850929598565b634e487b7160e01b600052601160045260246000fd5b81810381811115612726576127266126fd565b92915050565b634e487b7160e01b600052603260045260246000fd5b600060018201612754576127546126fd565b5060010190565b60006020828403121561276d57600080fd5b5051919050565b60006020828403121561278657600080fd5b815161218f8161215d565b60208082526023908201527f5374616b696e67506f6f6c3a206f6e6c7920636f6e73656e73757320616c6c6f6040820152621dd95960ea1b606082015260800190565b60208082526024908201527f5374616b696e67506f6f6c3a206f6e6c7920676f7665726e616e636520616c6c6040820152631bddd95960e21b606082015260800190565b60208082526032908201527f5374616b696e67506f6f6c3a2076616c7565206d757374206265206772656174604082015271195c881d1a185b881b5a5b88185b5bdd5b9d60721b606082015260800190565b8082028115828204841417612726576127266126fd565b6000808335601e1984360301811261289857600080fd5b8301803591506001600160401b038211156128b257600080fd5b6020019150368190038213156123a257600080fd5b81835281816020850137506000828201602090810191909152601f909101601f19169091010190565b6060815260006129046060830187896128c7565b82810360208401526129178186886128c7565b9150508260408301529695505050505050565b6000825160005b8181101561294b5760208186018101518583015201612931565b506000920191825250919050565b6000808335601e1984360301811261297057600080fd5b83016020810192503590506001600160401b0381111561298f57600080fd5b8036038213156123a257600080fd5b81835260006020808501808196508560051b810191508460005b878110156129ee5782840389526129cf8288612959565b6129da8682846128c7565b9a87019a95505050908401906001016129b8565b5091979650505050505050565b6020815260006122cd60208301848661299e565b606080825284519082018190526000906020906080840190828801845b82811015612a515781516001600160a01b031684529284019290840190600101612a2c565b50505083810382850152612a658187612196565b9250505060018060a01b0383166040830152949350505050565b81835260006001600160fb1b03831115612a9857600080fd5b8260051b80836020870137939093016020019392505050565b81835260006020808501808196506005915085821b81018560005b88811015612b38578383038a528135601e19893603018112612aed57600080fd5b880186810190356001600160401b03811115612b0857600080fd5b80871b3603821315612b1957600080fd5b612b24858284612a7f565b9b88019b9450505090850190600101612acc565b509098975050505050505050565b6001600160401b03891681526000602060a081840152893560a0840152612b6f818b018b612959565b604060c0860152612b8460e0860182846128c7565b85810360408701528a81528b9250830190506000805b8b811015612bca57833564ffffffffff8116808214612bb7578384fd5b8452509284019291840191600101612b9a565b50508481036060860152612bdf81898b61299e565b925050508281036080840152612bf6818587612ab1565b9b9a5050505050505050505050565b80820180821115612726576127266126fd56fea264697066735822122092183a8270e5abdd42c4a13c63db455143055b94471774258344496619bfda8e64736f6c63430008140033",
  "devdoc": {
    "errors": {
      "PoolFailedInnerCall()": [
        {
          "details": "A call to an address target failed. The target may have reverted."
        }
      ]
    },
    "events": {
      "Initialized(uint8)": {
        "details": "Triggered when the contract has been initialized or reinitialized."
      },
      "RewardsDistributed(address[],uint256[])": {
        "details": "Deprecated."
      }
    },
    "kind": "dev",
    "methods": {
      "getCert()": {
        "returns": {
          "_0": "Certificate token address"
        }
      },
      "getFreeBalance()": {
        "details": "Deprecated."
      },
      "stakeCerts()": {
        "details": "Deprecated."
      },
      "unstakeCerts(address,uint256)": {
        "details": "Deprecated."
      }
    },
    "stateVariables": {
      "_stakingConfig": {
        "details": "external contracts"
      }
    },
    "version": 1
  },
  "userdoc": {
    "kind": "user",
    "methods": {},
    "version": 1
  },
  "storageLayout": {
    "storage": [
      {
        "astId": 139,
        "contract": "contracts/StakingPool.sol:StakingPool",
        "label": "_initialized",
        "offset": 0,
        "slot": "0",
        "type": "t_uint8"
      },
      {
        "astId": 142,
        "contract": "contracts/StakingPool.sol:StakingPool",
        "label": "_initializing",
        "offset": 1,
        "slot": "0",
        "type": "t_bool"
      },
      {
        "astId": 316,
        "contract": "contracts/StakingPool.sol:StakingPool",
        "label": "_status",
        "offset": 0,
        "slot": "1",
        "type": "t_uint256"
      },
      {
        "astId": 385,
        "contract": "contracts/StakingPool.sol:StakingPool",
        "label": "__gap",
        "offset": 0,
        "slot": "2",
        "type": "t_array(t_uint256)49_storage"
      },
      {
        "astId": 4214,
        "contract": "contracts/StakingPool.sol:StakingPool",
        "label": "_stakingConfig",
        "offset": 0,
        "slot": "51",
        "type": "t_contract(IStakingConfig)6989"
      },
      {
        "astId": 4216,
        "contract": "contracts/StakingPool.sol:StakingPool",
        "label": "_distributeGasLimit",
        "offset": 0,
        "slot": "52",
        "type": "t_uint256"
      },
      {
        "astId": 4218,
        "contract": "contracts/StakingPool.sol:StakingPool",
        "label": "_pendingGap",
        "offset": 0,
        "slot": "53",
        "type": "t_uint256"
      },
      {
        "astId": 4220,
        "contract": "contracts/StakingPool.sol:StakingPool",
        "label": "_pendingTotalUnstakes",
        "offset": 0,
        "slot": "54",
        "type": "t_uint256"
      },
      {
        "astId": 4223,
        "contract": "contracts/StakingPool.sol:StakingPool",
        "label": "_pendingClaimers",
        "offset": 0,
        "slot": "55",
        "type": "t_array(t_address)dyn_storage"
      },
      {
        "astId": 4227,
        "contract": "contracts/StakingPool.sol:StakingPool",
        "label": "_pendingClaimerUnstakes",
        "offset": 0,
        "slot": "56",
        "type": "t_mapping(t_address,t_uint256)"
      },
      {
        "astId": 4230,
        "contract": "contracts/StakingPool.sol:StakingPool",
        "label": "_pendingRequests",
        "offset": 0,
        "slot": "57",
        "type": "t_array(t_uint256)dyn_storage"
      },
      {
        "astId": 4232,
        "contract": "contracts/StakingPool.sol:StakingPool",
        "label": "_totalClaimable",
        "offset": 0,
        "slot": "58",
        "type": "t_uint256"
      },
      {
        "astId": 4236,
        "contract": "contracts/StakingPool.sol:StakingPool",
        "label": "_claimable",
        "offset": 0,
        "slot": "59",
        "type": "t_mapping(t_address,t_uint256)"
      },
      {
        "astId": 4240,
        "contract": "contracts/StakingPool.sol:StakingPool",
        "label": "_restakers",
        "offset": 0,
        "slot": "60",
        "type": "t_mapping(t_bytes32,t_address)"
      },
      {
        "astId": 4246,
        "contract": "contracts/StakingPool.sol:StakingPool",
        "label": "__reserved",
        "offset": 0,
        "slot": "61",
        "type": "t_array(t_uint256)42_storage"
      }
    ],
    "types": {
      "t_address": {
        "encoding": "inplace",
        "label": "address",
        "numberOfBytes": "20"
      },
      "t_array(t_address)dyn_storage": {
        "base": "t_address",
        "encoding": "dynamic_array",
        "label": "address[]",
        "numberOfBytes": "32"
      },
      "t_array(t_uint256)42_storage": {
        "base": "t_uint256",
        "encoding": "inplace",
        "label": "uint256[42]",
        "numberOfBytes": "1344"
      },
      "t_array(t_uint256)49_storage": {
        "base": "t_uint256",
        "encoding": "inplace",
        "label": "uint256[49]",
        "numberOfBytes": "1568"
      },
      "t_array(t_uint256)dyn_storage": {
        "base": "t_uint256",
        "encoding": "dynamic_array",
        "label": "uint256[]",
        "numberOfBytes": "32"
      },
      "t_bool": {
        "encoding": "inplace",
        "label": "bool",
        "numberOfBytes": "1"
      },
      "t_bytes32": {
        "encoding": "inplace",
        "label": "bytes32",
        "numberOfBytes": "32"
      },
      "t_contract(IStakingConfig)6989": {
        "encoding": "inplace",
        "label": "contract IStakingConfig",
        "numberOfBytes": "20"
      },
      "t_mapping(t_address,t_uint256)": {
        "encoding": "mapping",
        "key": "t_address",
        "label": "mapping(address => uint256)",
        "numberOfBytes": "32",
        "value": "t_uint256"
      },
      "t_mapping(t_bytes32,t_address)": {
        "encoding": "mapping",
        "key": "t_bytes32",
        "label": "mapping(bytes32 => address)",
        "numberOfBytes": "32",
        "value": "t_address"
      },
      "t_uint256": {
        "encoding": "inplace",
        "label": "uint256",
        "numberOfBytes": "32"
      },
      "t_uint8": {
        "encoding": "inplace",
        "label": "uint8",
        "numberOfBytes": "1"
      }
    }
  }
}