{
  "address": "0x0d14Ad04c9A3B15B933078379A4142ffd13a569D",
  "abi": [
    {
      "inputs": [
        {
          "internalType": "uint256",
          "name": "claimed",
          "type": "uint256"
        },
        {
          "internalType": "uint256",
          "name": "fee",
          "type": "uint256"
        }
      ],
      "name": "AmbiguousFee",
      "type": "error"
    },
    {
      "inputs": [],
      "name": "OnlyGovernanceAllowed",
      "type": "error"
    },
    {
      "inputs": [],
      "name": "OnlyOperatorAllowed",
      "type": "error"
    },
    {
      "inputs": [
        {
          "internalType": "uint64",
          "name": "max",
          "type": "uint64"
        }
      ],
      "name": "PoolDistributeGasLimitNotInRange",
      "type": "error"
    },
    {
      "inputs": [],
      "name": "PoolDistributeGasLimitNotSet",
      "type": "error"
    },
    {
      "inputs": [],
      "name": "PoolFailedInnerCall",
      "type": "error"
    },
    {
      "inputs": [],
      "name": "PoolInsufficientBalance",
      "type": "error"
    },
    {
      "inputs": [],
      "name": "PoolRestakerExists",
      "type": "error"
    },
    {
      "inputs": [],
      "name": "PoolRestakerNotExists",
      "type": "error"
    },
    {
      "inputs": [],
      "name": "PoolStakeAmLessThanMin",
      "type": "error"
    },
    {
      "inputs": [],
      "name": "PoolUnstakeAmLessThanMin",
      "type": "error"
    },
    {
      "inputs": [],
      "name": "PoolWrongInputLength",
      "type": "error"
    },
    {
      "inputs": [],
      "name": "PoolZeroAddress",
      "type": "error"
    },
    {
      "inputs": [],
      "name": "PoolZeroAmount",
      "type": "error"
    },
    {
      "anonymous": false,
      "inputs": [
        {
          "indexed": true,
          "internalType": "address",
          "name": "claimer",
          "type": "address"
        },
        {
          "indexed": false,
          "internalType": "uint256",
          "name": "value",
          "type": "uint256"
        }
      ],
      "name": "ClaimExpected",
      "type": "event"
    },
    {
      "anonymous": false,
      "inputs": [
        {
          "indexed": true,
          "internalType": "string",
          "name": "provider",
          "type": "string"
        },
        {
          "indexed": false,
          "internalType": "bytes[]",
          "name": "pubkeys",
          "type": "bytes[]"
        }
      ],
      "name": "Deposited",
      "type": "event"
    },
    {
      "anonymous": false,
      "inputs": [
        {
          "indexed": false,
          "internalType": "uint32",
          "name": "prevValue",
          "type": "uint32"
        },
        {
          "indexed": false,
          "internalType": "uint32",
          "name": "newValue",
          "type": "uint32"
        }
      ],
      "name": "DistributeGasLimitChanged",
      "type": "event"
    },
    {
      "anonymous": false,
      "inputs": [
        {
          "indexed": true,
          "internalType": "address",
          "name": "restaker",
          "type": "address"
        },
        {
          "indexed": true,
          "internalType": "address",
          "name": "treasury",
          "type": "address"
        },
        {
          "indexed": false,
          "internalType": "uint256",
          "name": "fee",
          "type": "uint256"
        },
        {
          "indexed": false,
          "internalType": "uint256",
          "name": "totalClaimed",
          "type": "uint256"
        }
      ],
      "name": "FeeClaimed",
      "type": "event"
    },
    {
      "anonymous": false,
      "inputs": [
        {
          "indexed": false,
          "internalType": "uint8",
          "name": "version",
          "type": "uint8"
        }
      ],
      "name": "Initialized",
      "type": "event"
    },
    {
      "anonymous": false,
      "inputs": [
        {
          "indexed": true,
          "internalType": "address",
          "name": "ownerAddress",
          "type": "address"
        },
        {
          "indexed": true,
          "internalType": "address",
          "name": "receiverAddress",
          "type": "address"
        },
        {
          "indexed": false,
          "internalType": "uint256",
          "name": "amount",
          "type": "uint256"
        },
        {
          "indexed": false,
          "internalType": "uint256",
          "name": "shares",
          "type": "uint256"
        }
      ],
      "name": "PendingUnstake",
      "type": "event"
    },
    {
      "anonymous": false,
      "inputs": [
        {
          "indexed": true,
          "internalType": "address",
          "name": "sender",
          "type": "address"
        },
        {
          "indexed": false,
          "internalType": "uint256",
          "name": "amount",
          "type": "uint256"
        }
      ],
      "name": "Received",
      "type": "event"
    },
    {
      "anonymous": false,
      "inputs": [
        {
          "indexed": true,
          "internalType": "bytes32",
          "name": "code",
          "type": "bytes32"
        }
      ],
      "name": "ReferralStake",
      "type": "event"
    },
    {
      "anonymous": false,
      "inputs": [
        {
          "indexed": false,
          "internalType": "address[]",
          "name": "claimers",
          "type": "address[]"
        },
        {
          "indexed": false,
          "internalType": "uint256[]",
          "name": "amounts",
          "type": "uint256[]"
        }
      ],
      "name": "RewardsDistributed",
      "type": "event"
    },
    {
      "anonymous": false,
      "inputs": [
        {
          "indexed": true,
          "internalType": "address",
          "name": "staker",
          "type": "address"
        },
        {
          "indexed": false,
          "internalType": "uint256",
          "name": "amount",
          "type": "uint256"
        },
        {
          "indexed": false,
          "internalType": "uint256",
          "name": "shares",
          "type": "uint256"
        }
      ],
      "name": "Staked",
      "type": "event"
    },
    {
      "anonymous": false,
      "inputs": [
        {
          "indexed": true,
          "internalType": "address",
          "name": "claimer",
          "type": "address"
        },
        {
          "indexed": true,
          "internalType": "address",
          "name": "caller",
          "type": "address"
        },
        {
          "indexed": false,
          "internalType": "uint256",
          "name": "value",
          "type": "uint256"
        }
      ],
      "name": "UnstakeClaimed",
      "type": "event"
    },
    {
      "anonymous": false,
      "inputs": [
        {
          "indexed": true,
          "internalType": "address",
          "name": "from",
          "type": "address"
        },
        {
          "indexed": true,
          "internalType": "address",
          "name": "to",
          "type": "address"
        },
        {
          "indexed": false,
          "internalType": "uint256",
          "name": "amount",
          "type": "uint256"
        },
        {
          "indexed": false,
          "internalType": "uint256",
          "name": "shares",
          "type": "uint256"
        }
      ],
      "name": "Unstaked",
      "type": "event"
    },
    {
      "anonymous": false,
      "inputs": [
        {
          "components": [
            {
              "internalType": "address",
              "name": "recipient",
              "type": "address"
            },
            {
              "internalType": "uint256",
              "name": "amount",
              "type": "uint256"
            }
          ],
          "indexed": false,
          "internalType": "struct IRestakingPool.Unstake[]",
          "name": "unstakes",
          "type": "tuple[]"
        }
      ],
      "name": "UnstakesDistributed",
      "type": "event"
    },
    {
      "inputs": [],
      "name": "CALL_GAS_LIMIT",
      "outputs": [
        {
          "internalType": "uint256",
          "name": "",
          "type": "uint256"
        }
      ],
      "stateMutability": "view",
      "type": "function"
    },
    {
      "inputs": [
        {
          "internalType": "string",
          "name": "provider",
          "type": "string"
        }
      ],
      "name": "activateRestaking",
      "outputs": [],
      "stateMutability": "nonpayable",
      "type": "function"
    },
    {
      "inputs": [
        {
          "internalType": "string",
          "name": "provider",
          "type": "string"
        }
      ],
      "name": "addRestaker",
      "outputs": [],
      "stateMutability": "nonpayable",
      "type": "function"
    },
    {
      "inputs": [
        {
          "internalType": "string",
          "name": "provider",
          "type": "string"
        },
        {
          "internalType": "bytes[]",
          "name": "pubkeys",
          "type": "bytes[]"
        },
        {
          "internalType": "bytes[]",
          "name": "signatures",
          "type": "bytes[]"
        },
        {
          "internalType": "bytes32[]",
          "name": "deposit_data_roots",
          "type": "bytes32[]"
        }
      ],
      "name": "batchDeposit",
      "outputs": [],
      "stateMutability": "nonpayable",
      "type": "function"
    },
    {
      "inputs": [
        {
          "internalType": "string",
          "name": "provider",
          "type": "string"
        },
        {
          "internalType": "uint256",
          "name": "fee",
          "type": "uint256"
        }
      ],
      "name": "claimRestaker",
      "outputs": [],
      "stateMutability": "nonpayable",
      "type": "function"
    },
    {
      "inputs": [
        {
          "internalType": "address",
          "name": "claimer",
          "type": "address"
        }
      ],
      "name": "claimUnstake",
      "outputs": [],
      "stateMutability": "nonpayable",
      "type": "function"
    },
    {
      "inputs": [
        {
          "internalType": "address",
          "name": "claimer",
          "type": "address"
        }
      ],
      "name": "claimableOf",
      "outputs": [
        {
          "internalType": "uint256",
          "name": "",
          "type": "uint256"
        }
      ],
      "stateMutability": "view",
      "type": "function"
    },
    {
      "inputs": [],
      "name": "distributeUnstakes",
      "outputs": [],
      "stateMutability": "nonpayable",
      "type": "function"
    },
    {
      "inputs": [],
      "name": "getCert",
      "outputs": [
        {
          "internalType": "address",
          "name": "",
          "type": "address"
        }
      ],
      "stateMutability": "view",
      "type": "function"
    },
    {
      "inputs": [],
      "name": "getEigenPodManager",
      "outputs": [
        {
          "internalType": "address",
          "name": "",
          "type": "address"
        }
      ],
      "stateMutability": "view",
      "type": "function"
    },
    {
      "inputs": [],
      "name": "getFreeBalance",
      "outputs": [
        {
          "internalType": "uint256",
          "name": "",
          "type": "uint256"
        }
      ],
      "stateMutability": "view",
      "type": "function"
    },
    {
      "inputs": [],
      "name": "getMinStake",
      "outputs": [
        {
          "internalType": "uint256",
          "name": "amount",
          "type": "uint256"
        }
      ],
      "stateMutability": "view",
      "type": "function"
    },
    {
      "inputs": [],
      "name": "getMinUnstake",
      "outputs": [
        {
          "internalType": "uint256",
          "name": "shares",
          "type": "uint256"
        }
      ],
      "stateMutability": "view",
      "type": "function"
    },
    {
      "inputs": [],
      "name": "getPending",
      "outputs": [
        {
          "internalType": "uint256",
          "name": "",
          "type": "uint256"
        }
      ],
      "stateMutability": "view",
      "type": "function"
    },
    {
      "inputs": [
        {
          "internalType": "address",
          "name": "claimer",
          "type": "address"
        }
      ],
      "name": "getPendingRequestsOf",
      "outputs": [
        {
          "internalType": "uint256[]",
          "name": "",
          "type": "uint256[]"
        }
      ],
      "stateMutability": "view",
      "type": "function"
    },
    {
      "inputs": [
        {
          "internalType": "address",
          "name": "claimer",
          "type": "address"
        }
      ],
      "name": "getPendingUnstakesOf",
      "outputs": [
        {
          "internalType": "uint256",
          "name": "",
          "type": "uint256"
        }
      ],
      "stateMutability": "view",
      "type": "function"
    },
    {
      "inputs": [],
      "name": "getTotalClaimable",
      "outputs": [
        {
          "internalType": "uint256",
          "name": "",
          "type": "uint256"
        }
      ],
      "stateMutability": "view",
      "type": "function"
    },
    {
      "inputs": [],
      "name": "getTotalPendingUnstakes",
      "outputs": [
        {
          "internalType": "uint256",
          "name": "",
          "type": "uint256"
        }
      ],
      "stateMutability": "view",
      "type": "function"
    },
    {
      "inputs": [
        {
          "internalType": "address",
          "name": "claimer",
          "type": "address"
        }
      ],
      "name": "hasClaimable",
      "outputs": [
        {
          "internalType": "bool",
          "name": "",
          "type": "bool"
        }
      ],
      "stateMutability": "view",
      "type": "function"
    },
    {
      "inputs": [
        {
          "internalType": "contract IStakingConfig",
          "name": "stakingConfig",
          "type": "address"
        },
        {
          "internalType": "uint256",
          "name": "distributeGasLimit",
          "type": "uint256"
        }
      ],
      "name": "initialize",
      "outputs": [],
      "stateMutability": "nonpayable",
      "type": "function"
    },
    {
      "inputs": [
        {
          "internalType": "string",
          "name": "provider",
          "type": "string"
        },
        {
          "internalType": "contract IERC20[]",
          "name": "tokenList",
          "type": "address[]"
        },
        {
          "internalType": "uint256[]",
          "name": "amountsToWithdraw",
          "type": "uint256[]"
        }
      ],
      "name": "recoverTokens",
      "outputs": [],
      "stateMutability": "nonpayable",
      "type": "function"
    },
    {
      "inputs": [
        {
          "internalType": "uint256",
          "name": "newValue",
          "type": "uint256"
        }
      ],
      "name": "setDistributeGasLimit",
      "outputs": [],
      "stateMutability": "nonpayable",
      "type": "function"
    },
    {
      "inputs": [],
      "name": "stake",
      "outputs": [],
      "stateMutability": "payable",
      "type": "function"
    },
    {
      "inputs": [
        {
          "internalType": "bytes32",
          "name": "code",
          "type": "bytes32"
        }
      ],
      "name": "stake",
      "outputs": [],
      "stateMutability": "payable",
      "type": "function"
    },
    {
      "inputs": [],
      "name": "stakeCerts",
      "outputs": [],
      "stateMutability": "payable",
      "type": "function"
    },
    {
      "inputs": [
        {
          "internalType": "address",
          "name": "to",
          "type": "address"
        },
        {
          "internalType": "uint256",
          "name": "shares",
          "type": "uint256"
        }
      ],
      "name": "unstake",
      "outputs": [],
      "stateMutability": "nonpayable",
      "type": "function"
    },
    {
      "inputs": [
        {
          "internalType": "address",
          "name": "receiverAddress",
          "type": "address"
        },
        {
          "internalType": "uint256",
          "name": "shares",
          "type": "uint256"
        }
      ],
      "name": "unstakeCerts",
      "outputs": [],
      "stateMutability": "nonpayable",
      "type": "function"
    },
    {
      "inputs": [
        {
          "internalType": "string",
          "name": "provider",
          "type": "string"
        },
        {
          "internalType": "uint64",
          "name": "oracleTimestamp",
          "type": "uint64"
        },
        {
          "components": [
            {
              "internalType": "bytes32",
              "name": "beaconStateRoot",
              "type": "bytes32"
            },
            {
              "internalType": "bytes",
              "name": "proof",
              "type": "bytes"
            }
          ],
          "internalType": "struct BeaconChainProofs.StateRootProof",
          "name": "stateRootProof",
          "type": "tuple"
        },
        {
          "internalType": "uint40[]",
          "name": "validatorIndices",
          "type": "uint40[]"
        },
        {
          "internalType": "bytes[]",
          "name": "validatorFieldsProofs",
          "type": "bytes[]"
        },
        {
          "internalType": "bytes32[][]",
          "name": "validatorFields",
          "type": "bytes32[][]"
        }
      ],
      "name": "verifyWithdrawalCredentials",
      "outputs": [],
      "stateMutability": "nonpayable",
      "type": "function"
    },
    {
      "inputs": [
        {
          "internalType": "string",
          "name": "provider",
          "type": "string"
        }
      ],
      "name": "withdrawBeforeRestaking",
      "outputs": [],
      "stateMutability": "nonpayable",
      "type": "function"
    },
    {
      "inputs": [
        {
          "internalType": "string",
          "name": "provider",
          "type": "string"
        },
        {
          "internalType": "uint256",
          "name": "amountToWithdraw",
          "type": "uint256"
        }
      ],
      "name": "withdrawNonBeaconChainETHBalanceWei",
      "outputs": [],
      "stateMutability": "nonpayable",
      "type": "function"
    }
  ],
  "transactionHash": "0xfd4970d3aade327db4825d9bc2ee493760e0198fc3250aa215a22db4a0ef1737",
  "args": [],
  "numDeployments": 3,
  "solcInputHash": "933d3aa86496f82290c58d6f5b24715e",
  "bytecode": "0x608060405234801561001057600080fd5b50612eba806100206000396000f3fe6080604052600436106101cd5760003560e01c80637cf3d51e116100f7578063c664d38b11610095578063e93c4f1511610064578063e93c4f1514610510578063eea4684d14610525578063fa57d00214610545578063fb8fa2901461055a57600080fd5b8063c664d38b1461049b578063cd6dc687146104b0578063d11531da146104d0578063d50b810d146104f057600080fd5b8063ac76d450116100d1578063ac76d45014610440578063b3870ef714610448578063c0d64a8714610468578063c2a672e01461047b57600080fd5b80637cf3d51e146103ac5780638903ab9d146103f45780638e59fbf61461042a57600080fd5b80633a4b66f11161016f57806356a3b5fa1161013e57806356a3b5fa146103425780635f4aa38d146103575780636180c6091461037757806370131f4d1461038c57600080fd5b80633a4b66f1146102c4578063409cb613146102cc57806346faa33c146102ec57806348abd1961461032257600080fd5b8063042fc3a6116101ab578063042fc3a61461024d57806311ae9ed21461026d578063126d5df614610282578063183cdf241461029757600080fd5b806301ff923c146101d2578063034c4454146102085780630359cc221461022b575b600080fd5b3480156101de57600080fd5b506101f26101ed366004612367565b61057a565b6040516101ff91906123c6565b60405180910390f35b34801561021457600080fd5b5061021d610697565b6040519081526020016101ff565b34801561023757600080fd5b5061024b61024636600461248e565b610709565b005b34801561025957600080fd5b5061024b6102683660046124ca565b610870565b34801561027957600080fd5b5061021d610963565b34801561028e57600080fd5b5060365461021d565b3480156102a357600080fd5b506102ac610994565b6040516001600160a01b0390911681526020016101ff565b61024b610a02565b3480156102d857600080fd5b5061024b6102e73660046124e3565b610c0e565b3480156102f857600080fd5b5061021d610307366004612367565b6001600160a01b031660009081526038602052604090205490565b34801561032e57600080fd5b5061024b61033d36600461250f565b610ed9565b34801561034e57600080fd5b5061021d610f4c565b34801561036357600080fd5b5061024b61037236600461259e565b610f96565b34801561038357600080fd5b50603a5461021d565b34801561039857600080fd5b5061024b6103a736600461248e565b611241565b3480156103b857600080fd5b506103e46103c7366004612367565b6001600160a01b03166000908152603b6020526040902054151590565b60405190151581526020016101ff565b34801561040057600080fd5b5061021d61040f366004612367565b6001600160a01b03166000908152603b602052604090205490565b34801561043657600080fd5b5061021d61271081565b61024b611330565b34801561045457600080fd5b5061024b6104633660046126ea565b61133a565b61024b6104763660046124ca565b611425565b34801561048757600080fd5b5061024b6104963660046124e3565b61145b565b3480156104a757600080fd5b506102ac611469565b3480156104bc57600080fd5b5061024b6104cb3660046124e3565b6114b3565b3480156104dc57600080fd5b5061024b6104eb366004612367565b6116a8565b3480156104fc57600080fd5b5061024b61050b3660046127ce565b6117df565b34801561051c57600080fd5b5061021d611a3f565b34801561053157600080fd5b5061024b610540366004612874565b611a49565b34801561055157600080fd5b5061024b611b76565b34801561056657600080fd5b5061024b61057536600461248e565b611e11565b60355460375460609160009182916105919161297f565b6001600160401b038111156105a8576105a86123d9565b6040519080825280602002602001820160405280156105d1578160200160208202803683370190505b506035549091505b60375481101561067357846001600160a01b03166037828154811061060057610600612998565b6000918252602090912001546001600160a01b031603610661576039818154811061062d5761062d612998565b906000526020600020015482848151811061064a5761064a612998565b602090810291909101015261065e836129ae565b92505b8061066b816129ae565b9150506105d9565b506000828251610683919061297f565b9050801561068f578282525b509392505050565b6033546040805162d3111560e21b815290516000926001600160a01b03169163034c44549160048083019260209291908290030181865afa1580156106e0573d6000803e3d6000fd5b505050506040513d601f19601f8201168201806040525081019061070491906129c7565b905090565b603360009054906101000a90046001600160a01b03166001600160a01b031663e7f43c686040518163ffffffff1660e01b8152600401602060405180830381865afa15801561075c573d6000803e3d6000fd5b505050506040513d601f19601f8201168201806040525081019061078091906129e0565b6001600160a01b0316336001600160a01b0316146107b95760405162461bcd60e51b81526004016107b0906129fd565b60405180910390fd5b60006107c482612007565b9050806001600160a01b0316630cd4649e6040518163ffffffff1660e01b8152600401600060405180830381600087803b15801561080157600080fd5b505af1158015610815573d6000803e3d6000fd5b50505050806001600160a01b031663ef8cdf7c6040518163ffffffff1660e01b8152600401600060405180830381600087803b15801561085457600080fd5b505af1158015610868573d6000803e3d6000fd5b505050505050565b603360009054906101000a90046001600160a01b03166001600160a01b031663289b3c0d6040518163ffffffff1660e01b8152600401602060405180830381865afa1580156108c3573d6000803e3d6000fd5b505050506040513d601f19601f820116820180604052508101906108e791906129e0565b6001600160a01b0316336001600160a01b0316146109175760405162461bcd60e51b81526004016107b090612a40565b60348054908290556040805163ffffffff8084168252841660208201527f55c1474264b8038534b3e34b09a3a99d1f3436634d4e34fa13cea4c33c9a832e910160405180910390a15050565b60004781610970603a5490565b9050818111156109835760009250505090565b61098d818361297f565b9250505090565b60335460408051635eaad42760e11b815290516000926001600160a01b03169163bd55a84e9160048083019260209291908290030181865afa1580156109de573d6000803e3d6000fd5b505050506040513d601f19601f8201168201806040525081019061070491906129e0565b60335460408051632b51dafd60e11b8152905134926001600160a01b0316916356a3b5fa9160048083019260209291908290030181865afa158015610a4b573d6000803e3d6000fd5b505050506040513d601f19601f82011682018060405250810190610a6f91906129c7565b811015610a8e5760405162461bcd60e51b81526004016107b090612a84565b60335460408051633b1b0d4360e21b815290516000926001600160a01b03169163ec6c350c9160048083019260209291908290030181865afa158015610ad8573d6000803e3d6000fd5b505050506040513d601f19601f82011682018060405250810190610afc91906129e0565b6040516363737ac960e11b8152600481018490529091506000906001600160a01b0383169063c6e6f59290602401602060405180830381865afa158015610b47573d6000803e3d6000fd5b505050506040513d601f19601f82011682018060405250810190610b6b91906129c7565b6040516340c10f1960e01b8152336004820152602481018290529091506001600160a01b038316906340c10f1990604401600060405180830381600087803b158015610bb657600080fd5b505af1158015610bca573d6000803e3d6000fd5b505060408051868152602081018590523393507f1449c6dd7851abc30abf37f57715f492010519147cc2652fbc38202c18a6ee9092500160405180910390a2505050565b60335460408051633b1b0d4360e21b8152905133926000926001600160a01b039091169163ec6c350c916004808201926020929091908290030181865afa158015610c5d573d6000803e3d6000fd5b505050506040513d601f19601f82011682018060405250810190610c8191906129e0565b604051600162e422bd60e01b03198152600481018590529091506000906001600160a01b0383169063ff1bdd4390602401602060405180830381865afa158015610ccf573d6000803e3d6000fd5b505050506040513d601f19601f82011682018060405250810190610cf391906129c7565b9050603360009054906101000a90046001600160a01b03166001600160a01b031663034c44546040518163ffffffff1660e01b8152600401602060405180830381865afa158015610d48573d6000803e3d6000fd5b505050506040513d601f19601f82011682018060405250810190610d6c91906129c7565b811015610d8b5760405162461bcd60e51b81526004016107b090612a84565b6040516370a0823160e01b81526001600160a01b0384811660048301528591908416906370a0823190602401602060405180830381865afa158015610dd4573d6000803e3d6000fd5b505050506040513d601f19601f82011682018060405250810190610df891906129c7565b1015610e645760405162461bcd60e51b815260206004820152603560248201527f5374616b696e67506f6f6c3a2063616e6e6f7420756e7374616b65206d6f7265604482015274207468616e2068617665206f6e206164647265737360581b60648201526084016107b0565b604051632770a7eb60e21b81526001600160a01b03848116600483015260248201869052831690639dc29fac90604401600060405180830381600087803b158015610eae57600080fd5b505af1158015610ec2573d6000803e3d6000fd5b50505050610ed28386868461205b565b5050505050565b6000610ee483612007565b60405163e2c8344560e01b8152306004820152602481018490529091506001600160a01b0382169063e2c8344590604401600060405180830381600087803b158015610f2f57600080fd5b505af1158015610f43573d6000803e3d6000fd5b50505050505050565b60335460408051632b51dafd60e11b815290516000926001600160a01b0316916356a3b5fa9160048083019260209291908290030181865afa1580156106e0573d6000803e3d6000fd5b603360009054906101000a90046001600160a01b03166001600160a01b031663e7f43c686040518163ffffffff1660e01b8152600401602060405180830381865afa158015610fe9573d6000803e3d6000fd5b505050506040513d601f19601f8201168201806040525081019061100d91906129e0565b6001600160a01b0316336001600160a01b03161461103d5760405162461bcd60e51b81526004016107b0906129fd565b6110456121d3565b8483811415806110555750808214155b15611073576040516367af08e760e11b815260040160405180910390fd5b611086816801bc16d674ec800000612ad6565b61108e610963565b10156110ad57604051635093740560e01b815260040160405180910390fd5b6000603c60006110c28b805160209091012090565b81526020810191909152604001600020546001600160a01b03169050806110fc57604051631b355a8760e31b815260040160405180910390fd5b60005b828110156111e657816001600160a01b0316639b4e46346801bc16d674ec8000008b8b8581811061113257611132612998565b90506020028101906111449190612aed565b8b8b8781811061115657611156612998565b90506020028101906111689190612aed565b8b8b8981811061117a5761117a612998565b905060200201356040518763ffffffff1660e01b81526004016111a1959493929190612b5c565b6000604051808303818588803b1580156111ba57600080fd5b505af11580156111ce573d6000803e3d6000fd5b505050505080806111de906129ae565b9150506110ff565b50886040516111f59190612b96565b60405180910390207f82893d4437db377df0abca554a4a9ef54de226c99efe74077b214d6d3390e7dd898960405161122e929190612c67565b60405180910390a25050610f4360018055565b603360009054906101000a90046001600160a01b03166001600160a01b031663e7f43c686040518163ffffffff1660e01b8152600401602060405180830381865afa158015611294573d6000803e3d6000fd5b505050506040513d601f19601f820116820180604052508101906112b891906129e0565b6001600160a01b0316336001600160a01b0316146112e85760405162461bcd60e51b81526004016107b0906129fd565b60006112f382612007565b9050806001600160a01b031663baa7145a6040518163ffffffff1660e01b8152600401600060405180830381600087803b15801561080157600080fd5b611338610a02565b565b600061134584612007565b9050806001600160a01b031663dda3346c8484603360009054906101000a90046001600160a01b03166001600160a01b031663e7f43c686040518163ffffffff1660e01b8152600401602060405180830381865afa1580156113ab573d6000803e3d6000fd5b505050506040513d601f19601f820116820180604052508101906113cf91906129e0565b6040518463ffffffff1660e01b81526004016113ed93929190612c7b565b600060405180830381600087803b15801561140757600080fd5b505af115801561141b573d6000803e3d6000fd5b5050505050505050565b61142d610a02565b60405181907f8c355e502e4eade8ac341bcb08dcfca0ae238efe6431e5a63b75be9026d9163b90600090a250565b6114658282610c0e565b5050565b6033546040805163476c397360e11b815290516000926001600160a01b031691638ed872e69160048083019260209291908290030181865afa1580156109de573d6000803e3d6000fd5b600054610100900460ff16158080156114d35750600054600160ff909116105b806114ed5750303b1580156114ed575060005460ff166001145b6115505760405162461bcd60e51b815260206004820152602e60248201527f496e697469616c697a61626c653a20636f6e747261637420697320616c72656160448201526d191e481a5b9a5d1a585b1a5e995960921b60648201526084016107b0565b6000805460ff191660011790558015611573576000805461ff0019166101001790555b603380546001600160a01b0319166001600160a01b0385169081179091556040805163c664d38b60e01b8152905163c664d38b916004808201926020929091908290030181865afa1580156115cc573d6000803e3d6000fd5b505050506040513d601f19601f820116820180604052508101906115f091906129e0565b6001600160a01b03166384d810626040518163ffffffff1660e01b81526004016020604051808303816000875af115801561162f573d6000803e3d6000fd5b505050506040513d601f19601f8201168201806040525081019061165391906129e0565b5061165d8261222c565b80156116a3576000805461ff0019169055604051600181527f7f26b83ff96e1f2b6a682f133852f6798a09c465da95921460cefb38474024989060200160405180910390a15b505050565b6116b06121d3565b6001600160a01b0381166116d7576040516321cb944560e11b815260040160405180910390fd5b6001600160a01b0381166000908152603b60205260408120549081900361171157604051630d23170560e01b815260040160405180910390fd5b603a5447101561173457604051635093740560e01b815260040160405180910390fd5b80603a6000828254611746919061297f565b90915550506001600160a01b0382166000908152603b60205260408120819055611771838383612235565b90508061179157604051634dbb90c960e01b815260040160405180910390fd5b60405182815233906001600160a01b038516907febc6a30f46090cafd1f043241dbc148c4310b7026aae29ff950ea25a5411879b9060200160405180910390a350506117dc60018055565b50565b603360009054906101000a90046001600160a01b03166001600160a01b031663e7f43c686040518163ffffffff1660e01b8152600401602060405180830381865afa158015611832573d6000803e3d6000fd5b505050506040513d601f19601f8201168201806040525081019061185691906129e0565b6001600160a01b0316336001600160a01b0316146118865760405162461bcd60e51b81526004016107b0906129fd565b60006118c784848080601f01602080910402602001604051908101604052809392919081815260200183838082843760009201919091525061200792505050565b90506000479050816001600160a01b031663ef8cdf7c6040518163ffffffff1660e01b8152600401600060405180830381600087803b15801561190957600080fd5b505af115801561191d573d6000803e3d6000fd5b505050506000814761192f919061297f565b90508084111561195c57604051634f274ad560e11b815260048101829052602481018590526044016107b0565b60335460408051631d8cf42560e11b815290516000926001600160a01b031691633b19e84a9160048083019260209291908290030181865afa1580156119a6573d6000803e3d6000fd5b505050506040513d601f19601f820116820180604052508101906119ca91906129e0565b905084156119e0576119de81866000612235565b505b806001600160a01b0316846001600160a01b03167f2ee827557318e24ad8fdb9f616bbfd73b44656ea23439623780d719c369f0c1d8785604051611a2e929190918252602082015260400190565b60405180910390a350505050505050565b6000610704610963565b603360009054906101000a90046001600160a01b03166001600160a01b031663e7f43c686040518163ffffffff1660e01b8152600401602060405180830381865afa158015611a9c573d6000803e3d6000fd5b505050506040513d601f19601f82011682018060405250810190611ac091906129e0565b6001600160a01b0316336001600160a01b031614611af05760405162461bcd60e51b81526004016107b0906129fd565b6000611afb8a612007565b604051633f65cf1960e01b81529091506001600160a01b03821690633f65cf1990611b38908c908c908c908c908c908c908c908c90600401612db2565b600060405180830381600087803b158015611b5257600080fd5b505af1158015611b66573d6000803e3d6000fd5b5050505050505050505050505050565b603360009054906101000a90046001600160a01b03166001600160a01b031663e7f43c686040518163ffffffff1660e01b8152600401602060405180830381865afa158015611bc9573d6000803e3d6000fd5b505050506040513d601f19601f82011682018060405250810190611bed91906129e0565b6001600160a01b0316336001600160a01b031614611c1d5760405162461bcd60e51b81526004016107b0906129fd565b611c256121d3565b600060345411611c8c5760405162461bcd60e51b815260206004820152602c60248201527f5374616b696e67506f6f6c3a20444953545249425554455f4741535f4c494d4960448201526b15081a5cc81b9bdd081cd95d60a21b60648201526084016107b0565b6000611c96610963565b6035549091505b60375481108015611cae5750600082115b8015611cbb57506034545a115b15611e0457600060378281548110611cd557611cd5612998565b6000918252602082200154603980546001600160a01b0390921693509084908110611d0257611d02612998565b60009182526020909120015490506001600160a01b0382161580611d24575080155b15611d3b57611d32836129ae565b92505050611c9d565b80841015611d4a575050611e04565b6001600160a01b03821660009081526038602052604081208054839290611d7290849061297f565b925050819055508060366000828254611d8b919061297f565b90915550611d9b9050818561297f565b935060378381548110611db057611db0612998565b600091825260209091200180546001600160a01b03191690556039805484908110611ddd57611ddd612998565b6000918252602082200155611df1836129ae565b9250611dfd82826122cc565b5050611c9d565b6035555061133860018055565b603360009054906101000a90046001600160a01b03166001600160a01b031663289b3c0d6040518163ffffffff1660e01b8152600401602060405180830381865afa158015611e64573d6000803e3d6000fd5b505050506040513d601f19601f82011682018060405250810190611e8891906129e0565b6001600160a01b0316336001600160a01b031614611eb85760405162461bcd60e51b81526004016107b090612a40565b805160208201206000906000818152603c60205260409020549091506001600160a01b03168015611efc57604051638b1a6ce760e01b815260040160405180910390fd5b603360009054906101000a90046001600160a01b03166001600160a01b0316633f69e0f76040518163ffffffff1660e01b8152600401602060405180830381865afa158015611f4f573d6000803e3d6000fd5b505050506040513d601f19601f82011682018060405250810190611f7391906129e0565b6001600160a01b0316639ce953c86040518163ffffffff1660e01b81526004016020604051808303816000875af1158015611fb2573d6000803e3d6000fd5b505050506040513d601f19601f82011682018060405250810190611fd691906129e0565b6000928352603c602052604090922080546001600160a01b0319166001600160a01b03909316929092179091555050565b6000603c600061201c84805160209091012090565b81526020810191909152604001600020546001600160a01b031690508061205657604051631b355a8760e31b815260040160405180910390fd5b919050565b801580159061207257506001600160a01b03831615155b6120d05760405162461bcd60e51b815260206004820152602960248201527f4c6971756964546f6b656e5374616b696e67506f6f6c3a207a65726f20696e7060448201526875742076616c75657360b81b60648201526084016107b0565b80603660008282546120e29190612e71565b90915550506037805460018082019092557f42a7b7dd785cd69714a189dffb3fd7d7174edc9ece837694ce50f7078f7c31ae0180546001600160a01b0319166001600160a01b0386169081179091556039805492830190557fdc16fef70f8d5ddbc01ee3d903d1e69c18a3c7be080eb86a81e0578814ee58d39091018290556000908152603860205260408120805483929061217f908490612e71565b909155505060408051828152602081018490526001600160a01b0380861692908716917fe8f73d529f5ced08581a2c18456a6530dbd0dddf94d8c98e0ab8f9883e2f4482910160405180910390a350505050565b6002600154036122255760405162461bcd60e51b815260206004820152601f60248201527f5265656e7472616e637947756172643a207265656e7472616e742063616c6c0060448201526064016107b0565b6002600155565b6117dc81610870565b60008247101561225857604051635093740560e01b815260040160405180910390fd5b838215612272576000806000808785612710f1915061068f565b6040516001600160a01b038216908590600081818185875af1925050503d80600081146122bb576040519150601f19603f3d011682016040523d82523d6000602084013e6122c0565b606091505b50909695505050505050565b80603a60008282546122de9190612e71565b90915550506001600160a01b0382166000908152603b60205260408120805483929061230b908490612e71565b90915550506040518181526001600160a01b038316907ff4426c1412b22225874f3898e67e34c12ba628bff6d89fd87ba593927a80b4219060200160405180910390a25050565b6001600160a01b03811681146117dc57600080fd5b60006020828403121561237957600080fd5b813561238481612352565b9392505050565b600081518084526020808501945080840160005b838110156123bb5781518752958201959082019060010161239f565b509495945050505050565b602081526000612384602083018461238b565b634e487b7160e01b600052604160045260246000fd5b604051601f8201601f191681016001600160401b0381118282101715612417576124176123d9565b604052919050565b600082601f83011261243057600080fd5b81356001600160401b03811115612449576124496123d9565b61245c601f8201601f19166020016123ef565b81815284602083860101111561247157600080fd5b816020850160208301376000918101602001919091529392505050565b6000602082840312156124a057600080fd5b81356001600160401b038111156124b657600080fd5b6124c28482850161241f565b949350505050565b6000602082840312156124dc57600080fd5b5035919050565b600080604083850312156124f657600080fd5b823561250181612352565b946020939093013593505050565b6000806040838503121561252257600080fd5b82356001600160401b0381111561253857600080fd5b6125448582860161241f565b95602094909401359450505050565b60008083601f84011261256557600080fd5b5081356001600160401b0381111561257c57600080fd5b6020830191508360208260051b850101111561259757600080fd5b9250929050565b60008060008060008060006080888a0312156125b957600080fd5b87356001600160401b03808211156125d057600080fd5b6125dc8b838c0161241f565b985060208a01359150808211156125f257600080fd5b6125fe8b838c01612553565b909850965060408a013591508082111561261757600080fd5b6126238b838c01612553565b909650945060608a013591508082111561263c57600080fd5b506126498a828b01612553565b989b979a50959850939692959293505050565b60006001600160401b03821115612675576126756123d9565b5060051b60200190565b600082601f83011261269057600080fd5b813560206126a56126a08361265c565b6123ef565b82815260059290921b840181019181810190868411156126c457600080fd5b8286015b848110156126df57803583529183019183016126c8565b509695505050505050565b6000806000606084860312156126ff57600080fd5b83356001600160401b038082111561271657600080fd5b6127228783880161241f565b945060209150818601358181111561273957600080fd5b8601601f8101881361274a57600080fd5b80356127586126a08261265c565b81815260059190911b8201840190848101908a83111561277757600080fd5b928501925b8284101561279e57833561278f81612352565b8252928501929085019061277c565b965050505060408601359150808211156127b757600080fd5b506127c48682870161267f565b9150509250925092565b6000806000604084860312156127e357600080fd5b83356001600160401b03808211156127fa57600080fd5b818601915086601f83011261280e57600080fd5b81358181111561281d57600080fd5b87602082850101111561282f57600080fd5b6020928301989097509590910135949350505050565b80356001600160401b038116811461205657600080fd5b60006040828403121561286e57600080fd5b50919050565b600080600080600080600080600060c08a8c03121561289257600080fd5b89356001600160401b03808211156128a957600080fd5b6128b58d838e0161241f565b9a506128c360208d01612845565b995060408c01359150808211156128d957600080fd5b6128e58d838e0161285c565b985060608c01359150808211156128fb57600080fd5b6129078d838e01612553565b909850965060808c013591508082111561292057600080fd5b61292c8d838e01612553565b909650945060a08c013591508082111561294557600080fd5b506129528c828d01612553565b915080935050809150509295985092959850929598565b634e487b7160e01b600052601160045260246000fd5b8181038181111561299257612992612969565b92915050565b634e487b7160e01b600052603260045260246000fd5b6000600182016129c0576129c0612969565b5060010190565b6000602082840312156129d957600080fd5b5051919050565b6000602082840312156129f257600080fd5b815161238481612352565b60208082526023908201527f5374616b696e67506f6f6c3a206f6e6c7920636f6e73656e73757320616c6c6f6040820152621dd95960ea1b606082015260800190565b60208082526024908201527f5374616b696e67506f6f6c3a206f6e6c7920676f7665726e616e636520616c6c6040820152631bddd95960e21b606082015260800190565b60208082526032908201527f5374616b696e67506f6f6c3a2076616c7565206d757374206265206772656174604082015271195c881d1a185b881b5a5b88185b5bdd5b9d60721b606082015260800190565b808202811582820484141761299257612992612969565b6000808335601e19843603018112612b0457600080fd5b8301803591506001600160401b03821115612b1e57600080fd5b60200191503681900382131561259757600080fd5b81835281816020850137506000828201602090810191909152601f909101601f19169091010190565b606081526000612b70606083018789612b33565b8281036020840152612b83818688612b33565b9150508260408301529695505050505050565b6000825160005b81811015612bb75760208186018101518583015201612b9d565b506000920191825250919050565b6000808335601e19843603018112612bdc57600080fd5b83016020810192503590506001600160401b03811115612bfb57600080fd5b80360382131561259757600080fd5b81835260006020808501808196508560051b810191508460005b87811015612c5a578284038952612c3b8288612bc5565b612c46868284612b33565b9a87019a9550505090840190600101612c24565b5091979650505050505050565b6020815260006124c2602083018486612c0a565b606080825284519082018190526000906020906080840190828801845b82811015612cbd5781516001600160a01b031684529284019290840190600101612c98565b50505083810382850152612cd1818761238b565b9250505060018060a01b0383166040830152949350505050565b81835260006001600160fb1b03831115612d0457600080fd5b8260051b80836020870137939093016020019392505050565b81835260006020808501808196506005915085821b81018560005b88811015612da4578383038a528135601e19893603018112612d5957600080fd5b880186810190356001600160401b03811115612d7457600080fd5b80871b3603821315612d8557600080fd5b612d90858284612ceb565b9b88019b9450505090850190600101612d38565b509098975050505050505050565b6001600160401b03891681526000602060a081840152893560a0840152612ddb818b018b612bc5565b604060c0860152612df060e086018284612b33565b85810360408701528a81528b9250830190506000805b8b811015612e3657833564ffffffffff8116808214612e23578384fd5b8452509284019291840191600101612e06565b50508481036060860152612e4b81898b612c0a565b925050508281036080840152612e62818587612d1d565b9b9a5050505050505050505050565b808201808211156129925761299261296956fea2646970667358221220e42629b74d8ac9290f4159371851837606e026fca045e77817db5f5f3362acdd64736f6c63430008140033",
  "devdoc": {
    "errors": {
      "PoolFailedInnerCall()": [
        {
          "details": "A call to an address target failed. The target may have reverted."
        }
      ]
    },
    "events": {
      "Initialized(uint8)": {
        "details": "Triggered when the contract has been initialized or reinitialized."
      },
      "RewardsDistributed(address[],uint256[])": {
        "details": "Deprecated."
      }
    },
    "kind": "dev",
    "methods": {
      "getCert()": {
        "returns": {
          "_0": "Certificate token address"
        }
      },
      "getFreeBalance()": {
        "details": "Deprecated."
      },
      "stakeCerts()": {
        "details": "Deprecated."
      },
      "unstakeCerts(address,uint256)": {
        "details": "Deprecated."
      }
    },
    "stateVariables": {
      "_stakingConfig": {
        "details": "external contracts"
      }
    },
    "version": 1
  },
  "userdoc": {
    "kind": "user",
    "methods": {},
    "version": 1
  },
  "storageLayout": {
    "storage": [
      {
        "astId": 139,
        "contract": "contracts/StakingPool.sol:StakingPool",
        "label": "_initialized",
        "offset": 0,
        "slot": "0",
        "type": "t_uint8"
      },
      {
        "astId": 142,
        "contract": "contracts/StakingPool.sol:StakingPool",
        "label": "_initializing",
        "offset": 1,
        "slot": "0",
        "type": "t_bool"
      },
      {
        "astId": 316,
        "contract": "contracts/StakingPool.sol:StakingPool",
        "label": "_status",
        "offset": 0,
        "slot": "1",
        "type": "t_uint256"
      },
      {
        "astId": 385,
        "contract": "contracts/StakingPool.sol:StakingPool",
        "label": "__gap",
        "offset": 0,
        "slot": "2",
        "type": "t_array(t_uint256)49_storage"
      },
      {
        "astId": 5830,
        "contract": "contracts/StakingPool.sol:StakingPool",
        "label": "_stakingConfig",
        "offset": 0,
        "slot": "51",
        "type": "t_contract(IStakingConfig)8683"
      },
      {
        "astId": 5832,
        "contract": "contracts/StakingPool.sol:StakingPool",
        "label": "_distributeGasLimit",
        "offset": 0,
        "slot": "52",
        "type": "t_uint256"
      },
      {
        "astId": 5834,
        "contract": "contracts/StakingPool.sol:StakingPool",
        "label": "_pendingGap",
        "offset": 0,
        "slot": "53",
        "type": "t_uint256"
      },
      {
        "astId": 5836,
        "contract": "contracts/StakingPool.sol:StakingPool",
        "label": "_pendingTotalUnstakes",
        "offset": 0,
        "slot": "54",
        "type": "t_uint256"
      },
      {
        "astId": 5839,
        "contract": "contracts/StakingPool.sol:StakingPool",
        "label": "_pendingClaimers",
        "offset": 0,
        "slot": "55",
        "type": "t_array(t_address)dyn_storage"
      },
      {
        "astId": 5843,
        "contract": "contracts/StakingPool.sol:StakingPool",
        "label": "_pendingClaimerUnstakes",
        "offset": 0,
        "slot": "56",
        "type": "t_mapping(t_address,t_uint256)"
      },
      {
        "astId": 5846,
        "contract": "contracts/StakingPool.sol:StakingPool",
        "label": "_pendingRequests",
        "offset": 0,
        "slot": "57",
        "type": "t_array(t_uint256)dyn_storage"
      },
      {
        "astId": 5848,
        "contract": "contracts/StakingPool.sol:StakingPool",
        "label": "_totalClaimable",
        "offset": 0,
        "slot": "58",
        "type": "t_uint256"
      },
      {
        "astId": 5852,
        "contract": "contracts/StakingPool.sol:StakingPool",
        "label": "_claimable",
        "offset": 0,
        "slot": "59",
        "type": "t_mapping(t_address,t_uint256)"
      },
      {
        "astId": 5856,
        "contract": "contracts/StakingPool.sol:StakingPool",
        "label": "_restakers",
        "offset": 0,
        "slot": "60",
        "type": "t_mapping(t_bytes32,t_address)"
      },
      {
        "astId": 5862,
        "contract": "contracts/StakingPool.sol:StakingPool",
        "label": "__reserved",
        "offset": 0,
        "slot": "61",
        "type": "t_array(t_uint256)42_storage"
      }
    ],
    "types": {
      "t_address": {
        "encoding": "inplace",
        "label": "address",
        "numberOfBytes": "20"
      },
      "t_array(t_address)dyn_storage": {
        "base": "t_address",
        "encoding": "dynamic_array",
        "label": "address[]",
        "numberOfBytes": "32"
      },
      "t_array(t_uint256)42_storage": {
        "base": "t_uint256",
        "encoding": "inplace",
        "label": "uint256[42]",
        "numberOfBytes": "1344"
      },
      "t_array(t_uint256)49_storage": {
        "base": "t_uint256",
        "encoding": "inplace",
        "label": "uint256[49]",
        "numberOfBytes": "1568"
      },
      "t_array(t_uint256)dyn_storage": {
        "base": "t_uint256",
        "encoding": "dynamic_array",
        "label": "uint256[]",
        "numberOfBytes": "32"
      },
      "t_bool": {
        "encoding": "inplace",
        "label": "bool",
        "numberOfBytes": "1"
      },
      "t_bytes32": {
        "encoding": "inplace",
        "label": "bytes32",
        "numberOfBytes": "32"
      },
      "t_contract(IStakingConfig)8683": {
        "encoding": "inplace",
        "label": "contract IStakingConfig",
        "numberOfBytes": "20"
      },
      "t_mapping(t_address,t_uint256)": {
        "encoding": "mapping",
        "key": "t_address",
        "label": "mapping(address => uint256)",
        "numberOfBytes": "32",
        "value": "t_uint256"
      },
      "t_mapping(t_bytes32,t_address)": {
        "encoding": "mapping",
        "key": "t_bytes32",
        "label": "mapping(bytes32 => address)",
        "numberOfBytes": "32",
        "value": "t_address"
      },
      "t_uint256": {
        "encoding": "inplace",
        "label": "uint256",
        "numberOfBytes": "32"
      },
      "t_uint8": {
        "encoding": "inplace",
        "label": "uint8",
        "numberOfBytes": "1"
      }
    }
  }
}