{
  "address": "0x395713db54EE42e4a5188849058244CDE28D7ddc",
  "abi": [
    {
      "anonymous": false,
      "inputs": [
        {
          "indexed": false,
          "internalType": "uint256",
          "name": "prevValue",
          "type": "uint256"
        },
        {
          "indexed": false,
          "internalType": "uint256",
          "name": "newValue",
          "type": "uint256"
        }
      ],
      "name": "DistributeGasLimitChanged",
      "type": "event"
    },
    {
      "anonymous": false,
      "inputs": [
        {
          "indexed": false,
          "internalType": "uint8",
          "name": "version",
          "type": "uint8"
        }
      ],
      "name": "Initialized",
      "type": "event"
    },
    {
      "anonymous": false,
      "inputs": [
        {
          "indexed": true,
          "internalType": "address",
          "name": "ownerAddress",
          "type": "address"
        },
        {
          "indexed": true,
          "internalType": "address",
          "name": "receiverAddress",
          "type": "address"
        },
        {
          "indexed": false,
          "internalType": "uint256",
          "name": "amount",
          "type": "uint256"
        },
        {
          "indexed": false,
          "internalType": "uint256",
          "name": "shares",
          "type": "uint256"
        }
      ],
      "name": "PendingUnstake",
      "type": "event"
    },
    {
      "anonymous": false,
      "inputs": [
        {
          "indexed": false,
          "internalType": "bytes",
          "name": "pubkey",
          "type": "bytes"
        }
      ],
      "name": "PoolOnGoing",
      "type": "event"
    },
    {
      "anonymous": false,
      "inputs": [
        {
          "indexed": true,
          "internalType": "address",
          "name": "from",
          "type": "address"
        },
        {
          "indexed": false,
          "internalType": "uint256",
          "name": "value",
          "type": "uint256"
        }
      ],
      "name": "Received",
      "type": "event"
    },
    {
      "anonymous": false,
      "inputs": [
        {
          "indexed": true,
          "internalType": "address",
          "name": "staker",
          "type": "address"
        },
        {
          "indexed": false,
          "internalType": "uint256",
          "name": "amount",
          "type": "uint256"
        },
        {
          "indexed": false,
          "internalType": "uint256",
          "name": "shares",
          "type": "uint256"
        }
      ],
      "name": "Staked",
      "type": "event"
    },
    {
      "inputs": [],
      "name": "getCert",
      "outputs": [
        {
          "internalType": "address",
          "name": "",
          "type": "address"
        }
      ],
      "stateMutability": "view",
      "type": "function"
    },
    {
      "inputs": [],
      "name": "getDistributeGasLimit",
      "outputs": [
        {
          "internalType": "uint256",
          "name": "",
          "type": "uint256"
        }
      ],
      "stateMutability": "view",
      "type": "function"
    },
    {
      "inputs": [],
      "name": "getEigenPodManager",
      "outputs": [
        {
          "internalType": "address",
          "name": "",
          "type": "address"
        }
      ],
      "stateMutability": "view",
      "type": "function"
    },
    {
      "inputs": [],
      "name": "getFreeBalance",
      "outputs": [
        {
          "internalType": "uint256",
          "name": "",
          "type": "uint256"
        }
      ],
      "stateMutability": "view",
      "type": "function"
    },
    {
      "inputs": [],
      "name": "getMinStake",
      "outputs": [
        {
          "internalType": "uint256",
          "name": "",
          "type": "uint256"
        }
      ],
      "stateMutability": "view",
      "type": "function"
    },
    {
      "inputs": [],
      "name": "getMinUnstake",
      "outputs": [
        {
          "internalType": "uint256",
          "name": "",
          "type": "uint256"
        }
      ],
      "stateMutability": "view",
      "type": "function"
    },
    {
      "inputs": [
        {
          "internalType": "address",
          "name": "claimer",
          "type": "address"
        }
      ],
      "name": "getPendingRequestsOf",
      "outputs": [
        {
          "internalType": "uint256[]",
          "name": "",
          "type": "uint256[]"
        }
      ],
      "stateMutability": "view",
      "type": "function"
    },
    {
      "inputs": [
        {
          "internalType": "address",
          "name": "claimer",
          "type": "address"
        }
      ],
      "name": "getPendingUnstakesOf",
      "outputs": [
        {
          "internalType": "uint256",
          "name": "",
          "type": "uint256"
        }
      ],
      "stateMutability": "view",
      "type": "function"
    },
    {
      "inputs": [],
      "name": "getTotalPendingUnstakes",
      "outputs": [
        {
          "internalType": "uint256",
          "name": "",
          "type": "uint256"
        }
      ],
      "stateMutability": "view",
      "type": "function"
    },
    {
      "inputs": [
        {
          "internalType": "contract IStakingConfig",
          "name": "stakingConfig",
          "type": "address"
        },
        {
          "internalType": "uint256",
          "name": "distributeGasLimit",
          "type": "uint256"
        }
      ],
      "name": "initialize",
      "outputs": [],
      "stateMutability": "nonpayable",
      "type": "function"
    },
    {
      "inputs": [
        {
          "internalType": "bytes",
          "name": "pubkey",
          "type": "bytes"
        },
        {
          "internalType": "bytes",
          "name": "signature",
          "type": "bytes"
        },
        {
          "internalType": "bytes32",
          "name": "deposit_data_root",
          "type": "bytes32"
        }
      ],
      "name": "pushToBeacon",
      "outputs": [],
      "stateMutability": "nonpayable",
      "type": "function"
    },
    {
      "inputs": [
        {
          "internalType": "bytes[]",
          "name": "pubkeys",
          "type": "bytes[]"
        },
        {
          "internalType": "bytes[]",
          "name": "signatures",
          "type": "bytes[]"
        },
        {
          "internalType": "bytes32[]",
          "name": "deposit_data_roots",
          "type": "bytes32[]"
        }
      ],
      "name": "pushToBeaconMulti",
      "outputs": [],
      "stateMutability": "nonpayable",
      "type": "function"
    },
    {
      "inputs": [
        {
          "internalType": "uint256",
          "name": "newValue",
          "type": "uint256"
        }
      ],
      "name": "setDistributeGasLimit",
      "outputs": [],
      "stateMutability": "nonpayable",
      "type": "function"
    },
    {
      "inputs": [],
      "name": "stakeCerts",
      "outputs": [],
      "stateMutability": "payable",
      "type": "function"
    },
    {
      "inputs": [
        {
          "internalType": "address",
          "name": "receiverAddress",
          "type": "address"
        },
        {
          "internalType": "uint256",
          "name": "shares",
          "type": "uint256"
        }
      ],
      "name": "unstakeCerts",
      "outputs": [],
      "stateMutability": "nonpayable",
      "type": "function"
    }
  ],
  "transactionHash": "0xf024529ae96de456d55cb6d5fdd6ff1fe50ffec9f40de0564025893fcb3eb68a",
  "args": [],
  "numDeployments": 1,
  "solcInputHash": "b14c316a4425235a5dcd9a91947d67f7",
  "bytecode": "0x608060405234801561001057600080fd5b50611951806100206000396000f3fe6080604052600436106100e85760003560e01c806356a3b5fa1161008a578063c664d38b11610059578063c664d38b1461025d578063cd6dc68714610272578063d0652e4214610292578063e93c4f15146102a757600080fd5b806356a3b5fa14610200578063ac76d45014610215578063afbcc4481461021d578063be9631e81461023d57600080fd5b8063126d5df6116100c6578063126d5df614610168578063183cdf241461017d578063409cb613146101aa57806346faa33c146101ca57600080fd5b806301ff923c146100ed578063034c445414610123578063042fc3a614610146575b600080fd5b3480156100f957600080fd5b5061010d6101083660046114a3565b6102ba565b60405161011a91906114c7565b60405180910390f35b34801561012f57600080fd5b506101386103d8565b60405190815260200161011a565b34801561015257600080fd5b5061016661016136600461150b565b61044a565b005b34801561017457600080fd5b50603654610138565b34801561018957600080fd5b50610192610577565b6040516001600160a01b03909116815260200161011a565b3480156101b657600080fd5b506101666101c5366004611524565b6105e5565b3480156101d657600080fd5b506101386101e53660046114a3565b6001600160a01b031660009081526038602052604090205490565b34801561020c57600080fd5b506101386108ad565b6101666108f7565b34801561022957600080fd5b5061016661023836600461159c565b610b14565b34801561024957600080fd5b50610166610258366004611678565b610e33565b34801561026957600080fd5b5061019261104b565b34801561027e57600080fd5b5061016661028d366004611524565b611095565b34801561029e57600080fd5b50603454610138565b3480156102b357600080fd5b5047610138565b60355460375460609160009182916102d191611702565b67ffffffffffffffff8111156102e9576102e961171b565b604051908082528060200260200182016040528015610312578160200160208202803683370190505b506035549091505b6037548110156103b457846001600160a01b03166037828154811061034157610341611731565b6000918252602090912001546001600160a01b0316036103a2576039818154811061036e5761036e611731565b906000526020600020015482848151811061038b5761038b611731565b602090810291909101015261039f83611747565b92505b806103ac81611747565b91505061031a565b5060008282516103c49190611702565b905080156103d0578282525b509392505050565b6033546040805162d3111560e21b815290516000926001600160a01b03169163034c44549160048083019260209291908290030181865afa158015610421573d6000803e3d6000fd5b505050506040513d601f19601f820116820180604052508101906104459190611760565b905090565b603360009054906101000a90046001600160a01b03166001600160a01b031663732524946040518163ffffffff1660e01b8152600401602060405180830381865afa15801561049d573d6000803e3d6000fd5b505050506040513d601f19601f820116820180604052508101906104c19190611779565b6001600160a01b0316336001600160a01b0316146105325760405162461bcd60e51b8152602060048201526024808201527f5374616b696e67506f6f6c3a206f6e6c7920676f7665726e616e636520616c6c6044820152631bddd95960e21b60648201526084015b60405180910390fd5b603480549082905560408051828152602081018490527f3bb2da990d30b0bc98e39d632b60814d66b3bae55947927dec7a75719de577de910160405180910390a15050565b60335460408051635eaad42760e11b815290516000926001600160a01b03169163bd55a84e9160048083019260209291908290030181865afa1580156105c1573d6000803e3d6000fd5b505050506040513d601f19601f820116820180604052508101906104459190611779565b60335460408051635eaad42760e11b8152905133926000926001600160a01b039091169163bd55a84e916004808201926020929091908290030181865afa158015610634573d6000803e3d6000fd5b505050506040513d601f19601f820116820180604052508101906106589190611779565b604051636c58d43d60e01b8152600481018590529091506000906001600160a01b03831690636c58d43d90602401602060405180830381865afa1580156106a3573d6000803e3d6000fd5b505050506040513d601f19601f820116820180604052508101906106c79190611760565b9050603360009054906101000a90046001600160a01b03166001600160a01b031663034c44546040518163ffffffff1660e01b8152600401602060405180830381865afa15801561071c573d6000803e3d6000fd5b505050506040513d601f19601f820116820180604052508101906107409190611760565b81101561075f5760405162461bcd60e51b815260040161052990611796565b6040516370a0823160e01b81526001600160a01b0384811660048301528591908416906370a0823190602401602060405180830381865afa1580156107a8573d6000803e3d6000fd5b505050506040513d601f19601f820116820180604052508101906107cc9190611760565b10156108385760405162461bcd60e51b815260206004820152603560248201527f5374616b696e67506f6f6c3a2063616e6e6f7420756e7374616b65206d6f7265604482015274207468616e2068617665206f6e206164647265737360581b6064820152608401610529565b604051632770a7eb60e21b81526001600160a01b03848116600483015260248201869052831690639dc29fac90604401600060405180830381600087803b15801561088257600080fd5b505af1158015610896573d6000803e3d6000fd5b505050506108a683868684611278565b5050505050565b60335460408051632b51dafd60e11b815290516000926001600160a01b0316916356a3b5fa9160048083019260209291908290030181865afa158015610421573d6000803e3d6000fd5b6108ff6113f0565b60335460408051632b51dafd60e11b8152905134926001600160a01b0316916356a3b5fa9160048083019260209291908290030181865afa158015610948573d6000803e3d6000fd5b505050506040513d601f19601f8201168201806040525081019061096c9190611760565b81101561098b5760405162461bcd60e51b815260040161052990611796565b60335460408051635eaad42760e11b815290516000926001600160a01b03169163bd55a84e9160048083019260209291908290030181865afa1580156109d5573d6000803e3d6000fd5b505050506040513d601f19601f820116820180604052508101906109f99190611779565b604051635361637360e01b8152600481018490529091506000906001600160a01b03831690635361637390602401602060405180830381865afa158015610a44573d6000803e3d6000fd5b505050506040513d601f19601f82011682018060405250810190610a689190611760565b6040516340c10f1960e01b8152336004820152602481018290529091506001600160a01b038316906340c10f1990604401600060405180830381600087803b158015610ab357600080fd5b505af1158015610ac7573d6000803e3d6000fd5b505060408051868152602081018590523393507f1449c6dd7851abc30abf37f57715f492010519147cc2652fbc38202c18a6ee9092500160405180910390a2505050610b1260018055565b565b603360009054906101000a90046001600160a01b03166001600160a01b0316632ec338ba6040518163ffffffff1660e01b8152600401602060405180830381865afa158015610b67573d6000803e3d6000fd5b505050506040513d601f19601f82011682018060405250810190610b8b9190611779565b6001600160a01b0316336001600160a01b031614610bbb5760405162461bcd60e51b8152600401610529906117e8565b848381148015610bca57508382145b610c205760405162461bcd60e51b815260206004820152602160248201527f5374616b696e67506f6f6c3a206c656e67746820617265206e6f7420657175616044820152601b60fa1b6064820152608401610529565b610c33816801bc16d674ec80000061182b565b471015610c7e5760405162461bcd60e51b81526020600482015260196024820152780e0cadcc8d2dcce40cae8d0cae4e640dcdee840cadcdeeaced603b1b6044820152606401610529565b6033546040805163476c397360e11b815290516000926001600160a01b031691638ed872e69160048083019260209291908290030181865afa158015610cc8573d6000803e3d6000fd5b505050506040513d601f19601f82011682018060405250810190610cec9190611779565b905060005b82811015610e2857816001600160a01b0316639b4e46348a8a84818110610d1a57610d1a611731565b9050602002810190610d2c9190611842565b8a8a86818110610d3e57610d3e611731565b9050602002810190610d509190611842565b8a8a88818110610d6257610d62611731565b905060200201356040518663ffffffff1660e01b8152600401610d899594939291906118b2565b600060405180830381600087803b158015610da357600080fd5b505af1158015610db7573d6000803e3d6000fd5b505050507f09bfa94ea4cf30558b9b9914b0029f04369c211b0e1f965f9fa7a29536b300df898983818110610dee57610dee611731565b9050602002810190610e009190611842565b604051610e0e9291906118ec565b60405180910390a180610e2081611747565b915050610cf1565b505050505050505050565b603360009054906101000a90046001600160a01b03166001600160a01b0316632ec338ba6040518163ffffffff1660e01b8152600401602060405180830381865afa158015610e86573d6000803e3d6000fd5b505050506040513d601f19601f82011682018060405250810190610eaa9190611779565b6001600160a01b0316336001600160a01b031614610eda5760405162461bcd60e51b8152600401610529906117e8565b6801bc16d674ec800000471015610f2f5760405162461bcd60e51b81526020600482015260196024820152780e0cadcc8d2dcce40cae8d0cae4e640dcdee840cadcdeeaced603b1b6044820152606401610529565b603360009054906101000a90046001600160a01b03166001600160a01b0316638ed872e66040518163ffffffff1660e01b8152600401602060405180830381865afa158015610f82573d6000803e3d6000fd5b505050506040513d601f19601f82011682018060405250810190610fa69190611779565b6001600160a01b0316639b4e463486868686866040518663ffffffff1660e01b8152600401610fd99594939291906118b2565b600060405180830381600087803b158015610ff357600080fd5b505af1158015611007573d6000803e3d6000fd5b505050507f09bfa94ea4cf30558b9b9914b0029f04369c211b0e1f965f9fa7a29536b300df858560405161103c9291906118ec565b60405180910390a15050505050565b6033546040805163476c397360e11b815290516000926001600160a01b031691638ed872e69160048083019260209291908290030181865afa1580156105c1573d6000803e3d6000fd5b600054610100900460ff16158080156110b55750600054600160ff909116105b806110cf5750303b1580156110cf575060005460ff166001145b6111325760405162461bcd60e51b815260206004820152602e60248201527f496e697469616c697a61626c653a20636f6e747261637420697320616c72656160448201526d191e481a5b9a5d1a585b1a5e995960921b6064820152608401610529565b6000805460ff191660011790558015611155576000805461ff0019166101001790555b603380546001600160a01b0319166001600160a01b0385169081179091556040805163476c397360e11b81529051638ed872e6916004808201926020929091908290030181865afa1580156111ae573d6000803e3d6000fd5b505050506040513d601f19601f820116820180604052508101906111d29190611779565b6001600160a01b03166384d810626040518163ffffffff1660e01b8152600401600060405180830381600087803b15801561120c57600080fd5b505af1158015611220573d6000803e3d6000fd5b5050505061122d82611449565b8015611273576000805461ff0019169055604051600181527f7f26b83ff96e1f2b6a682f133852f6798a09c465da95921460cefb38474024989060200160405180910390a15b505050565b801580159061128f57506001600160a01b03831615155b6112ed5760405162461bcd60e51b815260206004820152602960248201527f4c6971756964546f6b656e5374616b696e67506f6f6c3a207a65726f20696e7060448201526875742076616c75657360b81b6064820152608401610529565b80603660008282546112ff9190611908565b90915550506037805460018082019092557f42a7b7dd785cd69714a189dffb3fd7d7174edc9ece837694ce50f7078f7c31ae0180546001600160a01b0319166001600160a01b0386169081179091556039805492830190557fdc16fef70f8d5ddbc01ee3d903d1e69c18a3c7be080eb86a81e0578814ee58d39091018290556000908152603860205260408120805483929061139c908490611908565b909155505060408051828152602081018490526001600160a01b0380861692908716917fe8f73d529f5ced08581a2c18456a6530dbd0dddf94d8c98e0ab8f9883e2f4482910160405180910390a350505050565b6002600154036114425760405162461bcd60e51b815260206004820152601f60248201527f5265656e7472616e637947756172643a207265656e7472616e742063616c6c006044820152606401610529565b6002600155565b60348190556040805160008152602081018390527f3bb2da990d30b0bc98e39d632b60814d66b3bae55947927dec7a75719de577de910160405180910390a150565b6001600160a01b03811681146114a057600080fd5b50565b6000602082840312156114b557600080fd5b81356114c08161148b565b9392505050565b6020808252825182820181905260009190848201906040850190845b818110156114ff578351835292840192918401916001016114e3565b50909695505050505050565b60006020828403121561151d57600080fd5b5035919050565b6000806040838503121561153757600080fd5b82356115428161148b565b946020939093013593505050565b60008083601f84011261156257600080fd5b50813567ffffffffffffffff81111561157a57600080fd5b6020830191508360208260051b850101111561159557600080fd5b9250929050565b600080600080600080606087890312156115b557600080fd5b863567ffffffffffffffff808211156115cd57600080fd5b6115d98a838b01611550565b909850965060208901359150808211156115f257600080fd5b6115fe8a838b01611550565b9096509450604089013591508082111561161757600080fd5b5061162489828a01611550565b979a9699509497509295939492505050565b60008083601f84011261164857600080fd5b50813567ffffffffffffffff81111561166057600080fd5b60208301915083602082850101111561159557600080fd5b60008060008060006060868803121561169057600080fd5b853567ffffffffffffffff808211156116a857600080fd5b6116b489838a01611636565b909750955060208801359150808211156116cd57600080fd5b506116da88828901611636565b96999598509660400135949350505050565b634e487b7160e01b600052601160045260246000fd5b81810381811115611715576117156116ec565b92915050565b634e487b7160e01b600052604160045260246000fd5b634e487b7160e01b600052603260045260246000fd5b600060018201611759576117596116ec565b5060010190565b60006020828403121561177257600080fd5b5051919050565b60006020828403121561178b57600080fd5b81516114c08161148b565b60208082526032908201527f5374616b696e67506f6f6c3a2076616c7565206d757374206265206772656174604082015271195c881d1a185b881b5a5b88185b5bdd5b9d60721b606082015260800190565b60208082526023908201527f5374616b696e67506f6f6c3a206f6e6c7920636f6e73656e73757320616c6c6f6040820152621dd95960ea1b606082015260800190565b8082028115828204841417611715576117156116ec565b6000808335601e1984360301811261185957600080fd5b83018035915067ffffffffffffffff82111561187457600080fd5b60200191503681900382131561159557600080fd5b81835281816020850137506000828201602090810191909152601f909101601f19169091010190565b6060815260006118c6606083018789611889565b82810360208401526118d9818688611889565b9150508260408301529695505050505050565b602081526000611900602083018486611889565b949350505050565b80820180821115611715576117156116ec56fea264697066735822122020476b22e7dd72ec8525cebd3c740bec4c5d2d48316179f26c71f4d8b70a622e64736f6c63430008130033",
  "devdoc": {
    "events": {
      "Initialized(uint8)": {
        "details": "Triggered when the contract has been initialized or reinitialized."
      }
    },
    "kind": "dev",
    "methods": {
      "getCert()": {
        "returns": {
          "_0": "Certificate token address"
        }
      },
      "unstakeCerts(address,uint256)": {
        "params": {
          "receiverAddress": "address for receiving unstaked funds",
          "shares": "amount of certificate token to unstake"
        }
      }
    },
    "stateVariables": {
      "_stakingConfig": {
        "details": "external contracts"
      }
    },
    "version": 1
  },
  "userdoc": {
    "kind": "user",
    "methods": {
      "unstakeCerts(address,uint256)": {
        "notice": "Burns amount of certificate from msg.senderReturns native token immediately or via queue"
      }
    },
    "version": 1
  },
  "storageLayout": {
    "storage": [
      {
        "astId": 138,
        "contract": "contracts/StakingPool.sol:StakingPool",
        "label": "_initialized",
        "offset": 0,
        "slot": "0",
        "type": "t_uint8"
      },
      {
        "astId": 141,
        "contract": "contracts/StakingPool.sol:StakingPool",
        "label": "_initializing",
        "offset": 1,
        "slot": "0",
        "type": "t_bool"
      },
      {
        "astId": 314,
        "contract": "contracts/StakingPool.sol:StakingPool",
        "label": "_status",
        "offset": 0,
        "slot": "1",
        "type": "t_uint256"
      },
      {
        "astId": 383,
        "contract": "contracts/StakingPool.sol:StakingPool",
        "label": "__gap",
        "offset": 0,
        "slot": "2",
        "type": "t_array(t_uint256)49_storage"
      },
      {
        "astId": 3622,
        "contract": "contracts/StakingPool.sol:StakingPool",
        "label": "_stakingConfig",
        "offset": 0,
        "slot": "51",
        "type": "t_contract(IStakingConfig)4460"
      },
      {
        "astId": 3624,
        "contract": "contracts/StakingPool.sol:StakingPool",
        "label": "_DISTRIBUTE_GAS_LIMIT",
        "offset": 0,
        "slot": "52",
        "type": "t_uint256"
      },
      {
        "astId": 3626,
        "contract": "contracts/StakingPool.sol:StakingPool",
        "label": "_pendingGap",
        "offset": 0,
        "slot": "53",
        "type": "t_uint256"
      },
      {
        "astId": 3628,
        "contract": "contracts/StakingPool.sol:StakingPool",
        "label": "_pendingTotalUnstakes",
        "offset": 0,
        "slot": "54",
        "type": "t_uint256"
      },
      {
        "astId": 3631,
        "contract": "contracts/StakingPool.sol:StakingPool",
        "label": "_pendingClaimers",
        "offset": 0,
        "slot": "55",
        "type": "t_array(t_address)dyn_storage"
      },
      {
        "astId": 3635,
        "contract": "contracts/StakingPool.sol:StakingPool",
        "label": "_pendingClaimerUnstakes",
        "offset": 0,
        "slot": "56",
        "type": "t_mapping(t_address,t_uint256)"
      },
      {
        "astId": 3638,
        "contract": "contracts/StakingPool.sol:StakingPool",
        "label": "_pendingRequests",
        "offset": 0,
        "slot": "57",
        "type": "t_array(t_uint256)dyn_storage"
      },
      {
        "astId": 3644,
        "contract": "contracts/StakingPool.sol:StakingPool",
        "label": "__reserved",
        "offset": 0,
        "slot": "58",
        "type": "t_array(t_uint256)45_storage"
      }
    ],
    "types": {
      "t_address": {
        "encoding": "inplace",
        "label": "address",
        "numberOfBytes": "20"
      },
      "t_array(t_address)dyn_storage": {
        "base": "t_address",
        "encoding": "dynamic_array",
        "label": "address[]",
        "numberOfBytes": "32"
      },
      "t_array(t_uint256)45_storage": {
        "base": "t_uint256",
        "encoding": "inplace",
        "label": "uint256[45]",
        "numberOfBytes": "1440"
      },
      "t_array(t_uint256)49_storage": {
        "base": "t_uint256",
        "encoding": "inplace",
        "label": "uint256[49]",
        "numberOfBytes": "1568"
      },
      "t_array(t_uint256)dyn_storage": {
        "base": "t_uint256",
        "encoding": "dynamic_array",
        "label": "uint256[]",
        "numberOfBytes": "32"
      },
      "t_bool": {
        "encoding": "inplace",
        "label": "bool",
        "numberOfBytes": "1"
      },
      "t_contract(IStakingConfig)4460": {
        "encoding": "inplace",
        "label": "contract IStakingConfig",
        "numberOfBytes": "20"
      },
      "t_mapping(t_address,t_uint256)": {
        "encoding": "mapping",
        "key": "t_address",
        "label": "mapping(address => uint256)",
        "numberOfBytes": "32",
        "value": "t_uint256"
      },
      "t_uint256": {
        "encoding": "inplace",
        "label": "uint256",
        "numberOfBytes": "32"
      },
      "t_uint8": {
        "encoding": "inplace",
        "label": "uint8",
        "numberOfBytes": "1"
      }
    }
  }
}