{
  "address": "0x1D891A01D40E60852F984ca35c1f26041A5a70a6",
  "abi": [
    {
      "anonymous": false,
      "inputs": [
        {
          "indexed": false,
          "internalType": "uint8",
          "name": "version",
          "type": "uint8"
        }
      ],
      "name": "Initialized",
      "type": "event"
    },
    {
      "anonymous": false,
      "inputs": [
        {
          "indexed": false,
          "internalType": "address",
          "name": "operator",
          "type": "address"
        }
      ],
      "name": "OperatorAdded",
      "type": "event"
    },
    {
      "anonymous": false,
      "inputs": [
        {
          "indexed": false,
          "internalType": "address",
          "name": "operator",
          "type": "address"
        }
      ],
      "name": "OperatorRemoved",
      "type": "event"
    },
    {
      "anonymous": false,
      "inputs": [
        {
          "indexed": true,
          "internalType": "address",
          "name": "tokenAddress",
          "type": "address"
        },
        {
          "indexed": false,
          "internalType": "uint256",
          "name": "failedRatio",
          "type": "uint256"
        },
        {
          "indexed": false,
          "internalType": "string",
          "name": "reason",
          "type": "string"
        }
      ],
      "name": "RatioNotUpdated",
      "type": "event"
    },
    {
      "anonymous": false,
      "inputs": [
        {
          "indexed": false,
          "internalType": "uint256",
          "name": "oldValue",
          "type": "uint256"
        },
        {
          "indexed": false,
          "internalType": "uint256",
          "name": "newValue",
          "type": "uint256"
        }
      ],
      "name": "RatioThresholdChanged",
      "type": "event"
    },
    {
      "anonymous": false,
      "inputs": [
        {
          "indexed": true,
          "internalType": "address",
          "name": "tokenAddress",
          "type": "address"
        },
        {
          "indexed": false,
          "internalType": "uint256",
          "name": "oldRatio",
          "type": "uint256"
        },
        {
          "indexed": false,
          "internalType": "uint256",
          "name": "newRatio",
          "type": "uint256"
        }
      ],
      "name": "RatioUpdated",
      "type": "event"
    },
    {
      "inputs": [],
      "name": "MAX_THRESHOLD",
      "outputs": [
        {
          "internalType": "uint32",
          "name": "",
          "type": "uint32"
        }
      ],
      "stateMutability": "view",
      "type": "function"
    },
    {
      "inputs": [
        {
          "internalType": "address",
          "name": "addr",
          "type": "address"
        },
        {
          "internalType": "uint256",
          "name": "day",
          "type": "uint256"
        }
      ],
      "name": "averagePercentageRate",
      "outputs": [
        {
          "internalType": "uint256",
          "name": "",
          "type": "uint256"
        }
      ],
      "stateMutability": "view",
      "type": "function"
    },
    {
      "inputs": [
        {
          "internalType": "address",
          "name": "token",
          "type": "address"
        }
      ],
      "name": "getRatioFor",
      "outputs": [
        {
          "internalType": "uint256",
          "name": "",
          "type": "uint256"
        }
      ],
      "stateMutability": "view",
      "type": "function"
    },
    {
      "inputs": [],
      "name": "getRatioThreshold",
      "outputs": [
        {
          "internalType": "uint256",
          "name": "",
          "type": "uint256"
        }
      ],
      "stateMutability": "view",
      "type": "function"
    },
    {
      "inputs": [
        {
          "internalType": "address",
          "name": "",
          "type": "address"
        }
      ],
      "name": "historicalRatios",
      "outputs": [
        {
          "internalType": "uint40",
          "name": "lastUpdate",
          "type": "uint40"
        }
      ],
      "stateMutability": "view",
      "type": "function"
    },
    {
      "inputs": [
        {
          "internalType": "contract IStakingConfig",
          "name": "stakingConfig",
          "type": "address"
        }
      ],
      "name": "initialize",
      "outputs": [],
      "stateMutability": "nonpayable",
      "type": "function"
    },
    {
      "inputs": [
        {
          "internalType": "address",
          "name": "token",
          "type": "address"
        },
        {
          "internalType": "uint256",
          "name": "ratio",
          "type": "uint256"
        }
      ],
      "name": "repairRatioFor",
      "outputs": [],
      "stateMutability": "nonpayable",
      "type": "function"
    },
    {
      "inputs": [
        {
          "internalType": "uint256",
          "name": "newValue",
          "type": "uint256"
        }
      ],
      "name": "setRatioThreshold",
      "outputs": [],
      "stateMutability": "nonpayable",
      "type": "function"
    },
    {
      "inputs": [
        {
          "internalType": "address[]",
          "name": "addresses",
          "type": "address[]"
        },
        {
          "internalType": "uint256[]",
          "name": "ratios",
          "type": "uint256[]"
        }
      ],
      "name": "updateRatioBatch",
      "outputs": [],
      "stateMutability": "nonpayable",
      "type": "function"
    }
  ],
  "transactionHash": "0xbf0ddbfe6725cf7f61ff427dc72a96294c7fccdaf519ea1aa0358016847c797e",
  "args": [],
  "numDeployments": 1,
  "solcInputHash": "ec61b6f542ebd960061b47e5cd60ea4f",
  "bytecode": "0x608060405234801561001057600080fd5b50610f3e806100206000396000f3fe608060405234801561001057600080fd5b50600436106100935760003560e01c8063a1f1d48d11610066578063a1f1d48d14610106578063b037d56a1461012f578063ba34fa0514610142578063c4d66de81461014a578063ec653c4b1461015d57600080fd5b806308af5431146100985780632364753a146100bd5780632acaaff4146100d25780632ef86a1f146100f3575b600080fd5b6100a36305f5e10081565b60405163ffffffff90911681526020015b60405180910390f35b6100d06100cb366004610b9a565b61019d565b005b6100e56100e0366004610bcb565b6102f2565b6040519081526020016100b4565b6100d0610101366004610bcb565b610488565b6100e5610114366004610bf7565b6001600160a01b031660009081526001602052604090205490565b6100d061013d366004610c66565b6105ce565b6003546100e5565b6100d0610158366004610bf7565b610997565b61018761016b366004610bf7565b60026020526000908152604090206003015464ffffffffff1681565b60405164ffffffffff90911681526020016100b4565b600060029054906101000a90046001600160a01b03166001600160a01b031663732524946040518163ffffffff1660e01b8152600401602060405180830381865afa1580156101f0573d6000803e3d6000fd5b505050506040513d601f19601f820116820180604052508101906102149190610cd1565b6001600160a01b0316336001600160a01b03161461024d5760405162461bcd60e51b815260040161024490610cee565b60405180910390fd5b6305f5e100811080156102605750600081115b6102ac5760405162461bcd60e51b815260206004820152601f60248201527f77726f6e672076616c756520666f7220726174696f207468726573686f6c64006044820152606401610244565b600380549082905560408051828152602081018490527f661e4cadf2d36ec16a59d60dcfeebe23f9be2aec99852725798a4be99790840e91015b60405180910390a15050565b600080821180156103035750600882105b61034f5760405162461bcd60e51b815260206004820152601960248201527f6461792073686f756c642062652066726f6d203120746f2037000000000000006044820152606401610244565b6001600160a01b0383166000908152600260205260408120805490916001600160401b03909116908260086103848785610d5c565b61038e9190610d85565b610399906001610d99565b600981106103a9576103a9610d30565b60048104909101546001600160401b036008600390931683026101000a90910416915060009084906103db9085610dac565b6103e6906001610dd2565b6001600160401b0316600981106103ff576103ff610d30565b600491828204019190066008029054906101000a90046001600160401b03166001600160401b031690508082101561043e576000945050505050610482565b6104488683610df9565b6104528284610d5c565b6104659068056bc75e2d63100000610df9565b6104719061016d610df9565b61047b9190610e10565b9450505050505b92915050565b600060029054906101000a90046001600160a01b03166001600160a01b031663732524946040518163ffffffff1660e01b8152600401602060405180830381865afa1580156104db573d6000803e3d6000fd5b505050506040513d601f19601f820116820180604052508101906104ff9190610cd1565b6001600160a01b0316336001600160a01b03161461052f5760405162461bcd60e51b815260040161024490610cee565b8060000361056f5760405162461bcd60e51b815260206004820152600d60248201526c726174696f206973207a65726f60981b6044820152606401610244565b6001600160a01b038216600081815260016020908152604091829020805490859055825181815291820185905292917f4c5c23b4efbfea6d16c8453f565e165a02a22cda9a8dc7aac0a66f91d2304da6910160405180910390a2505050565b600060029054906101000a90046001600160a01b03166001600160a01b0316632ec338ba6040518163ffffffff1660e01b8152600401602060405180830381865afa158015610621573d6000803e3d6000fd5b505050506040513d601f19601f820116820180604052508101906106459190610cd1565b6001600160a01b0316336001600160a01b0316146106a55760405162461bcd60e51b815260206004820181905260248201527f526174696f466565643a206f6e6c79206f70657261746f7220616c6c6f7765646044820152606401610244565b8281146106eb5760405162461bcd60e51b8152602060048201526014602482015273636f7272757074656420726174696f206461746160601b6044820152606401610244565b60006003541161073d5760405162461bcd60e51b815260206004820152601a60248201527f726174696f207468726573686f6c64206973206e6f74207365740000000000006044820152606401610244565b60005b8381101561099057600085858381811061075c5761075c610d30565b90506020020160208101906107719190610bf7565b6001600160a01b038116600090815260046020908152604080832054600190925282205492935091908686868181106107ac576107ac610d30565b9050602002013590506000806107c3858486610abf565b915091508161081a57856001600160a01b03167f2471a7627ad27128888e46dfc72f5d674c7156d6e99c969a675492a558a0b0e08483604051610807929190610e24565b60405180910390a250505050505061097e565b6001600160a01b03861660008181526001602090815260409182902086905581518781529081018690527f4c5c23b4efbfea6d16c8453f565e165a02a22cda9a8dc7aac0a66f91d2304da6910160405180910390a26001600160a01b038616600090815260046020908152604080832064ffffffffff42818116909255600290935292206003810154909262015144926108b5921690610d5c565b11156109765780546001600160401b0316848260086108d5846001610dd2565b6108df9190610dac565b6108ea906001610dd2565b6001600160401b03166009811061090357610903610d30565b600491828204019190066008026101000a8154816001600160401b0302191690836001600160401b0316021790555080600161093f9190610dd2565b825467ffffffffffffffff19166001600160401b03919091161782555060038101805464ffffffffff19164264ffffffffff161790555b505050505050505b8061098881610e7a565b915050610740565b5050505050565b600054610100900460ff16158080156109b75750600054600160ff909116105b806109d15750303b1580156109d1575060005460ff166001145b610a345760405162461bcd60e51b815260206004820152602e60248201527f496e697469616c697a61626c653a20636f6e747261637420697320616c72656160448201526d191e481a5b9a5d1a585b1a5e995960921b6064820152608401610244565b6000805460ff191660011790558015610a57576000805461ff0019166101001790555b6000805462010000600160b01b031916620100006001600160a01b038516021790558015610abb576000805461ff0019169055604051600181527f7f26b83ff96e1f2b6a682f133852f6798a09c465da95921460cefb3847402498906020016102e6565b5050565b6000606082600003610ad45760019150610b92565b61a8c0610ae18642610d5c565b1015610b0a5781604051806060016040528060288152602001610e946028913991509150610b92565b82841115610b355781604051806060016040528060248152602001610ebc6024913991509150610b92565b6003546000906305f5e10090610b4b9086610df9565b610b559190610e10565b9050610b618185610d5c565b851015610b8c5782604051806060016040528060298152602001610ee0602991399250925050610b92565b60019250505b935093915050565b600060208284031215610bac57600080fd5b5035919050565b6001600160a01b0381168114610bc857600080fd5b50565b60008060408385031215610bde57600080fd5b8235610be981610bb3565b946020939093013593505050565b600060208284031215610c0957600080fd5b8135610c1481610bb3565b9392505050565b60008083601f840112610c2d57600080fd5b5081356001600160401b03811115610c4457600080fd5b6020830191508360208260051b8501011115610c5f57600080fd5b9250929050565b60008060008060408587031215610c7c57600080fd5b84356001600160401b0380821115610c9357600080fd5b610c9f88838901610c1b565b90965094506020870135915080821115610cb857600080fd5b50610cc587828801610c1b565b95989497509550505050565b600060208284031215610ce357600080fd5b8151610c1481610bb3565b60208082526022908201527f526174696f466565643a206f6e6c7920676f7665726e616e636520616c6c6f77604082015261195960f21b606082015260800190565b634e487b7160e01b600052603260045260246000fd5b634e487b7160e01b600052601160045260246000fd5b8181038181111561048257610482610d46565b634e487b7160e01b600052601260045260246000fd5b600082610d9457610d94610d6f565b500690565b8082018082111561048257610482610d46565b60006001600160401b0380841680610dc657610dc6610d6f565b92169190910692915050565b6001600160401b03818116838216019080821115610df257610df2610d46565b5092915050565b808202811582820484141761048257610482610d46565b600082610e1f57610e1f610d6f565b500490565b82815260006020604081840152835180604085015260005b81811015610e5857858101830151858201606001528201610e3c565b506000606082860101526060601f19601f830116850101925050509392505050565b600060018201610e8c57610e8c610d46565b506001019056fe726174696f207761732075706461746564206c657373207468616e20313220686f7572732061676f6e657720726174696f2063616e6e6f742062652067726561746572207468616e206f6c646e657720726174696f20746f6f206c6f772c206e6f7420696e207468726573686f6c642072616e6765a26469706673582212204daaf7453a3e5ca2a512e1ab63d328e8ec580b1a17d9a329f49c9b3d221de88564736f6c63430008130033",
  "devdoc": {
    "events": {
      "Initialized(uint8)": {
        "details": "Triggered when the contract has been initialized or reinitialized."
      }
    },
    "kind": "dev",
    "methods": {},
    "stateVariables": {
      "_ratioThreshold": {
        "details": "diff between the current ratio and a new one in %(0.000001 ... 100%)"
      },
      "_ratioUpdates": {
        "details": "use this instead of HistoricalRatios.lastUpdate to check for 12hr ratio update timeout"
      }
    },
    "version": 1
  },
  "userdoc": {
    "kind": "user",
    "methods": {},
    "version": 1
  },
  "storageLayout": {
    "storage": [
      {
        "astId": 138,
        "contract": "contracts/RatioFeed.sol:RatioFeed",
        "label": "_initialized",
        "offset": 0,
        "slot": "0",
        "type": "t_uint8"
      },
      {
        "astId": 141,
        "contract": "contracts/RatioFeed.sol:RatioFeed",
        "label": "_initializing",
        "offset": 1,
        "slot": "0",
        "type": "t_bool"
      },
      {
        "astId": 2551,
        "contract": "contracts/RatioFeed.sol:RatioFeed",
        "label": "_stakingConfig",
        "offset": 2,
        "slot": "0",
        "type": "t_contract(IStakingConfig)4460"
      },
      {
        "astId": 2562,
        "contract": "contracts/RatioFeed.sol:RatioFeed",
        "label": "_ratios",
        "offset": 0,
        "slot": "1",
        "type": "t_mapping(t_address,t_uint256)"
      },
      {
        "astId": 2567,
        "contract": "contracts/RatioFeed.sol:RatioFeed",
        "label": "historicalRatios",
        "offset": 0,
        "slot": "2",
        "type": "t_mapping(t_address,t_struct(HistoricalRatios)2558_storage)"
      },
      {
        "astId": 2576,
        "contract": "contracts/RatioFeed.sol:RatioFeed",
        "label": "_ratioThreshold",
        "offset": 0,
        "slot": "3",
        "type": "t_uint256"
      },
      {
        "astId": 2581,
        "contract": "contracts/RatioFeed.sol:RatioFeed",
        "label": "_ratioUpdates",
        "offset": 0,
        "slot": "4",
        "type": "t_mapping(t_address,t_uint256)"
      }
    ],
    "types": {
      "t_address": {
        "encoding": "inplace",
        "label": "address",
        "numberOfBytes": "20"
      },
      "t_array(t_uint64)9_storage": {
        "base": "t_uint64",
        "encoding": "inplace",
        "label": "uint64[9]",
        "numberOfBytes": "96"
      },
      "t_bool": {
        "encoding": "inplace",
        "label": "bool",
        "numberOfBytes": "1"
      },
      "t_contract(IStakingConfig)4460": {
        "encoding": "inplace",
        "label": "contract IStakingConfig",
        "numberOfBytes": "20"
      },
      "t_mapping(t_address,t_struct(HistoricalRatios)2558_storage)": {
        "encoding": "mapping",
        "key": "t_address",
        "label": "mapping(address => struct RatioFeed.HistoricalRatios)",
        "numberOfBytes": "32",
        "value": "t_struct(HistoricalRatios)2558_storage"
      },
      "t_mapping(t_address,t_uint256)": {
        "encoding": "mapping",
        "key": "t_address",
        "label": "mapping(address => uint256)",
        "numberOfBytes": "32",
        "value": "t_uint256"
      },
      "t_struct(HistoricalRatios)2558_storage": {
        "encoding": "inplace",
        "label": "struct RatioFeed.HistoricalRatios",
        "members": [
          {
            "astId": 2555,
            "contract": "contracts/RatioFeed.sol:RatioFeed",
            "label": "historicalRatios",
            "offset": 0,
            "slot": "0",
            "type": "t_array(t_uint64)9_storage"
          },
          {
            "astId": 2557,
            "contract": "contracts/RatioFeed.sol:RatioFeed",
            "label": "lastUpdate",
            "offset": 0,
            "slot": "3",
            "type": "t_uint40"
          }
        ],
        "numberOfBytes": "128"
      },
      "t_uint256": {
        "encoding": "inplace",
        "label": "uint256",
        "numberOfBytes": "32"
      },
      "t_uint40": {
        "encoding": "inplace",
        "label": "uint40",
        "numberOfBytes": "5"
      },
      "t_uint64": {
        "encoding": "inplace",
        "label": "uint64",
        "numberOfBytes": "8"
      },
      "t_uint8": {
        "encoding": "inplace",
        "label": "uint8",
        "numberOfBytes": "1"
      }
    }
  }
}