{
  "address": "0x771133AAd47debB94162867B2473B4e35DF23245",
  "abi": [
    {
      "anonymous": false,
      "inputs": [
        {
          "indexed": false,
          "internalType": "address",
          "name": "prevValue",
          "type": "address"
        },
        {
          "indexed": false,
          "internalType": "address",
          "name": "newValue",
          "type": "address"
        }
      ],
      "name": "CertTokenAddressChanged",
      "type": "event"
    },
    {
      "anonymous": false,
      "inputs": [
        {
          "indexed": false,
          "internalType": "address",
          "name": "prevValue",
          "type": "address"
        },
        {
          "indexed": false,
          "internalType": "address",
          "name": "newValue",
          "type": "address"
        }
      ],
      "name": "EigenManagerAddressChanged",
      "type": "event"
    },
    {
      "anonymous": false,
      "inputs": [
        {
          "indexed": false,
          "internalType": "address",
          "name": "prevValue",
          "type": "address"
        },
        {
          "indexed": false,
          "internalType": "address",
          "name": "newValue",
          "type": "address"
        }
      ],
      "name": "GovernanceAddressChanged",
      "type": "event"
    },
    {
      "anonymous": false,
      "inputs": [
        {
          "indexed": false,
          "internalType": "uint8",
          "name": "version",
          "type": "uint8"
        }
      ],
      "name": "Initialized",
      "type": "event"
    },
    {
      "anonymous": false,
      "inputs": [
        {
          "indexed": false,
          "internalType": "uint256",
          "name": "prevValue",
          "type": "uint256"
        },
        {
          "indexed": false,
          "internalType": "uint256",
          "name": "newValue",
          "type": "uint256"
        }
      ],
      "name": "MinStakeChanged",
      "type": "event"
    },
    {
      "anonymous": false,
      "inputs": [
        {
          "indexed": false,
          "internalType": "uint256",
          "name": "prevValue",
          "type": "uint256"
        },
        {
          "indexed": false,
          "internalType": "uint256",
          "name": "newValue",
          "type": "uint256"
        }
      ],
      "name": "MinUnstakeChanged",
      "type": "event"
    },
    {
      "anonymous": false,
      "inputs": [
        {
          "indexed": false,
          "internalType": "address",
          "name": "prevValue",
          "type": "address"
        },
        {
          "indexed": false,
          "internalType": "address",
          "name": "newValue",
          "type": "address"
        }
      ],
      "name": "OperatorAddressChanged",
      "type": "event"
    },
    {
      "anonymous": false,
      "inputs": [
        {
          "indexed": false,
          "internalType": "address",
          "name": "prevValue",
          "type": "address"
        },
        {
          "indexed": false,
          "internalType": "address",
          "name": "newValue",
          "type": "address"
        }
      ],
      "name": "RatioFeedAddressChanged",
      "type": "event"
    },
    {
      "anonymous": false,
      "inputs": [
        {
          "indexed": false,
          "internalType": "address",
          "name": "prevValue",
          "type": "address"
        },
        {
          "indexed": false,
          "internalType": "address",
          "name": "newValue",
          "type": "address"
        }
      ],
      "name": "StakingPoolAddressChanged",
      "type": "event"
    },
    {
      "anonymous": false,
      "inputs": [
        {
          "indexed": false,
          "internalType": "address",
          "name": "prevValue",
          "type": "address"
        },
        {
          "indexed": false,
          "internalType": "address",
          "name": "newValue",
          "type": "address"
        }
      ],
      "name": "TreasuryAddressChanged",
      "type": "event"
    },
    {
      "inputs": [],
      "name": "getCertTokenAddress",
      "outputs": [
        {
          "internalType": "address",
          "name": "",
          "type": "address"
        }
      ],
      "stateMutability": "view",
      "type": "function"
    },
    {
      "inputs": [],
      "name": "getEigenPodManagerAddress",
      "outputs": [
        {
          "internalType": "address",
          "name": "",
          "type": "address"
        }
      ],
      "stateMutability": "view",
      "type": "function"
    },
    {
      "inputs": [],
      "name": "getGovernanceAddress",
      "outputs": [
        {
          "internalType": "address",
          "name": "",
          "type": "address"
        }
      ],
      "stateMutability": "view",
      "type": "function"
    },
    {
      "inputs": [],
      "name": "getMinStake",
      "outputs": [
        {
          "internalType": "uint256",
          "name": "",
          "type": "uint256"
        }
      ],
      "stateMutability": "view",
      "type": "function"
    },
    {
      "inputs": [],
      "name": "getMinUnstake",
      "outputs": [
        {
          "internalType": "uint256",
          "name": "",
          "type": "uint256"
        }
      ],
      "stateMutability": "view",
      "type": "function"
    },
    {
      "inputs": [],
      "name": "getOperatorAddress",
      "outputs": [
        {
          "internalType": "address",
          "name": "",
          "type": "address"
        }
      ],
      "stateMutability": "view",
      "type": "function"
    },
    {
      "inputs": [],
      "name": "getRatioFeedAddress",
      "outputs": [
        {
          "internalType": "address",
          "name": "",
          "type": "address"
        }
      ],
      "stateMutability": "view",
      "type": "function"
    },
    {
      "inputs": [],
      "name": "getStakingPoolAddress",
      "outputs": [
        {
          "internalType": "address",
          "name": "",
          "type": "address"
        }
      ],
      "stateMutability": "view",
      "type": "function"
    },
    {
      "inputs": [],
      "name": "getTreasuryAddress",
      "outputs": [
        {
          "internalType": "address",
          "name": "",
          "type": "address"
        }
      ],
      "stateMutability": "view",
      "type": "function"
    },
    {
      "inputs": [
        {
          "internalType": "uint256",
          "name": "minimumUnstake",
          "type": "uint256"
        },
        {
          "internalType": "uint256",
          "name": "minimumStake",
          "type": "uint256"
        },
        {
          "internalType": "address",
          "name": "operatorAddress",
          "type": "address"
        },
        {
          "internalType": "address",
          "name": "governanceAddress",
          "type": "address"
        },
        {
          "internalType": "address",
          "name": "treasuryAddress",
          "type": "address"
        },
        {
          "internalType": "address",
          "name": "stakingPoolAddress",
          "type": "address"
        },
        {
          "internalType": "address",
          "name": "certTokenAddress",
          "type": "address"
        },
        {
          "internalType": "address",
          "name": "ratioFeed",
          "type": "address"
        },
        {
          "internalType": "address",
          "name": "eigenPodManager",
          "type": "address"
        }
      ],
      "name": "initialize",
      "outputs": [],
      "stateMutability": "nonpayable",
      "type": "function"
    },
    {
      "inputs": [
        {
          "internalType": "address",
          "name": "newValue",
          "type": "address"
        }
      ],
      "name": "setCertTokenAddress",
      "outputs": [],
      "stateMutability": "nonpayable",
      "type": "function"
    },
    {
      "inputs": [
        {
          "internalType": "address",
          "name": "newValue",
          "type": "address"
        }
      ],
      "name": "setGovernanceAddress",
      "outputs": [],
      "stateMutability": "nonpayable",
      "type": "function"
    },
    {
      "inputs": [
        {
          "internalType": "uint256",
          "name": "newValue",
          "type": "uint256"
        }
      ],
      "name": "setMinStake",
      "outputs": [],
      "stateMutability": "nonpayable",
      "type": "function"
    },
    {
      "inputs": [
        {
          "internalType": "uint256",
          "name": "newValue",
          "type": "uint256"
        }
      ],
      "name": "setMinUnstake",
      "outputs": [],
      "stateMutability": "nonpayable",
      "type": "function"
    },
    {
      "inputs": [
        {
          "internalType": "address",
          "name": "newValue",
          "type": "address"
        }
      ],
      "name": "setOperatorAddress",
      "outputs": [],
      "stateMutability": "nonpayable",
      "type": "function"
    },
    {
      "inputs": [
        {
          "internalType": "address",
          "name": "newValue",
          "type": "address"
        }
      ],
      "name": "setRatioFeedAddress",
      "outputs": [],
      "stateMutability": "nonpayable",
      "type": "function"
    },
    {
      "inputs": [
        {
          "internalType": "address",
          "name": "newValue",
          "type": "address"
        }
      ],
      "name": "setStakingPoolAddress",
      "outputs": [],
      "stateMutability": "nonpayable",
      "type": "function"
    },
    {
      "inputs": [
        {
          "internalType": "address",
          "name": "newValue",
          "type": "address"
        }
      ],
      "name": "setTreasuryAddress",
      "outputs": [],
      "stateMutability": "nonpayable",
      "type": "function"
    }
  ],
  "transactionHash": "0x4ed8cd71780cdd2cd204f088b511a0639513f60b8f2f770aeb6f643e9b96882c",
  "args": [],
  "numDeployments": 1,
  "solcInputHash": "ec61b6f542ebd960061b47e5cd60ea4f",
  "bytecode": "0x608060405234801561001057600080fd5b50610f51806100206000396000f3fe608060405234801561001057600080fd5b50600436106101165760003560e01c80638c80fd90116100a2578063bd55a84e11610071578063bd55a84e1461021d578063cfc162541461022e578063d2295eff14610241578063e002460414610254578063e87ff3441461026557600080fd5b80638c80fd90146101d55780638ce4ff16146101e85780638ed872e6146101fb578063b6217be71461020c57600080fd5b806356a3b5fa116100e957806356a3b5fa146101835780636605bfda1461018b5780636e9db26e1461019e57806373252494146101b1578063845b9150146101c257600080fd5b8063034c44541461011b578063203d81c1146101365780632ec338ba1461014b5780632f1d5a6014610170575b600080fd5b610123610276565b6040519081526020015b60405180910390f35b610149610144366004610cc4565b61029d565b005b6001546001600160a01b03165b6040516001600160a01b03909116815260200161012d565b61014961017e366004610cc4565b610355565b6101236103f8565b610149610199366004610cc4565b61041b565b6101496101ac366004610cc4565b6104be565b6002546001600160a01b0316610158565b6101496101d0366004610ce6565b610561565b6101496101e3366004610ce6565b610597565b6101496101f6366004610cff565b6105ca565b6006546001600160a01b0316610158565b6005546001600160a01b0316610158565b6007546001600160a01b0316610158565b61014961023c366004610cc4565b610948565b61014961024f366004610cc4565b6109eb565b6003546001600160a01b0316610158565b6004546001600160a01b0316610158565b600080546102989062010000900467ffffffffffffffff16633b9aca00610daf565b905090565b6002546001600160a01b031633146102d05760405162461bcd60e51b81526004016102c790610dcc565b60405180910390fd5b6001600160a01b0381166102f65760405162461bcd60e51b81526004016102c790610e03565b600580546001600160a01b038381166001600160a01b03198316179092556040519116907f9ce404b121e13a051d915e2e8ffd02c961417a8882f46fec013411e84c7f82d3906103499083908590610e46565b60405180910390a15050565b6002546001600160a01b0316331461037f5760405162461bcd60e51b81526004016102c790610dcc565b6001600160a01b0381166103a55760405162461bcd60e51b81526004016102c790610e03565b600180546001600160a01b038381166001600160a01b03198316179092556040519116907f6d83175096b0de3f5de98ab86d95234fb1a95bd44b8e97696d5b195b27bf42fd906103499083908590610e46565b6000805461029890600160501b900467ffffffffffffffff16633b9aca00610daf565b6002546001600160a01b031633146104455760405162461bcd60e51b81526004016102c790610dcc565b6001600160a01b03811661046b5760405162461bcd60e51b81526004016102c790610e03565b600380546001600160a01b038381166001600160a01b03198316179092556040519116907f4fc6e7a37aea21888550b60360992adb6a9b3b4da644d63e9f3a420c2d86e282906103499083908590610e46565b6002546001600160a01b031633146104e85760405162461bcd60e51b81526004016102c790610dcc565b6001600160a01b03811661050e5760405162461bcd60e51b81526004016102c790610e03565b600780546001600160a01b038381166001600160a01b03198316179092556040519116907f5eb18df2507d560d200b3f0500f2c8f0a1451987559d67ccd2a9f803d729447d906103499083908590610e46565b6002546001600160a01b0316331461058b5760405162461bcd60e51b81526004016102c790610dcc565b61059481610a8e565b50565b6002546001600160a01b031633146105c15760405162461bcd60e51b81526004016102c790610dcc565b61059481610b9a565b600054610100900460ff16158080156105ea5750600054600160ff909116105b806106045750303b158015610604575060005460ff166001145b6106675760405162461bcd60e51b815260206004820152602e60248201527f496e697469616c697a61626c653a20636f6e747261637420697320616c72656160448201526d191e481a5b9a5d1a585b1a5e995960921b60648201526084016102c7565b6000805460ff19166001179055801561068a576000805461ff0019166101001790555b61069389610b9a565b61069c8a610a8e565b600180546001600160a01b0319166001600160a01b038a161790556040517f6d83175096b0de3f5de98ab86d95234fb1a95bd44b8e97696d5b195b27bf42fd906106ea906000908b90610e46565b60405180910390a1600780546001600160a01b0319166001600160a01b0386161790556040517f5eb18df2507d560d200b3f0500f2c8f0a1451987559d67ccd2a9f803d729447d90610740906000908790610e46565b60405180910390a1600280546001600160a01b0319166001600160a01b0389161790556040517f023588d3d1dcaad34e471c9e01b616b794156174bc693539c8fe15c0bfd5d82690610796906000908a90610e46565b60405180910390a1600380546001600160a01b0319166001600160a01b0388161790556040517f4fc6e7a37aea21888550b60360992adb6a9b3b4da644d63e9f3a420c2d86e282906107ec906000908990610e46565b60405180910390a1600580546001600160a01b0319166001600160a01b0387161790556040517f9ce404b121e13a051d915e2e8ffd02c961417a8882f46fec013411e84c7f82d390610842906000908890610e46565b60405180910390a1600680546001600160a01b0319166001600160a01b0384161790556040517f68d0770ff8eaea943d0b2f2020510cc23bbedaefd94add71cda3b4a4054b11c390610898906000908590610e46565b60405180910390a1600480546001600160a01b0319166001600160a01b0385161790556040517feb06cc25da8e6462dfb53cbdcffa08eacbc3833c4f299500a8944ad43e4fd3d2906108ee906000908690610e46565b60405180910390a1801561093c576000805461ff0019169055604051600181527f7f26b83ff96e1f2b6a682f133852f6798a09c465da95921460cefb38474024989060200160405180910390a15b50505050505050505050565b6002546001600160a01b031633146109725760405162461bcd60e51b81526004016102c790610dcc565b6001600160a01b0381166109985760405162461bcd60e51b81526004016102c790610e03565b600280546001600160a01b038381166001600160a01b03198316179092556040519116907f023588d3d1dcaad34e471c9e01b616b794156174bc693539c8fe15c0bfd5d826906103499083908590610e46565b6002546001600160a01b03163314610a155760405162461bcd60e51b81526004016102c790610dcc565b6001600160a01b038116610a3b5760405162461bcd60e51b81526004016102c790610e03565b600480546001600160a01b038381166001600160a01b03198316179092556040519116907feb06cc25da8e6462dfb53cbdcffa08eacbc3833c4f299500a8944ad43e4fd3d2906103499083908590610e46565b610a9c633b9aca0082610e76565b15610ab95760405162461bcd60e51b81526004016102c790610e8a565b6000610ac3610276565b9050610ad3633b9aca0083610edb565b6000805469ffffffffffffffff000019166201000067ffffffffffffffff938416810291909117918290558492610b13929190910416633b9aca00610eef565b67ffffffffffffffff1614610b645760405162461bcd60e51b81526020600482015260176024820152765374616b696e67436f6e6669673a206f766572666c6f7760481b60448201526064016102c7565b60408051828152602081018490527f984016d328adef81f3cc09f8ea9e3420f85d390635be94215c432e83837aa0a29101610349565b610ba8633b9aca0082610e76565b15610bc55760405162461bcd60e51b81526004016102c790610e8a565b6000610bcf6103f8565b9050610bdf633b9aca0083610edb565b6000805467ffffffffffffffff60501b1916600160501b67ffffffffffffffff938416810291909117918290558492610c21929190910416633b9aca00610eef565b67ffffffffffffffff1614610c725760405162461bcd60e51b81526020600482015260176024820152765374616b696e67436f6e6669673a206f766572666c6f7760481b60448201526064016102c7565b60408051828152602081018490527fca11c8a4c461b60c9f485404c272650c2aaae260b2067d72e9924abb685565939101610349565b80356001600160a01b0381168114610cbf57600080fd5b919050565b600060208284031215610cd657600080fd5b610cdf82610ca8565b9392505050565b600060208284031215610cf857600080fd5b5035919050565b60008060008060008060008060006101208a8c031215610d1e57600080fd5b8935985060208a01359750610d3560408b01610ca8565b9650610d4360608b01610ca8565b9550610d5160808b01610ca8565b9450610d5f60a08b01610ca8565b9350610d6d60c08b01610ca8565b9250610d7b60e08b01610ca8565b9150610d8a6101008b01610ca8565b90509295985092959850929598565b634e487b7160e01b600052601160045260246000fd5b8082028115828204841417610dc657610dc6610d99565b92915050565b6020808252601e908201527f5374616b696e67436f6e6669673a206f6e6c7920676f7665726e616e63650000604082015260600190565b60208082526023908201527f5374616b696e67436f6e6669673a20616464726573732063616e2774206265206040820152621b9a5b60ea1b606082015260800190565b6001600160a01b0392831681529116602082015260400190565b634e487b7160e01b600052601260045260246000fd5b600082610e8557610e85610e60565b500690565b60208082526031908201527f5374616b696e67436f6e6669673a2076616c75652073686f756c64206265206d604082015270756c7469706c696564206f66206777656960781b606082015260800190565b600082610eea57610eea610e60565b500490565b67ffffffffffffffff818116838216028082169190828114610f1357610f13610d99565b50509291505056fea2646970667358221220e16d0528b9e418677c0637f0299de1e2dfd71732192e7bda8ceb1bd7024456c264736f6c63430008130033",
  "devdoc": {
    "events": {
      "Initialized(uint8)": {
        "details": "Triggered when the contract has been initialized or reinitialized."
      }
    },
    "kind": "dev",
    "methods": {},
    "stateVariables": {
      "_minimumUnstake": {
        "details": "compact size, should be multiplied by 1 gwei"
      }
    },
    "version": 1
  },
  "userdoc": {
    "kind": "user",
    "methods": {},
    "version": 1
  },
  "storageLayout": {
    "storage": [
      {
        "astId": 138,
        "contract": "contracts/StakingConfig.sol:StakingConfig",
        "label": "_initialized",
        "offset": 0,
        "slot": "0",
        "type": "t_uint8"
      },
      {
        "astId": 141,
        "contract": "contracts/StakingConfig.sol:StakingConfig",
        "label": "_initializing",
        "offset": 1,
        "slot": "0",
        "type": "t_bool"
      },
      {
        "astId": 3061,
        "contract": "contracts/StakingConfig.sol:StakingConfig",
        "label": "_minimumUnstake",
        "offset": 2,
        "slot": "0",
        "type": "t_uint64"
      },
      {
        "astId": 3063,
        "contract": "contracts/StakingConfig.sol:StakingConfig",
        "label": "_minimumStake",
        "offset": 10,
        "slot": "0",
        "type": "t_uint64"
      },
      {
        "astId": 3065,
        "contract": "contracts/StakingConfig.sol:StakingConfig",
        "label": "_operatorAddress",
        "offset": 0,
        "slot": "1",
        "type": "t_address"
      },
      {
        "astId": 3067,
        "contract": "contracts/StakingConfig.sol:StakingConfig",
        "label": "_governanceAddress",
        "offset": 0,
        "slot": "2",
        "type": "t_address"
      },
      {
        "astId": 3069,
        "contract": "contracts/StakingConfig.sol:StakingConfig",
        "label": "_treasuryAddress",
        "offset": 0,
        "slot": "3",
        "type": "t_address"
      },
      {
        "astId": 3071,
        "contract": "contracts/StakingConfig.sol:StakingConfig",
        "label": "_ratioFeedAddress",
        "offset": 0,
        "slot": "4",
        "type": "t_address"
      },
      {
        "astId": 3073,
        "contract": "contracts/StakingConfig.sol:StakingConfig",
        "label": "_stakingPoolAddress",
        "offset": 0,
        "slot": "5",
        "type": "t_address"
      },
      {
        "astId": 3075,
        "contract": "contracts/StakingConfig.sol:StakingConfig",
        "label": "_eigenPodManagerAddress",
        "offset": 0,
        "slot": "6",
        "type": "t_address"
      },
      {
        "astId": 3077,
        "contract": "contracts/StakingConfig.sol:StakingConfig",
        "label": "_certTokenAddress",
        "offset": 0,
        "slot": "7",
        "type": "t_address"
      }
    ],
    "types": {
      "t_address": {
        "encoding": "inplace",
        "label": "address",
        "numberOfBytes": "20"
      },
      "t_bool": {
        "encoding": "inplace",
        "label": "bool",
        "numberOfBytes": "1"
      },
      "t_uint64": {
        "encoding": "inplace",
        "label": "uint64",
        "numberOfBytes": "8"
      },
      "t_uint8": {
        "encoding": "inplace",
        "label": "uint8",
        "numberOfBytes": "1"
      }
    }
  }
}